C73070111507600013     8500000202303UTEM000001SUHAILI BINTI SALLEHUDDIN                 
C72112604502900014     1450840202303UTEM000001SHAMSUL BIN SABTU @ SHARIFF               
C77072701648600015     1601000202303UTEM000001NORAIDA BINTI MOHAMAD NOH                 
C67111004518700017     4468200202303UTEM000001MOHD ARRAWI BIN HJ ABDUL HAMID            
C73020501507600019     1039000202303UTEM000001NOR'EMYLIA BINTI MOHAMED                  
C66050801524000020     1587000202303UTEM000001LELA BINTI OMAR                           
C77022808651900021     1475000202303UTEM000001AHMAD FADZLI NIZAM BIN ABDUL RAHMAN       
C76061204533300022     1068000202303UTEM000001AZHAR BIN MOHD SALLEH                     
C77090504543200025     2042200202303UTEM000001SABARINA BINTI ABDULLAH                   
C74010104526100026     1329250202303UTEM000001BAKRI BIN ABU BAKAR                       
C79050504504400028     2009700202303UTEM000001SURAYAH BINTI SAE                         
C66052602618900033     5200000202303UTEM000001ZAIMI BIN ZOL                             
C80011814511300036     1320000202303UTEM000001ZULKARNAIN BIN BAHAROM                    
C77110201654400040     1406000202303UTEM000001NOOR BAHIRAH BINTI JOHAL                  
C66053001646900041     2238100202303UTEM000001AB RAHIM BIN MUSLIM                       
C79080504513400044     5260000202303UTEM000001ROSNAH BINTI AB MAJID                     
C75041901628300045     4764000202303UTEM000001MUHAMMAD SYAHRIR BIN JOHAL                
C70033003519100046     5951400202303UTEM000001AHMAD SHAARIZAN BIN SHAARANI              
C71071901579600049     8500000202303UTEM000001NORELIZA BINTI ADAM                       
C77061504563700050     1072600202303UTEM000001HASAN BIN SALEH                           
C75080204531900051     7580000202303UTEM000001MUHAMMED RASHID BIN MAT DERUS             
C81091604549000052     2344000202303UTEM000001KHAIRUNNISA BINTI ABDULLAH                
C76110701679800053     1873460202303UTEM000001ZANARIAH BINTI ALI                        
C73011004527200054     2196300202303UTEM000001MASRI BINTI AWALUDIN                      
C77080404547600055     4654400202303UTEM000001NURAIDA BINTI ISMAIL                      
C76022104555500056     2697520202303UTEM000001ADLI BIN OMAR                             
C75060704507300057     4790000202303UTEM000001AHMAD BIN ABU BAKAR                       
C72101714546900058     1686000202303UTEM000001WAN AMIRRUDDIN BIN WAN MOHD               
C74052504505400061     2159820202303UTEM000001ERNI SUHADAH BINTI MOD HUSIN              
C76072401712600063     3000000202303UTEM000001ALIDAH BINTI MOHD ALI                     
C69120904528100064     2348000202303UTEM000001MOHD FAIRUZ BIN DIMIN @ MOHD AMIN         
C83072204518300065     1756000202303UTEM000001ROHAIZAN BIN ABAS                         
C73121601690900067     1156870202303UTEM000001NOOR RAHMAN JAMIAH BIN JALIL              
C74090801648800068     1290440202303UTEM000001SITI SALUWA BINTI JAMAL                   
C73111704504200073     1090000202303UTEM000001SHARIFAH INTAN BINTI OSMAN                
C77111004581200075     2343000202303UTEM000001MAISARAH BINTI ABU                        
C70021604519300076     1889640202303UTEM000001ZUHAIMI BIN ALIAS                         
C76050514568900077     8000000202303UTEM000001MOHD NIZAM BIN MAZLAN                     
C73101905502800083     1793000202303UTEM000001ANISAH BINTI KASIM                        
C78102205524300084     1730930202303UTEM000001AZRUL IZMAN BIN KAMARULZAMAN              
C77041404551800085     5800000202303UTEM000001NORHAZLENA BINTI SABTU                    
C75083104539300086     1056700202303UTEM000001ZULKARNAEN BIN MAHAT                      
C71050501591800087     5200000202303UTEM000001RAHFESTA BINTI ABD RAHMAN                 
C76022004502700089     2483000202303UTEM000001ANIS BIN MD TAHIR                         
C79080208617600090     4290000202303UTEM000001AZIZA BINTI MD BUANG                      
C77100714573500091     2064000202303UTEM000001MUHAMMAD RASHDAN BIN MUHAMMAD             
C64092904500100092     1414870202303UTEM000001ISMAIL BIN HAMID                          
C78071408619300093     6370000202303UTEM000001HADZLI ZUL BIN HAMRAN                     
C75041713577200094     2123980202303UTEM000001SITI HUZAIMAH BINTI HUSIN                 
C74062501687500096     2056000202303UTEM000001RAIS BIN MAHAT                            
C76041104514200098     5046200202303UTEM000001HAZILAH BINTI HAMID                       
C76020301620800101     1148000202303UTEM000001RAFEDAH BINTI SAJADI                      
C79072114507400102     1804600202303UTEM000001JURIFA BINTI MAT LAZI                     
C76121814543700103     2040800202303UTEM000001ZAIHASRAF BIN ZAKARIA                     
C76052671512600106     2250000202303UTEM000001HIDAYAH BINTI RAHMALAN                    
C68060801588700107     2902000202303UTEM000001MOHAMAD BIN MINHAT                        
C71060501553600108     1607980202303UTEM000001RUSLINA BINTI RUSMANI                     
C72021504530900109     2182000202303UTEM000001ABDUL RASHID BIN ABDUL RAHMAN             
C77020701640700111     1616000202303UTEM000001ABD HALIM BIN TUMIRAN                     
C73120304513700112     2177000202303UTEM000001MOHD YUSRI BIN JAMIL                      
C67121504531900113     1348200202303UTEM000001ABDUL RAZAK BIN HUSSAIN                   
C77120713564600118     1560000202303UTEM000001FAUZURA BINTI MOHD SALLEH                 
C74082801718100119     1514260202303UTEM000001ZULKEFLEE BIN ABDULLAH                    
C67022605538200124     5690000202303UTEM000001RAZIFAH BINTI MAT RAIS                    
C75093011510700132     6290000202303UTEM000001W. MOHD ZAILIMI BIN  W. ABDULLAH @ ZAKAR  
C70112004546800133     9130000202303UTEM000001MARSITA BINTI MOHD TAIB                   
C66030304521900134     1032000202303UTEM000001SHAHRAN BIN MOKSEN @ MOHD HUSSIN          
C69022504504100139     8570000202303UTEM000001MUSA BIN ABDULLAH                         
C81072904530500140     6880000202303UTEM000001MOHAMAD ROSLAN BIN SABTU                  
C72021504533300141     1654000202303UTEM000001RAIMAN BIN ISMAIL                         
C79110314542600142     8500000202303UTEM000001SYARULNAZIAH BINTI ANAWAR                 
C67052304544700145     8500000202303UTEM000001MD NOR BIN MOHAMAD SALEH                  
C80020501563200146     1972230202303UTEM000001SHARNIZA BINTI ZAINUDIN                   
C80030201600400148     8970000202303UTEM000001NOOR AZIAN BINTI MAHMOOD                  
C75111706511300149     1263400202303UTEM000001YUSMADY BIN MOHAMED ARIFIN                
C74051904519700150     9630000202303UTEM000001RASHDAN BIN SEMAN                         
C78032604549600151     2186160202303UTEM000001ZULAIHA BINTI MD. ALI                     
C77071504535100153     1104400202303UTEM000001MOHD RADUAN BIN KHALIL                    
C78041410570000154     1104400202303UTEM000001SITI ZURAH BINTI MOHD NASIR               
C73061804546800156     1152510202303UTEM000001NORHANIM BINTI SULAIMAN                   
C70110901507300157     2970000202303UTEM000001HASSAN BIN ATTAN                          
C69020110590000162     1043130202303UTEM000001ROSIDAH BINTI JAAFAR                      
C80050604507700163     8870000202303UTEM000001SHARUDIN BIN AB MAJID                     
C79052905508700165     1484000202303UTEM000001MUHAMAD SYAHRUL AZHAR BIN SANI            
C77072405547100166     4782500202303UTEM000001MOHD WARIKH BIN ABD RASHID                
C76051303545500167     1857000202303UTEM000001WAN MOHD FARID  BIN WAN MOHAMAD           
C74022414556100169     2175100202303UTEM000001SHAMSUL ANUAR BIN SHAMSUDIN               
C63051301668900170     2488800202303UTEM000001MOHD AEINI BIN AMIN                       
C73051014556300174     3420000202303UTEM000001SYED NAJIB BIN SYED SALIM                 
C82101401570400175     6650000202303UTEM000001NORAINA BINTI MD JAMBOL                   
C82031405540400176     1024900202303UTEM000001NAZARINA BINTI ABDUL NASSER               
C72060201613700178     8500000202303UTEM000001HAMBALI BIN AREP @ ARIFF                  
C76111204543800180     6160000202303UTEM000001AZEAN BINTI AHMAD                         
C74072001652300181     3889200202303UTEM000001NORIZAN BIN MOHAMAD                       
C76050201700800182     3153410202303UTEM000001NORASHIKIN BINTI AHMAD                    
C77061804511400184     9962000202303UTEM000001MAASPALIZA BINTI AZRI                     
C78080304526200186     4000000202303UTEM000001NOOR IZWANNI BINTI AMIL                   
C77031902616700192     7680000202303UTEM000001MUHAMMAD ZAHIR BIN HASSAN                 
C77052314530700193     1666000202303UTEM000001MOHD LUQMAN BIN MOHD JAMIL                
C76052702644500194     8333600202303UTEM000001IMRAN SYAKIR BIN MOHAMAD                  
C70062210553400198     1358800202303UTEM000001AZZILLA BINTI AHMAD                       
C69041005518800199     2006400202303UTEM000001FAUZIYAH BINTI SALEHUDDIN                 
C65020204559500202     3510000202303UTEM000001ATAN BIN ADAM                             
C77012004560000203     1159000202303UTEM000001RASIDA BINTI ABU BAKAR                    
C77031204535700204     1308000202303UTEM000001MUHAMMAD NAZAM B A. BAKAR                 
C77060906552700205     2520000202303UTEM000001MOHD KHAIRI BIN MOHAMED NOR               
C79081901539000206     7570000202303UTEM000001HAYANI BINTI ABU YAMIN                    
C81043004523900207     3820000202303UTEM000001MOHD HANAFI BIN HASSAN                    
C76080504508100211     1669000202303UTEM000001ZAMANI BIN SALLEH                         
C76101104509200212     5500000202303UTEM000001RINA ARIANTY BINTI HASHIM                 
C63121405525200214     2426000202303UTEM000001NORHAYATI BINTI HAJI MAHAT                
C78010504547600216     2004980202303UTEM000001ERDALIA ERNA BINTI DAUD                   
C76091211510200219     1211800202303UTEM000001SHARIFAH NURUL FARIDAH BT SYED ABU BAKAR  
C78101301622600220     1153000202303UTEM000001NOORAZILAH BINTI MOHAMED                  
C74020902603800221     1022000202303UTEM000001SABARIAH BINTI ISMAIL                     
C81082504502200224     5390000202303UTEM000001MARHAMAH BINTI AHMAD                      
C82040510571000226     8334900202303UTEM000001MI AZIAN BINTI AB.KARIM                   
C78081006530900227     1392000202303UTEM000001KASRUL BIN ABDUL KARIM                    
C79052105513800228     1159000202303UTEM000001NORAZLIN BINTI MOHAMMED                   
C79020204511900229     8500000202303UTEM000001RAZALI BIN YAAKOB                         
C82033004513400233     2167000202303UTEM000001NOR AINI BINTI MD.JALI                    
C79022301519700234     7240000202303UTEM000001ZAINUDIN BIN SALLEH                       
C79010804516300235     8460000202303UTEM000001NORHAIROL BIN KHALID                      
C74031304523900237     1906000202303UTEM000001NASZRI BIN BIDIN                          
C68101504514500238     1132000202303UTEM000001NORZAM BIN SUKARI                         
C70080304523500239     1980000202303UTEM000001SARIMAN BIN AJIS                          
C77072604586700240     8640000202303UTEM000001MD SHAHRUL NIZAM BIN MD IRHAM             
C78032314502900244     6500000202303UTEM000001HAZRIL BIN ABDUL WAHAB                    
C72031904520700246     2370000202303UTEM000001RAZIP AFFENDY BIN ARIPIN                  
C78010705539500248     3507000202303UTEM000001AMIR SYARIFUDDIN BIN KASIM                
C80090713504900250     1423000202303UTEM000001SAIFULLAH BIN SALAM                       
C63100105608300251     7000000202303UTEM000001ZAHRUDDIN BIN OTHMAN                      
C80012514564800254     2246700202303UTEM000001SABRINA BINTI HJ SALEH                    
C73112404521900258     1680000202303UTEM000001MOHD NIZAM BIN PAVEL                      
C75050911548800259     2512000202303UTEM000001HAFZAN BINTI ARIFFIN                      
C80061501629100260     1104400202303UTEM000001MUHAMMAD FAHMI BIN MISKON                 
C77013111509600261     1546000202303UTEM000001NIZA BINTI MOHD IDRIS                     
C72091905508900262     6303000202303UTEM000001DEENOO AIZAD ABADI BIN MD. NOH            
C74120104532700263     3510000202303UTEM000001MOHD AZMI BIN MAT SAID                    
C69110405537900267     6600000202303UTEM000001MOHD NAZRI BIN ABDUL MOKTE                
C81061304512700268     8980000202303UTEM000001MOHD HISYAM BIN IBRAHIM                   
C76112101550500269     1474930202303UTEM000001KHAIRULNIZAM BIN A. RAHMAN                
C76052601682700270     1104400202303UTEM000001HAIRULISAM BIN MD DOM                     
C80022414512500271     4920000202303UTEM000001RAZMI BIN A RAZAK                         
C76041401668900272     1467000202303UTEM000001MOHAMAD NIZAM BIN AYOF                    
C74072602545500275     3218270202303UTEM000001MOHD SHAMSURI BIN MD SAAD                 
C77112611547500276     5750000202303UTEM000001MOHD KAMAL TARMIZI BIN RAZAK              
C76060501739300278     1410000202303UTEM000001YUSRI BIN OTHMAN                          
C78101603518200279     3244000202303UTEM000001ANIS SUHAILA BINTI MOHD ZAIN              
C80011001657900280     1104400202303UTEM000001ASJUFRI BIN MUHAJIR                       
C77021604531400283     1366000202303UTEM000001SYAHIRA BINTI MOHD ADNAN                  
C76112202532600284     8227000202303UTEM000001NORIZA BINTI MAT ISA @ AHMAD              
C76051710585200286     1672000202303UTEM000001F HASLINDA BINTI HARUN                    
C77010101866600288     6604400202303UTEM000001NORLELA BINTI ROSNAN                      
C79111401644300291     8500000202303UTEM000001ZULKIFLEE BIN MUSLIM                      
C72081701595900293     3327000202303UTEM000001FAIZAL BIN KAMIDI                         
C79121404528400297     2743000202303UTEM000001YUSMARNITA BINTI YUSOP                    
C68051001538700299     1965000202303UTEM000001ZAINAL BIN  HJ.MAHDI                      
C78110404558300301     2129800202303UTEM000001AINUDDIN BIN ABU KASIM                    
C64101601586500302     1372860202303UTEM000001MOHAMAD LAILY BIN JA'AMAN                 
C78121804549300306     2604180202303UTEM000001NURULFAJAR BIN ABD MANAP                  
C77091611510900308     4982000202303UTEM000001AHMAD ANAS BIN YUSOF                      
C76010601674000311     8500000202303UTEM000001ASLINDA BINTI SUANDI                      
C76041308536700314     2101000202303UTEM000001SARMAN BIN BASRI                          
C70011702542900316     8500000202303UTEM000001MOHD BASRI BIN ALI                        
C67121504518300318     1499000202303UTEM000001MOHD RIZAL BIN SALLEH                     
C73123104500300319     1850700202303UTEM000001RUZTAMREEN BIN JENAL                      
C76070401755900320     1294750202303UTEM000001MOHD NAZIM BIN ABDUL RAHMAN               
C68050610505600321     3287600202303UTEM000001NOORNAHAR BINTI AKASHAH                   
C74092611546300322     7456200202303UTEM000001MASJURI BIN MUSA @ OTHMAN                 
C79031905508900324     1372800202303UTEM000001AUZANI BIN JIDIN                          
C80080901561700327     1040800202303UTEM000001AHMAD ZAKI BIN SHUKOR                     
C80043008523100331     1509000202303UTEM000001FARIZ BIN ALI @ IBRAHIM                   
C80122410567000332     3200000202303UTEM000001NORHASHIMAH BINTI MOHD SAAD               
C72122304518600333     2180000202303UTEM000001SURYANI BINTI MOHD                        
C78111103565800334     2800000202303UTEM000001AIDA FAZLIANA BINTI ABDUL KADIR           
C71071101592700335     1827340202303UTEM000001ZOLKARNAIN BIN MARJOM                     
C73022504521300336     8720000202303UTEM000001SHEKH FAISAL BIN ABDUL LATIP              
C76022401622300337     1209000202303UTEM000001MD HAIRUL NIZAM BIN TALIB                 
C72121401581500341     2995950202303UTEM000001ZULKIFLI BIN SHARIFF                      
C79100701513800343     3560900202303UTEM000001ANI BINTI JAFFRI                          
C68032905513000344     4029740202303UTEM000001ZANARIAH BINTI JANO                       
C79120902552900345     8500000202303UTEM000001ABDUL RAHIM BIN ABDULLAH                  
C79061201596700346     4330000202303UTEM000001FAZLLI BIN PATKAR                         
C74102504543100350     1137000202303UTEM000001MOHD RANI BIN JANTAN                      
C80052901628700351     2082000202303UTEM000001NOORHASYUDDIN BIN MOHD BASRI              
C81101804520700352     4838200202303UTEM000001FAZROL BIN OTHMAN                         
C80052604513800353     5957000202303UTEM000001NOOR HAFIZA BINTI OTHMAN                  
C80100804518300354     5790000202303UTEM000001SYARIDAN BIN SHAARANI @ TAN               
C83120604532500359     1030230202303UTEM000001KHARMIZI BIN KHAMIS                       
C78101703552000361     8330000202303UTEM000001SUHADAWATI BINTI AHMAD                    
C78021105501000363     9640000202303UTEM000001SHARIFAH AZIMAH BINTI SYED AZIZ           
C80051208642200364     8500000202303UTEM000001HAZURA BINTI HAROON                       
C72090404502100365     1677000202303UTEM000001ZAMBERI BIN JAMALUDIN                     
C74072804530200366     5639320202303UTEM000001ANIDAH BINTI ROBANI                       
C80032204514400370     4410000202303UTEM000001NORERNI BINTI A. RAHMAN                   
C69022104540700373     4236800202303UTEM000001SUHAIMI BIN BASRAH                        
C77020404547200374     1440000202303UTEM000001ROZINAH BINTI YAKOP                       
C82110804550900376     1170000202303UTEM000001ABDUL RAHMAN BIN KAMIS                    
C75021501577200377     1530000202303UTEM000001NOR HAZLEN NIZA BINTI HUSSEIN             
C80102004502000378     2012360202303UTEM000001NOR HAFIZAH BINTI HAMYADI                 
C70041505525500380     3642670202303UTEM000001RADZUAN BIN NORDIN                        
C76041005526900382     4970000202303UTEM000001MOHD HAIZAL BIN MOHD HUSIN                
C75081605557700383     4138510202303UTEM000001ALI HAFIZAR BIN MOHAMMAD RAWI             
C77091704552800386     2465000202303UTEM000001ERNIE BINTI MAT TOKIT                     
C65041905569800387     1800000202303UTEM000001SURAYA BINTI AHMAD                        
C82032604526200388     1780000202303UTEM000001ZAINARIA BINTI SURIP                      
C67052405521700398     3820000202303UTEM000001SAHAR BIN SALEHAN                         
C82091501601300399     8740000202303UTEM000001ZULKIFLI BIN MASKURI                      
C74061504500700405     3270000202303UTEM000001NURHAFIDZ BIN ABDUL SAHAK                 
C72062003532300407     7103300202303UTEM000001ABD RAHMAN BIN DULLAH                     
C77070304578400414     1573000202303UTEM000001TEH ZANARIAH BINTI MOHD RAUS              
C79080901616200418     5980000202303UTEM000001NORASHIKIN BINTI AHMAD SABRAN             
C77120601612700420     1629000202303UTEM000001SUHAIMI BIN MISHA                         
C75090105504500432     8947000202303UTEM000001ABDUL JALIL BIN MOHAMED                   
C81030304509200435     3736200202303UTEM000001ZUHANA BINTI JOHARI                       
C81081604514300436     9744400202303UTEM000001MOHD RUSDI BIN ISOHOD                     
C71120904543900437     1840670202303UTEM000001KAMARUDDIN BIN AMAN                       
C64021804553100441     1518000202303UTEM000001AZAHAR BIN SIDEK                          
C77121107607900443     1609900202303UTEM000001MUAAT BIN MUJI                            
C78051104520100444     4967500202303UTEM000001MOHAMMAD FAIZAL BIN SAHAR                 
C80103006519900446     1408450202303UTEM000001MOHD SAHARUDIN BIN ABDUL RAHMAN           
C77021104504000448     3498000202303UTEM000001MARLIZA BINTI RAMLY                       
C70112004509700450     8390000202303UTEM000001PUVANASVARAN A/L A. PERUMAL               
C64081010807900454     1749800202303UTEM000001MOHD ARIFF BIN MAT HANAFIAH               
C76042901699900455     6072500202303UTEM000001ASSHARI BIN ABBAS                         
C77061104542900456     3635900202303UTEM000001ASRI BIN DIN                              
C64022104565500457     6590000202303UTEM000001ABDUL MAJID BIN ISNIN                     
C80060805503000462     1257980202303UTEM000001NOR MAS AINA BINTI MD. BOHARI             
C68072301507300463     1160000202303UTEM000001SHAHRIN BIN SAHIB @ SAHIBUDDIN            
C80012604503200465     1447000202303UTEM000001INTAN ERMAHANI BINTI A. JALIL             
C78092301596500466     1305000202303UTEM000001MOHAMMAD RADZI BIN MOTSIDI                
C74053101512600467     1490000202303UTEM000001FAUZIAH BINTI KASMIN                      
C75100504538800471     1030000202303UTEM000001SALEHA BINTI MOHAMAD SALEH                
C77111611542000472     2220000202303UTEM000001SITI AZIRAH BINTI ASMAI                   
C80110704550900473     2170000202303UTEM000001JALALUDIN BIN MOHD DIAH                   
C74042171511300474     1231600202303UTEM000001ALBERT FEISAL @ MUHD FEISAL BIN ISMAIL    
C74090214600300483     1737000202303UTEM000001ABDUL RAHMAN ROSLI BIN MAHMOOD            
C73052612522500486     2817440202303UTEM000001MASLAN BIN ZAINON                         
C78052901626500487     1797580202303UTEM000001MOHD HAFIZ BIN ZAKARIA                    
C75052604533800488     6580000202303UTEM000001ERNAWATIE BINTI MD SAH                    
C77110102580100489     3129720202303UTEM000001MUHAMAD SOPIAN BIN BAHAROM                
C76052904531600490     4118940202303UTEM000001RAFIDAH BINTI MD. DUSA                    
C78123114647500491     3880900202303UTEM000001AHMAD AIZAN BIN ZULKEFLE                  
C75072204529800494     1295200202303UTEM000001MURNI BINTI ABU                           
C78111204530500496     6050600202303UTEM000001RAZALI BIN KASIM                          
C73040604520400498     2974980202303UTEM000001SITI NORANI BINTI DOLAH                   
C67112004528700499     1850000202303UTEM000001MASDZARIF BIN MAHAT                       
C79110804508800503     7650000202303UTEM000001AZIMATON BINTI AHMAD                      
C80050204512500505     1088500202303UTEM000001AHMAD AFFENDAY BIN MOHAMED SANI           
C77100104547700506     1009000202303UTEM000001NAZARUDDIN BIN MD YUNUS                   
C78091611541500507     5600000202303UTEM000001ROSZAIDI BIN RAMLAN                       
C80101601518700508     1160000202303UTEM000001ABD MAJID BIN DARSONO                     
C78052204538900509     1414000202303UTEM000001MOHD FAIZAM BIN HJ AHMAD                  
C80061304523200510     7080000202303UTEM000001NORASIKIN BINTI MD ISA                    
C77122404550300511     8200000202303UTEM000001MOHD NAZRI BIN MUSLIM                     
C79022104525300512     1548000202303UTEM000001MOHD YAZID BIN ABU                        
C78111302526900514     7810000202303UTEM000001MOHD RADZIF BIN ABD HAMID                 
C83040401568300516     6370000202303UTEM000001SHAIFULIZAM BIN ISHAK                     
C81013104505200517     2028000202303UTEM000001NORHAFIZAH BINTI ISHAK                    
C81071504519500518     1606000202303UTEM000001MUHAMMAD SYAHRIZAN BIN JOHAL              
C80090104504200519     8500000202303UTEM000001ZURAIDA BINTI ABDUL HADI                  
C80080304535600521     6953400202303UTEM000001NORZALINA BINTI ANUAR                     
C82042704508500522     1724310202303UTEM000001ASNAN BIN ABAS                            
C83121004516800523     3970000202303UTEM000001MONIRAH BINTI MIHAT                       
C81102804500800524     7335000202303UTEM000001HAJAR SURIATI BINTI OTHMAN                
C80102804506800525     1894260202303UTEM000001NORFAEZAH BINTI MOHD TARMIZI              
C81100604524200526     1500000202303UTEM000001IRASTIKA MURNI BINTI SELAMAT              
C82071404546700528     1674820202303UTEM000001MOHD KHAIRUL AKMAL BIN MOHD NOOR          
C77123003573100530     1377000202303UTEM000001MAHADIR BIN CHE ALI                       
C81080301587700531     7000000202303UTEM000001MUHAMMAD HELMY BIN ELIAS                  
C81042505520500532     1014470202303UTEM000001MOHD FAHRULRAZI BIN SAJI                  
C82012701526300533     1180000202303UTEM000001AHAMAD FUAD BIN JAAPAR                    
C81100301579300534     6105000202303UTEM000001HAIRMI BIN OTHMAN                         
C81051605549700535     1861000202303UTEM000001IZWAN BIN HAMDAN                          
C75032708600600536     1411000202303UTEM000001FAUZIAH BINTI HASSAN                      
C80010404515400537     6610000202303UTEM000001ZURAIDAH BINTI ABDULLAH                   
C76071904547200538     2657210202303UTEM000001RUSNI BINTI HASAN                         
C81092014553100540     5550000202303UTEM000001MOHD RIZAL BIN ROOSLI                     
C75010301696500541     1245000202303UTEM000001MD FAUZA BIN NAHRAWI                      
C81123104503800547     1745000202303UTEM000001NIK NUR HAZLINDA BINTI NIK MOHD YUSOFF    
C78071304535700548     3423600202303UTEM000001JOHARDI BIN ABDUL JABAR                   
C74090101566900549     2111000202303UTEM000001ABDUL HALIM BIN MOHAMAD NOH               
C80122006502600552     2565000202303UTEM000001RAINAH BINTI ISMAIL                       
C73062004504500556     2186000202303UTEM000001SHAHRUL BIN ABDUL RAHIM                   
C78060704519300557     1588000202303UTEM000001MOHD SAZRIN BIN SAHAD                     
C77030404574400559     1021980202303UTEM000001SRI KARTINI RAHAYU BINTI NORDIN           
C75060904513000561     1437000202303UTEM000001HANITA BINTI TALIB                        
C74090204542100562     7580000202303UTEM000001ASMADI BIN MD DAUD                        
C75010604565700564     3476400202303UTEM000001AZHAR BIN MOHAMED                         
C70011404503700565     6490000202303UTEM000001ABD AZIZ BIN MUSTAPA                      
C67020602501200573     1118000202303UTEM000001MARSITAH BINTI ABU BAKAR                  
C80032104515000576     1869000202303UTEM000001KAMISAH BINTI JALIL                       
C67123106508800577     1523680202303UTEM000001ZURAIDA BINTI MOHAMED TAIB                
C72121901552300578     2061000202303UTEM000001KHALID BIN PANDI @ SELAMAT                
C82052104548700579     1749000202303UTEM000001AZHAR SHAH BIN ABU HASSAN                 
C72081504533700580     2773150202303UTEM000001MAHADI BIN SALLEH                         
C72071504500600588     2358580202303UTEM000001ZAINAB BINTI AMIR                         
C81111704560800590     1295200202303UTEM000001NURHAYATI BINTI MOHD SHARIFF              
C80042301517100591     7999800202303UTEM000001FAIZAL AZMIR BIN ABDUL AZIZ               
C72020404517800592     2783990202303UTEM000001HAZLEEN BINTI HJ. KAHARUDIN               
C73080904548700594     2074440202303UTEM000001SUBKI BIN MAT KAHAR                       
C79100608618800595     1200000202303UTEM000001SUHANA BINTI ARIFFIN                      
C78050104505600596     3168060202303UTEM000001NORAZLIYATI BINTI MOHD ISA                
C77080804529700597     1771000202303UTEM000001HAMIDDY BIN OTHMAN                        
C80101404519800599     6840000202303UTEM000001AL ROHAIYA BINTI ADANAN                   
C78070804548300604     4316200202303UTEM000001SAHARUDIN BIN PUTEH                       
C76061611517500605     1479530202303UTEM000001AZMI BIN ZAKARIA                          
C72011104568900609     1585000202303UTEM000001RIDZUAN BIN AHMAD                         
C78100204542700612     1785150202303UTEM000001MOHD SYAKRANI BIN AKHBAR                  
C69022610577100614     1691260202303UTEM000001ABDUL HALIM BIN DAHALAN                   
C78061708658900615     2044000202303UTEM000001MASRULLIZAM BIN MAT IBRAHIM               
C68092608570900617     1720000202303UTEM000001SIVARAO A/L SUBRAMONIAN                   
C69070501551100621     3790080202303UTEM000001HAMBALI BIN BOEJANG                       
C81070404504200623     7707200202303UTEM000001ROHANA BINTI HASHIM                       
C84092004551100624     1509000202303UTEM000001NIK SYUKRAN MUIZ BIN RASHID               
C74120504537500625     1600000202303UTEM000001MOHD HANAPIAH BIN MD LIP                  
C82042308544200627     1445800202303UTEM000001NORFAZLIN BINTI TAMBI CHEK                
C81041701564100632     8940000202303UTEM000001SAHRIL BIN BAHAR                          
C75070801650300633     1264000202303UTEM000001ABD SAMAD BIN HASAN BASARI                
C79120104531400635     2084000202303UTEM000001HANIM BINTI ABDUL RAZAK                   
C76102613537300636     1573000202303UTEM000001KOK SWEE LEONG                            
C81040704512600639     1738900202303UTEM000001NURAISAH BINTI ABDUL WAHAB                
C75070403631200640     3470000202303UTEM000001NORASWALIZA BINTI ABDULLAH                
C74052306552900642     2295200202303UTEM000001NOR AZMMI BIN MASRIPAN                    
C78082006512600643     1436650202303UTEM000001ROSMIZA WAHIDA BINTI ABDULLAH             
C80102101506900645     1850000202303UTEM000001MOHD AZLISHAH BIN OTHMAN                  
C65080901531700650     1446010202303UTEM000001MISDOM BIN LAN                            
C81032004507800651     8846200202303UTEM000001NOR AZLINAWATI BINTI DAUD                 
C81011104519400652     1621000202303UTEM000001KAMARIAH BINTI KAMIS                      
C76042004504800653     1820000202303UTEM000001NOR ATEKAH BINTI OMAR @ MAHMUD            
C80070204541000654     1462800202303UTEM000001NORZIYANA BINTI HANIPAH                   
C79082604509600655     1221000202303UTEM000001SURIATI BINTI AKMAL                       
C78101714619100656     1660000202303UTEM000001AHMAD NAIM BIN CHE PEE @ CHE HANAPI       
C78110614626500658     1055900202303UTEM000001MOHD HENDRA BIN HAIRI                     
C76062704510900659     5853000202303UTEM000001AZLY HISHAM BIN HARON                     
C75092371510400660     5729000202303UTEM000001ANITA AKMAR BINTI KAMAROLZAMAN            
C71031608575700661     2333800202303UTEM000001FARID ARAFAT BIN AZIDIN                   
C71032404547200662     1157160202303UTEM000001SITI MASHANI BINTI A MAJID                
C81051304508200664     8500000202303UTEM000001NUR AINI HAYATI BINTI HUSIN               
C81071604514600666     1058000202303UTEM000001SITI KHATIJAH BINTI AYOB @ MOHAMMAD       
C79120210517100667     1505000202303UTEM000001NOR AKRAMIN BIN MOHAMAD                   
C77111904595800668     1480000202303UTEM000001JUNAIDAH BINTI KASIM                      
C83051014585200670     6530000202303UTEM000001AZURA BINTI ABIDIN                        
C83060904520200671     1412000202303UTEM000001SITI HAJAR BINTI YAAKOP                   
C78111305564400672     6440000202303UTEM000001RUMAIYAH BINTI SAAD                       
C67031304546500673     4245400202303UTEM000001FAISAL BIN MOHD ISA                       
C73122304512600678     2129000202303UTEM000001SITI SUHAILAH BINTI ZAINI                 
C70062501558500682     1651000202303UTEM000001YAHAYA BIN ABD RAHIM                      
C71121501569000684     6310000202303UTEM000001NORHIDA BINTI MD. SAID                    
C78072301535400685     1099100202303UTEM000001NOORAZIANA BINTI DAHALAN                  
C78070101511800686     1447740202303UTEM000001JORAFIZA BINTI JUKI                       
C78051104512100690     3680000202303UTEM000001AZMAN BIN AZAHARI                         
C74010506599900692     8570000202303UTEM000001KAMARUL ARIFFIN BIN ZAKARIA               
C74122701504600693     7970000202303UTEM000001HANISSAH BINTI MOHAMAD @ SULAIMAN         
C63041310767100695     4800000202303UTEM000001MOHD SHAHAR BIN AKASHAH                   
C69072604536500700     1426000202303UTEM000001MOHD NAJIN BIN JANTAN                     
C69080904503700709     5780000202303UTEM000001SHAHRANI BIN HJ SAKARI                    
C66020601526100717     1804060202303UTEM000001MOHD KHANAPI BIN ABD GHANI                
C79010804517100722     2200210202303UTEM000001MUHAMMAD NIZAM BIN MANSOR                 
C72100905537500725     1333000202303UTEM000001MUHAMMAD SHAHRIN PRITAM BIN ABDULLAH      
C77062404574300729     2040080202303UTEM000001AHMAD FAIZAL BIN ABDUL RAHMAN             
C75012903560300732     1346940202303UTEM000001MOHD NAWAWI BIN MUHAMAD                   
C80022704530600733     1017000202303UTEM000001SITI AISYA BINTI DAUD                     
C80031404522400738     2844650202303UTEM000001MASWATEE BINTI ABDUL GAFFAR               
C81101104525500739     1736000202303UTEM000001JUSNI BIN JOHAN                           
C72071704532500743     1156000202303UTEM000001ROSLI BIN SAID                            
C76022401738100744     2317000202303UTEM000001NOR SALIM BIN MUHAMMAD                    
C81071404541700745     1856000202303UTEM000001MUHAMAD JAMAL BIN RAMLI                   
C80111104501800747     3500000202303UTEM000001SITI SABRINAH BINTI BUANG                 
C76090701764700750     1251800202303UTEM000001SULAIMAN BIN SABIKAN                      
C78060714513500755     5460000202303UTEM000001NOOR AZMAN BIN KAMIS                      
C78060404535800757     5220000202303UTEM000001NOR-ALIZA BINTI IBRAHIM                   
C81031114574700758     7950000202303UTEM000001HIDAYAT BIN ZAINUDDIN                     
C64070704532100759     1274200202303UTEM000001MAT AYUB BIN HJ. KATON                    
C80102601527900760     1029000202303UTEM000001HAIRONI BIN FADZILAH                      
C80012704540500762     1264000202303UTEM000001MUHAMMAD HERMAN BIN JAMALUDDIN            
C79092701622700764     1838000202303UTEM000001MOHD AZMAN BIN ABDULLAH                   
C72032401618700766     3741340202303UTEM000001ZULISMAN BIN MAKSOM                       
C70102601509400767     2123000202303UTEM000001SERI RAHAYU BINTI KAMAT                   
C76061403524300768     1463400202303UTEM000001MOHD RIZAL BIN ALKAHARI                   
C73112310578500769     1597000202303UTEM000001MOHD JUZAILA BIN ABD. LATIF               
C78120101557000770     8500000202303UTEM000001SYARIFFANOR BINTI HISHAM                  
C76072205500600771     2401000202303UTEM000001NURUL AZMA BINTI ZAKARIA                  
C70070305508100772     2199170202303UTEM000001SHAHRUDIN BIN ZAKARIA                     
C77090911553000775     4600000202303UTEM000001ROHAYATI BINTI ABDULLAH                   
C73101714540900780     1850000202303UTEM000001AMRAN BIN AB. SANI                        
C72050708593500781     3934000202303UTEM000001FAIRUL AZNI BIN JAFAR                     
C78022501727700786     6420000202303UTEM000001MOHD ZAKARIA BIN MOHAMMAD NASIR           
C76100808504200791     1779000202303UTEM000001ELFA LAILY BINTI MOHD TAHIR@MOHD RAMLI    
C78071510572000793     1600000202303UTEM000001NUR AIDAWATY BINTI RAFAN                  
C64052503506900795     2160000202303UTEM000001ZAMRE BIN ABD GHANI                       
C67111804509300797     3480380202303UTEM000001AMIR BIN ALI                              
C82060804508400800     1663720202303UTEM000001NORHASRINDA BINTI NAZRI                   
C82031204538400801     5537800202303UTEM000001MARDHIANA BINTI MOHAMAD                   
C77090411537100802     2053000202303UTEM000001MAZRAN BIN ESRO                           
C80111504525000803     8420000202303UTEM000001MASURIYA HANI BINTI AB. WAHID             
C73021604520300804     3248000202303UTEM000001AHMAD RIDZWAN BIN MOHD NOOR               
C82090808573100805     2111430202303UTEM000001AZRIN BIN AHMAD DEMURI                    
C77011103582200807     3313580202303UTEM000001NORAINI BINTI HUSIN                       
C82092004541700809     7325200202303UTEM000001AHMAD RHAFAEE BIN SAMSUDIN                
C74092814533200810     4527330202303UTEM000001NIK RAHILA BINTI WAN IBRAHIM              
C72080410599800811     4517110202303UTEM000001NORUN NAJJAH BINTI AHMAT                  
C75071910579800812     3708720202303UTEM000001NOR AZILAH BINTI AHMAD                    
C75091204525600814     5260000202303UTEM000001RATNASAERAH BINTI AZIS                    
C80041202538200815     1348260202303UTEM000001NORHAYATI BINTI AHMAD                     
C79050104555700816     4430000202303UTEM000001SHAMSUL BIN ABU SAMAH                     
C82102804501500817     5570000202303UTEM000001MOHAMMAD SHAHRIL BIN SALIM                
C80050704505200818     1010220202303UTEM000001NORAFIZAH BINTI MD NOR                    
C82092314571200821     7000000202303UTEM000001NOORLIZAWATI BINTI KAMIS                  
C68031004513500822     1681800202303UTEM000001MOHD AMRAN BIN MD ALI                     
C81032004540600823     2316700202303UTEM000001NORAZLINDA BINTI IBRAHIM                  
C79041601652400824     1389880202303UTEM000001NORLEEN BINTI AZAM                        
C82102704539800825     3830000202303UTEM000001ARYANTI BINTI ISMAIL                      
C85090408651500826     5527000202303UTEM000001MOHD SYAHRIZAL BIN MOHD RAZALI            
C82020204517200827     4420000202303UTEM000001NOORZAILINAH BINTI ZAINOL                 
C77053004588100828     1783620202303UTEM000001ROSLAN BIN SIRON                          
C75031904531900829     1143220202303UTEM000001MOHD RIZAL BIN SUBOH                      
C78021904551100831     8718400202303UTEM000001MOHD AKHTAR BIN AB. KARIM                 
C66111804528900833     2052000202303UTEM000001ZULKIFLI BIN ABIDIN                       
C82080304531100836     1667000202303UTEM000001ABU ZAR BIN YASHIM                        
C80041404526400838     5754400202303UTEM000001ADAWIYAH BINTI MD JANI                    
C78121404501500840     8153600202303UTEM000001AMIR HAFIZUDDIN BIN A. BAKAR              
C80111404524000841     1719000202303UTEM000001RUZIAH BINTI ALI                          
C81081604520700842     2110200202303UTEM000001NORDIN BIN AMAN                           
C73011011530600844     4870000202303UTEM000001MERIAM BINTI A. RAHMAN                    
C80111504526900846     1040000202303UTEM000001AZMER BIN CHE MOHD SALLEH                 
C78051504530500848     8500000202303UTEM000001MOHAMAD FUAD BIN JA'AFAR                  
C82011604528000849     8500000202303UTEM000001SULAINA BINTI KAMARDIN @KAMARUDIN         
C82012904523900850     1083000202303UTEM000001MOHD REDUAN BIN AHMAD @ SAMAD             
C83031005545700852     1565000202303UTEM000001ABDUL HALIM BIN ABDUL MOKTE               
C78121904508100853     1294000202303UTEM000001MUHAMMAD FAZLIE BIN RAMLI                 
C81123004525500854     2750000202303UTEM000001ED. SOFFUAN BIN YUSOF                     
C72121701603900856     1763000202303UTEM000001ROSLE BIN MISKON                          
C83060205513300857     1624200202303UTEM000001MOHD ARIF BIN MOHD NOR                    
C66100771541100858     1997490202303UTEM000001MOHAMAD YUSOF BIN MOHAMAD DAN             
C83091408572900859     3410000202303UTEM000001MOHD RIDZUAN BIN ROZALI                   
C80060204504200860     9935200202303UTEM000001MAWARNI BINTI MANAN                       
C80102801570700861     1249000202303UTEM000001MOHD FAIRUS BIN NINGGAL                   
C84090704517000862     7420800202303UTEM000001NOORAIDILLAH BINTI RASDI                  
C81022404525400863     2280220202303UTEM000001HANISAH BINTI HAMDZAH                     
C82102104530300864     1346160202303UTEM000001MOHD MOHIDDEN BIN MANSOR                  
C78050601607800865     1182850202303UTEM000001MARSHAZLIYANA BINTI MD SHARIP             
C76070204525700867     8890000202303UTEM000001MOHD KHAIRI BIN ABDUL KARIM               
C71071905526100868     7830000202303UTEM000001SHAHRUL IZWAN BIN ADNAN                   
C77101904556300870     1260290202303UTEM000001ADIE BIN MOHD KHAFE                       
C79110304527300872     7350000202303UTEM000001IKHMAL HISHAM BIN IBRAHIM @ IBARAHIM      
C67012704543700873     1153060202303UTEM000001JAMALUDDIN BIN ABD AZIZ                   
C83082101640900874     1454000202303UTEM000001KHAIRULDDIN BIN HASHIM                    
C77041501500300876     1271000202303UTEM000001JUNAIDI BIN SALAM                         
C71030204536700879     1761000202303UTEM000001RAZAMAN BIN KASSIM                        
C79012104532800880     9931000202303UTEM000001NORALIZA BINTI YUSOF                      
C82062701558500881     1351080202303UTEM000001MAZLAN BIN TUMIN                          
C79090101552500882     8097000202303UTEM000001MOHD HAIRI BIN MD RAHIM                   
C82011208616500883     1420000202303UTEM000001MOHD SYAKIR BIN MOHTARUDIN                
C83051404518900884     8348700202303UTEM000001MOHD IKBAR BIN ABDUL JABBAR               
C83022505505700885     8740000202303UTEM000001NIZAMUL IKBAL BIN KHAERUDDIN              
C80051806508300886     3180000202303UTEM000001AHMAD KAMAL BIN MAT YAMIN                 
C76020510500100887     1679000202303UTEM000001MUHAMAD KHAIRI BIN ARIPIN                 
C70102004557500888     1751000202303UTEM000001HADZMIR BIN HASAN                         
C83040610543900889     1245190202303UTEM000001HAIRULHISHAM BIN ROSNAN                   
C68101871504400891     2382900202303UTEM000001MAZURA BINTI MUSTAFA                      
C82110904530800894     1821980202303UTEM000001NORALISA BINTI RAMLEE                     
C79032404518400896     2219000202303UTEM000001SHARIFAH SAKINAH BINTI SYED AHMAD         
C78120604535700900     2058000202303UTEM000001SUHAIMEI BIN HASHIM                       
C65031404513500901     1100200202303UTEM000001MOKHTAR BIN MURTUZA                       
C71081704523500903     4320000202303UTEM000001MOHD NOR AZMAN BIN MUSTAPA                
C79022004507500904     2663950202303UTEM000001MOHD RIDZUAN BIN JAMALUDIN                
C79061504512500905     9962000202303UTEM000001MOHD HAFFEZ BIN KHALIK                    
C83101504511100906     5213000202303UTEM000001MOHD SALLEHIN BIN OTHMAN                  
C70091904530900908     1432040202303UTEM000001ABDUL MALEK BIN ZAINAL                    
C82093004501500912     5460000202303UTEM000001WAN IMRUL NAZIMI BIN NORDIN               
C80063001505100913     4970000202303UTEM000001MOHD FAIRUZ BIN TAIB                      
C78091301579300914     1810000202303UTEM000001MOHAMMAD HADZRI BIN AHMAD                 
C79112504507100916     1364000202303UTEM000001MOHD SAFUAN BIN BIDIN                     
C78121604518200918     6910000202303UTEM000001SITI FAIRUS BINTI ABU BAKAR               
C81071004543600919     1095000202303UTEM000001ANNE A/P SINAPAN                          
C72072604514000922     2182170202303UTEM000001NORMALA BINTI ABDUL MUTALEF               
C64010704561900925     1400000202303UTEM000001BAHRIN BIN MOHD DOM                       
C71072601554000926     1031000202303UTEM000001ROZANA BINTI ABU BAKAR                    
C74031201659100929     1209800202303UTEM000001ROHAILI BIN RAMLI                         
C79112803505500933     1056000202303UTEM000001FAIZUL AKMAR BIN ABDUL KADIR              
C79032204537500934     3180000202303UTEM000001ALIAS BIN KHAMIS                          
C77100214560500935     5880000202303UTEM000001AHMAD SADHIQIN BIN MOHD ISIRA             
C83033104528200937     3150000202303UTEM000001MAZIAH BINTI ABD. MANAS                   
C78090601542900939     6550000202303UTEM000001MAD NASIR BIN NGADIMAN                    
C72120108615500941     1878400202303UTEM000001AHMAD ZUBIR BIN JAMIL                     
C71011203550400943     2288000202303UTEM000001NOR AZAH BINTI ABDUL AZIZ                 
C81081404515800944     1050000202303UTEM000001MASSILA BINTI KAMALRUDIN                  
C80020514562100945     9390000202303UTEM000001HILMI BIN AMIRUDDIN                       
C70050509500700946     1412280202303UTEM000001AZIZI BIN OSMAN                           
C80091801512200948     3383800202303UTEM000001SITI HAJAR BINTI SHEIKH MD FADZULLAH      
C80121904550300949     5300000202303UTEM000001MOHD SHAHRIEEL BIN MOHD ARAS              
C78031704521600951     1000000202303UTEM000001SYAMIMAH BINTI MOHAMAD HATA               
C79012304504900954     7050000202303UTEM000001HISAMUDIN BIN KAMARUDIN                   
C79102110577000955     4982000202303UTEM000001RUZY HARYATI BINTI HAMBALI                
C79011104520100956     1700000202303UTEM000001MOHD AMRI BIN SULAIMAN                    
C78120904506100957     1324000202303UTEM000001MOHD ROZAIHAN BIN YUNOS                   
C78021904500100958     3530000202303UTEM000001MAHADER BIN MUHAMAD                       
C72072801600100959     6990000202303UTEM000001AZHAN BIN ABDUL RAUB                      
C67080401500900960     1104400202303UTEM000001MD NIZAM BIN ABD RAHMAN                   
C80122011505400962     1054000202303UTEM000001NORASRA BINTI A.RAHMAN                    
C74071811512700963     1134400202303UTEM000001JASMADI BIN ISMAIL                        
C65090804535100965     1687250202303UTEM000001HANG JEBAT BIN ABDUL RAHMAN               
C76082107562700967     1780000202303UTEM000001KAMARUDDIN BIN ABU BAKAR                  
C75111907513900969     2293000202303UTEM000001ISMAIL BIN IBRAHIM                        
C76062701754600971     4016700202303UTEM000001HASLINDA BINTI MUSA                       
C74061510597000973     3998800202303UTEM000001SITI ROHANA BINTI OMAR                    
C73011708582400976     1136200202303UTEM000001NOORAINI BINTI SULAIMAN                   
C70062271509200979     8500000202303UTEM000001HALIZAH BINTI BASIRON                     
C71102001612400980     2735000202303UTEM000001MARIATI BINTI YEM                         
C73031201541800983     1231600202303UTEM000001ROSIDAH BINTI AWANG                       
C68102571532500988     1977200202303UTEM000001ZAKARIYAH BIN ZAINAL                      
C81100414587200993     1180000202303UTEM000001NURIDAWATI BINTI MUSTAFA                  
C74091211503200996     9400000202303UTEM000001NORAZLINA BINTI ABD RAZAK                 
C81052804511400998     1038200202303UTEM000001SHARATUL IZAH BINTI SAMSUDIN              
C64101802570900999     1749800202303UTEM000001ABDUL RANI BIN OTHMAN                     
C80031201561101003     8950000202303UTEM000001KAMALRULZAMAN BIN TUBAH                   
C66040604529701006     1497000202303UTEM000001TAY CHOO CHUAN                            
C67090704500801007     2285000202303UTEM000001JUMAKYAH BINTI YACOOB                     
C77030104520401008     1156200202303UTEM000001SITI NURHAIDA BINTI KHALIL                
C81060202507501010     2959000202303UTEM000001MOHD FIRDAUS BIN GHAZALI                  
C81033102526701013     7000000202303UTEM000001MOHD SHAKIR BIN MD SAAT                   
C79012501506201014     1088500202303UTEM000001RAFIDAH BINTI HASAN                       
C78031704536301020     1164760202303UTEM000001NAZRI BIN MD DAUD                         
C71102508610501023     1386000202303UTEM000001MOHD NIZAM BIN SUDIN                      
C72050108685701024     2284000202303UTEM000001MOHD RUZI BIN HARUN                       
C78121701545201026     4263760202303UTEM000001RAIHANA BINTI MD KASIM                    
C63112403514301028     4318720202303UTEM000001MOHD AHADLIN BIN MOHD DAUD                
C70030907538301029     4501800202303UTEM000001BURHANUDDIN BIN MOHD ABOOBAIDER           
C78010504543301031     1895000202303UTEM000001ROSLAN BIN SA'AT                          
C74072804500301039     1298060202303UTEM000001SOFFIAN BIN HASHIM                        
C81092106503101042     4472000202303UTEM000001JEEFFERIE BIN ABD RAZAK                   
C81021813505001043     2336000202303UTEM000001ZURAINI BINTI OTHMAN                      
C83100904510701047     1113500202303UTEM000001MOHD KHAIRUL JANI BIN JAMILEE             
C73060405516301050     1843800202303UTEM000001ZULKARNAIN BIN SHARIF                     
C78092004533301051     8500000202303UTEM000001MUHAMMAD SUHAIZAN BIN SULONG              
C76101204552901055     7087200202303UTEM000001MUHAMMAD AJLAN BIN ABU CHIK               
C66021804551301059     1780490202303UTEM000001RAZALI BIN ISMAIL                         
C64091608503901062     1998000202303UTEM000001AHMAD FAIRUZ BIN MUHAMMAD AMIN            
C79110914533901070     1507000202303UTEM000001MOHD FARRIZ BIN HJ MD BASAR               
C80073011553501073     2758000202303UTEM000001WAN HASRULNIZZAM BIN WAN MAHMOOD          
C73021204524901075     1031620202303UTEM000001MOHD IRMAN BIN RAMLI                      
C72090604518001077     1984960202303UTEM000001NOR ANIDAH BINTI AB KARIM                 
C69111308618501078     1764340202303UTEM000001SHAMSUL BAHARI BIN AZRAAI                 
C81113003514801079     2560000202303UTEM000001NORAIHAM BINTI MOHAMAD                    
C78100401601301080     5503400202303UTEM000001MOHD HATTA BIN JOPRI                      
C79070910555501082     1565000202303UTEM000001MOHD HADZLEY BIN ABU BAKAR                
C79012006551101084     3200000202303UTEM000001AMINURRASHID BIN NOORDIN                  
C81073105509401086     6660000202303UTEM000001MARIAM BINTI MD GHAZALY                   
C81113012509801087     8478000202303UTEM000001JUHAINI BINTI JABAR                       
C80070204501501088     5383600202303UTEM000001ABD SHUKUR BIN JA'AFAR                    
C81111002540101090     2916780202303UTEM000001HAZLI RAFIS BIN ABDUL RAHIM               
C81073008624301091     3408000202303UTEM000001KHAIRUDDIN BIN OSMAN                      
C76110903509501093     1380750202303UTEM000001SAIFULZA BIN ALWI @ SUHAIMI               
C83071201514001098     3820000202303UTEM000001JUNAINAH BINTI SARDI                      
C81101603584901099     6886700202303UTEM000001AZAHARI BIN SALLEH                        
C75092801570501101     2864000202303UTEM000001MOHD RAZALI BIN MOHAMAD SAPIEE            
C73032313548201103     8754500202303UTEM000001MARIAM MIRI BINTI ABDULLAH                
C79102514533101110     1104400202303UTEM000001MOHD ZAID BIN AKOP                        
C82032401595901112     2372000202303UTEM000001MOHAMAD FIRDAUS BIN SUKRI                 
C78083004531301113     1048800202303UTEM000001FAIZIL BIN WASBARI                        
C74043001513501114     2130440202303UTEM000001NURFAIZEY BIN ABDUL HAMID                 
C80051608550701115     9136000202303UTEM000001SHAFIZAL BIN MAT                          
C74101104511501116     9580000202303UTEM000001SABRI BIN MOHAMAD SHARIF                  
C81122606515701117     2383260202303UTEM000001MOHAMAD HAIDIR BIN MASLAN                 
C81101004514901118     1295200202303UTEM000001MOHAMAD RIDZUAN BIN JAMLI                 
C81051104507001119     1176000202303UTEM000001JUWITA BINTI MOHD SULTAN                  
C76062302603101120     1369300202303UTEM000001IMRAN BIN MOHD IBRAHIM                    
C79072402539301121     8886900202303UTEM000001MOHAMAD ZOINOL ABIDIN BIN ABD. AZIZ       
C81051608538901122     1839900202303UTEM000001MUHAMMAD HAFIDZ FAZLI BIN MD FAUADI       
C81112004529701123     8500000202303UTEM000001LOKMAN BIN ABDULLAH                       
C79072202584001124     1263400202303UTEM000001ZURINA BINTI SHAMSUDIN                    
C74021801647201125     1371080202303UTEM000001NORIHAN BINTI ABDUL HAMID                 
C74121002627501126     5515820202303UTEM000001MAZREE BIN IBRAHIM                        
C78102302592701128     6294000202303UTEM000001ROSTAM AFFENDI BIN HAMZAH                 
C75091304517801131     1189000202303UTEM000001NOOR MASLIAN BINTI OTHMAN @ ABDUL HALIP   
C72051504541501132     8500000202303UTEM000001ISMAIL BIN ABU SHAH                       
C81061408583301135     6660000202303UTEM000001MOHAMMAD KAMIL BIN SUED                   
C80121012537101140     8500000202303UTEM000001AHMAD NIZAM BIN MOHD JAHARI @ MOHD JOHAR  
C71103102544801149     1497800202303UTEM000001ROHANA BINTI ABDULLAH                     
C80053104515901150     7473600202303UTEM000001AZMI BIN HUSSIN                           
C81102903506301152     1119000202303UTEM000001MOHD HANIF BIN HARUN                      
C81052903627901153     1352000202303UTEM000001MOHD RODY BIN MOHAMAD ZIN                 
C79100314594701156     2452490202303UTEM000001RAJA IZAMSHAH BIN RAJA ABDULLAH           
C78071108520801157     1867500202303UTEM000001NOOR HAFIZAH BINTI AHMAD TAJUDDIN         
C73011301629001158     3733100202303UTEM000001NOOR RAFFIDAH BINTI HARON                 
C78122404527001159     2064000202303UTEM000001NORAZLIN BINTI BAHAROM                    
C82071214640801160     8027700202303UTEM000001RAHIFA BINTI RANOM                        
C76052210510101163     1649490202303UTEM000001ZULHANI BIN RASIN                         
C81033002591901166     1295200202303UTEM000001SYAHRUL AZWAN BIN SUNDI @ SUANDI          
C81061102580001170     2191000202303UTEM000001NURUL AKMAR BINTI MEHAT                   
C82040104516701172     3940000202303UTEM000001JASMI BIN JOHARI                          
C83110905578301173     9840000202303UTEM000001MUHAMMAD AFIZ BIN AHMAD                   
C82071704514701174     2166000202303UTEM000001KHAIRIN BIN ABDULLAH                      
C87061304516401175     7430000202303UTEM000001NURUSSALWA BINTI TAMBY SULEIMAN           
C81060703557101177     3155200202303UTEM000001MOHD MAWARDI BIN BADRUDDIN                
C69082901567901180     2655270202303UTEM000001IBRAHIM BIN AHMAD                         
C83091303578901181     8500000202303UTEM000001HAFIZI BIN MOHAMAD                        
C80071710589301183     1639000202303UTEM000001SYAHIBUDIL IKHWAN BIN ABDUL KUDUS         
C81040304514501184     2911260202303UTEM000001MOHD RIZUAN BIN BAHARON                   
C78051404526601185     8341200202303UTEM000001MULIATI BINTI SEDEK                       
C78101814599101187     2059000202303UTEM000001MUSTAFA BIN MANAP                         
C82050314546801189     1342000202303UTEM000001FADILAH BINTI ABDUL AZIS                  
C82083002545501192     1109800202303UTEM000001MOHD KHAIRI BIN MOHD ZAMBRI               
C82100103602001193     8500000202303UTEM000001INTAN AZMIRA BINTI WAN ABDUL RAZAK        
C79020804533901194     3710000202303UTEM000001ABU BAKAR BIN SALAM                       
C83091903547201195     1563000202303UTEM000001NURDIANA BINTI NORDIN @ MUSA              
C79091505518101196     2579000202303UTEM000001MUHAMMAD SHARIL BIN YAHAYA                
C69072101526301197     1508910202303UTEM000001NOR AZMAN BIN ABU                         
C82051706546901199     9100000202303UTEM000001SAIFUDIN HAFIZ BIN YAHAYA                 
C70111701638301200     4245340202303UTEM000001REDUAN BIN MAT DAN                        
C80062703511501202     1559000202303UTEM000001MOHD RIDUAN BIN AHMAD                     
C82080604515701203     1026000202303UTEM000001MOHD SHUKOR BIN SALLEH                    
C80040608586401204     1198000202303UTEM000001MURZIDAH BINTI AHMAD MURAD                
C83030608596001205     7158200202303UTEM000001RAHIMAH BINTI ABDUL HAMID                 
C82060403585801206     8500000202303UTEM000001SITI AISAH BINTI MAT JUNOS @ YUNUS        
C82022108604101211     1496720202303UTEM000001MOHD AZLI BIN SALIM                       
C80022901582101212     2449400202303UTEM000001MOHAMAD HARRIS BIN MISRAN                 
C83121806527801215     4920000202303UTEM000001NUR ALISA BINTI ALI                       
C81090505543101216     1083000202303UTEM000001MUHAMMAD SYAFIK BIN JUMALI                
C79053101571101217     1263400202303UTEM000001MOHD ASYADI 'AZAM BIN MOHD ABID           
C81032201566501220     6099000202303UTEM000001AMIR BIN ARIS                             
C77050301709201221     9772000202303UTEM000001HUZAIMAH BINTI HUSIN                      
C69112205523301223     4070000202303UTEM000001ZULKARNAIN BIN ZAINUDIN                   
C75040310571601224     1957000202303UTEM000001NURLISA LOKE BINTI ABDULLAH               
C80112504500001225     5775800202303UTEM000001MARHAINI BINTI MOHD NIN                   
C72020902529901226     1864000202303UTEM000001RUZAIDI BIN ZAMRI                         
C73011604500301227     1997000202303UTEM000001AMIRUDDIN BIN AHAMAT                      
C63062101549901232     2396200202303UTEM000001MOHD ZIN BIN KASRI                        
C82062114623401237     1318000202303UTEM000001MUZALIFAH BINTI MOHD SAID                 
C81093003529901238     1029000202303UTEM000001NIK SYAHRIM BIN NIK ANWAR                 
C75010401500801239     2862000202303UTEM000001NOR RATNA BINTI MASROM                    
C65111804500101240     1664000202303UTEM000001AZHAR BIN AHMAD                           
C83080908563901245     7710000202303UTEM000001MUHAMMAD ZAIMI BIN ZAINAL ABIDIN          
C80071710537501246     2562780202303UTEM000001AHMAD MASMULIYADI BIN MOHD YUSOF          
C81091312515301247     6745700202303UTEM000001IMRAN BIN HINDUSTAN                       
C74020101707301250     4642480202303UTEM000001KHAIRUL ANUAR BIN A RAHMAN                
C84052104523101253     4280000202303UTEM000001MOHD ZAKI BIN ABU BAKAR                   
C70100901528701255     2692050202303UTEM000001MOHD FAUZI BIN KAMARUDIN                  
C79071504506901258     1189000202303UTEM000001FADZLY BIN NORDIN                         
C75110114503901261     1746170202303UTEM000001SYAHIRUL BIN MOHAMED NORDIN               
C81111405532501263     5170800202303UTEM000001MUHAMMAD HELMI BIN KAHAR                  
C81022207550501264     2431000202303UTEM000001AHMAD FAIZUL BIN AHMAD TAJUDIN            
C78071704505501265     2112290202303UTEM000001MOHD FAUZI BIN SULEIMAN                   
C82050604522701268     1649000202303UTEM000001MOHD KHAIRUL BIN HASSAN                   
C81120206526701269     1466110202303UTEM000001MOHD SHAHRIZAN BIN DHAHLAN                
C76092104501101270     2165000202303UTEM000001HASRUL HADI BIN ABU SAMAH                 
C83060304527901272     1067000202303UTEM000001FADHIL BIN AHMAD                          
C83122507566901274     1964000202303UTEM000001MUHAMMAD SYAFIQ BIN SYED MOHAMED          
C79101404541501275     8500000202303UTEM000001HAIROL NIZAM BIN MOHD SHAH                
C78012814645601276     1178000202303UTEM000001SYAHIDA BINTI MOHTAR                      
C82032610508501277     2603000202303UTEM000001MOHD NAZRIN BIN MUHAMMAD                  
C83030605533101282     5616000202303UTEM000001HAZMAN BIN HASIB                          
C78082208557701284     1762300202303UTEM000001NUR RASHID BIN MAT NURI @ MD DIN          
C81102701592301287     1335000202303UTEM000001ABDUL SYUKOR BIN MOHAMAD JAYA             
C70010210740501292     3402000202303UTEM000001MUHD AKMAL NOOR @ BUANG BIN RAJIKON       
C83090205539701294     9488200202303UTEM000001HAIRUL BIN BAKRI                          
C75112704518301295     1224000202303UTEM000001ERMAN BIN HAMID                           
C84100110521501296     1928720202303UTEM000001MOHD SAIFUZAM BIN JAMRI                   
C84072004542901297     2184000202303UTEM000001NORHAFIZ BIN SALIM                        
C82070103508301300     2241980202303UTEM000001NIK MOHD ZARIFIE BIN HASHIM               
C80090308551501302     2205000202303UTEM000001NGO HEA CHOON                             
C84081001695501303     2420000202303UTEM000001MOHD ADRINATA BIN SHAHARUZAMAN            
C79071603547901304     2890600202303UTEM000001MOHD HANIF BIN CHE HASAN                  
C78091201500301305     1853000202303UTEM000001MOHD ZAKI BIN MAS'UD                      
C84102014581001310     5070000202303UTEM000001NOR FAIZAH BINTI HAMINUDIN                
C79081910525701311     2913490202303UTEM000001MOHD HELMI BIN OMAR                       
C82061607578501313     1747000202303UTEM000001MOHD NAJIB BIN ALI MOKHTAR                
C85092004532601314     1715090202303UTEM000001NADHIA BINTI GAFAR                        
C82100301615401315     9940000202303UTEM000001NURUL HAINA BINTI ABU BAKAR               
C85110504529501316     9305200202303UTEM000001MOHD SAFAR BIN ADIM                       
C85062205544601317     5390000202303UTEM000001NURUL HIDA BINTI ZULKIFLI                 
C83040304538901318     2140690202303UTEM000001MOHD SUJAIRI BIN HARUN                    
C86082630526601320     7796700202303UTEM000001SITI ROHANI BINTI MANAN                   
C87021605528901321     1049000202303UTEM000001MOHAMAD HELMY BIN ANUAR                   
C86022704500101324     1591000202303UTEM000001MOHD FAIZAL BIN ZAKARIA                   
C86082430503501325     5570000202303UTEM000001MUHAMMAD HAFEEZ BIN ACHIM                 
C81032614547501326     1289000202303UTEM000001AZRAI BIN ABDUL AZIZ                      
C85021304504401327     1618810202303UTEM000001NURUL AINA BINTI ABD GHANI                
C87061904523701328     2720900202303UTEM000001AHMAD FITRI BIN ADAM                      
C84091104516501329     4677800202303UTEM000001MOHD ALWI BIN ABDUL HAMID                 
C78012604543201331     5510000202303UTEM000001SITI AISHAH BINTI ABD RAHMAN              
C79070604525101332     1294490202303UTEM000001AZIZI BIN HASHIM                          
C83121414619301334     2000000202303UTEM000001MOHD FAIZAL BIN MD GHAZALI                
C78052506515801335     4700000202303UTEM000001NIK ASMAH BINTI NIK AZIZ                  
C78030404540101337     1716000202303UTEM000001AZLAN BIN SUPARMAN                        
C84040904547701338     3570000202303UTEM000001MOHD ZAKUAN BIN AHMAD SHUKRI              
C77112704506901339     1540460202303UTEM000001MOHD ZAIDAN BIN HAMJAH                    
C86032030543701340     7572900202303UTEM000001MOHD FIRDAUS BIN ABU BAKAR                
C85040901607701341     6370000202303UTEM000001AMIRRUDIN BIN JAMALUDIN                   
C83030404529501342     2543000202303UTEM000001AZIZUL ARIFIN BIN ISA                     
C83020604534701343     7220000202303UTEM000001MAZLAN BIN MAHAMOD                        
C85091105522301344     9020000202303UTEM000001MOHD HEDZUAN BIN HASBULLAH                
C78040304532701346     1997000202303UTEM000001ASRI BIN ABU                              
C86080630508201347     1666320202303UTEM000001NOR HIDAYAH BINTI ROSLY                   
C85012104501201348     3440000202303UTEM000001ASPALILATUL IKMAR BINTI GHAFAR            
C86082908504301349     1750070202303UTEM000001MOHD ASRI BIN MOHD MOKHTAR                
C74080802553901351     1551620202303UTEM000001MD SAAD BIN ZAKARIA                       
C80012114520201352     9250000202303UTEM000001AIDATUL AZUIN BINTI SARIFUDDIN            
C84101604502401353     6350000202303UTEM000001ZALIA BINTI MD ZAN                        
C79120108551901354     5120000202303UTEM000001AMIRUL RASYID BIN MOHAMAD                 
C82050508675601356     4820000202303UTEM000001AZILINA BINTI MD BUANG                    
C87113004514801359     1500000202303UTEM000001MASLIANA BINTI RAZALI                     
C82080404545201360     6550000202303UTEM000001MARIANA BINTI JELANI                      
C85031605523701361     1009000202303UTEM000001FAIZOL BIN KAMARUL ZAHARI                 
C83102805577301362     1488000202303UTEM000001WAN SAHARIZAL BIN WAN HARUN               
C81032501621701364     5038000202303UTEM000001MOHD FARID BIN SUPANGI                    
C81112811507701365     1858520202303UTEM000001WAN MOHD PAZRI BIN WAN OTHMAN             
C77092904511101366     8500000202303UTEM000001HABIRAFIDI BIN RAMLY                      
C78050704531301368     9870000202303UTEM000001AZHAR BIN BAHARUDDIN                      
C84052205525501370     1024900202303UTEM000001MOHD FARIHAN BIN MOHAMMAD SABTU           
C81111602578701371     2219000202303UTEM000001FAKHRULNAIM BIN IBRAHIM                   
C81061306514401372     9182000202303UTEM000001SITI SUHAILIN BINTI MOHD SIDEK            
C79052401521101373     1563000202303UTEM000001MOHD YUSZRIN BIN MD YACOB                 
C85101414600701376     5210000202303UTEM000001MOHAMED KHAIRY BIN ALI                    
C86011930502101378     8500000202303UTEM000001LUQMAN AL-HAKIM BIN SELAMAT               
C85050504549201379     1030210202303UTEM000001NURDIANA BINTI RASIB                      
C64081813642901380     4876000202303UTEM000001NARAWI BIN JEN                            
C81090305509101381     1296000202303UTEM000001MOHD YUZAIMIE BIN MOHD YUNUS              
C82080904501301382     1939000202303UTEM000001NOOR AZMAN BIN MANSOR                     
C76061801709301383     2313600202303UTEM000001MOHD TAUFIK BIN ABD AZIZ                  
C81062701647401385     9488200202303UTEM000001NORLIAH BINTI MAHAT                       
C85100204523301387     6930000202303UTEM000001ABD RAHIM BIN BABA                        
C86081830522301388     1830000202303UTEM000001MUSA BIN ABD KARIM                        
C74091001600601390     1872600202303UTEM000001AZLIANI BINTI MD NGARI                    
C82111704519901391     1484000202303UTEM000001AZIZOL BIN PET                            
C86022123580801392     1160000202303UTEM000001NOOR SYILAWATI BINTI AHMAD                
C84070804549301394     1257000202303UTEM000001MOHD FAUZI BIN ROSLAN                     
C83100504508901395     6046200202303UTEM000001MOHAMAD EFFENDY BIN ABIDIN                
C80021506521101396     5200000202303UTEM000001AIZA AZWADI BIN ABDUL WAHAB               
C83010304550401397     6590000202303UTEM000001NURASHIKEEN BINTI NASRUDIN                
C65042604544701398     1170000202303UTEM000001BAHARIN BIN ALI MOALLAF                   
C88050304517001399     1333330202303UTEM000001RABEA'TUL ADAWIAH BINTI ZAKARIAH          
C86081830504701400     1778150202303UTEM000001MOHD AZRIN BIN ISMAIL                     
C79022804525601402     3820000202303UTEM000001RAHAYU BINTI OMAR                         
C83022001662201403     4770000202303UTEM000001SITI AMINAH BINTI MD ALI                  
C85040602544501405     5980000202303UTEM000001MOHAMMAD ISHAM BIN ISHAK                  
C83061704521001406     1183600202303UTEM000001NORZURIYAHNI BINTI ABU BAKAR              
C78021410620701407     1235280202303UTEM000001MOHAMAD ZIN BIN MAHMUD                    
C74042204537701408     1520000202303UTEM000001RUSZAIDE BIN HAJI MOHAMAD                 
C87030804503701409     1702000202303UTEM000001NURUL FAEZAL BIN WAHID                    
C84053004523301411     2330000202303UTEM000001ASRULHAFIZ BIN DZULKIFLI                  
C80072004500001412     6370000202303UTEM000001SITI NURBAIZURA BINTI OMAR                
C85080804550201413     3208200202303UTEM000001SITI NOR AZUANA BINTI AZMI                
C83022504532601414     2430000202303UTEM000001NORIDAYU BINTI BAHAROM                    
C85080110540201415     7731600202303UTEM000001NOR AZLINA BINTI MD ARIS                  
C82111604574401416     1513400202303UTEM000001SHAMSIAH BINTI OMAR                       
C89010304540201417     1247000202303UTEM000001FATILAH BINTI RAMLY                       
C76050801733201418     5300000202303UTEM000001SURIYANTY BINTI KASBAN                    
C82101713533001420     2078000202303UTEM000001NONIE BINTI SALAM                         
C86102130530001421     1289000202303UTEM000001NADZIRAH BINTI MOHAMAD NOOR               
C85121801565801422     1375490202303UTEM000001NOOR HAMALIAH BINTI MOHD BASRI            
C85012504530001423     2253310202303UTEM000001KHUZAIPAH BINTI KHAMIS                    
C87121104532601424     6500000202303UTEM000001NUR AIN BINTI HASAN                       
C88103004507801426     7617500202303UTEM000001RADHIAH BINTI ABD RAHMAN                  
C75110104533701430     1585000202303UTEM000001MOHD RAZALI BIN ABU ZAHAR                 
C83040104529701433     1168000202303UTEM000001NUR A'KASHAH BIN BUHARI                   
C85122304513001436     1690000202303UTEM000001NUR FATEHAH BINTI ISA                     
C79011108588701439     9136000202303UTEM000001MUHAMMAD AZWAN BIN ABDUL KADIR            
C78022504546201441     6370000202303UTEM000001JAMALINDAH BINTI WAHID                    
C83082904513201443     5000000202303UTEM000001SITI HAJAR BINTI ABD LATIFF               
C80041904529801445     2201000202303UTEM000001ZAIHASRAH BINTI ALIAS                     
C83102606522201446     1231600202303UTEM000001NORHAZILINA BINTI BAHARI                  
C80021001503901447     3996200202303UTEM000001SHAHRIL BIN PARUMO                        
C84042904517501449     1092750202303UTEM000001MOHAMAD SUHAINIS BIN OTHMAN               
C78093003511201452     1196000202303UTEM000001NOR HASLINDA BINTI ISMAIL                 
C82100304519001453     8778000202303UTEM000001FARADILA BINTI MD YUSOF                   
C79041204508801455     2184000202303UTEM000001NOOR ASYIKIN BINTI SULAIMAN               
C74113004541701457     3188440202303UTEM000001ZAINUDDIN BIN ABDUL HAMID                 
C82101701672901458     1756000202303UTEM000001ANUAR BIN MOHAMED KASSIM                  
C67032208657601461     2941080202303UTEM000001NORMA HAYATI BINTI HASHIM                 
C71041201541701466     1441000202303UTEM000001MOHD NIZAM BIN YUSOF                      
C73082714520301468     8982000202303UTEM000001AZMAN BIN MAT ARIS                        
C77051104544801469     1760160202303UTEM000001RAHIZAH BINTI ABDUL RAHMAN                
C84032910509701470     2198000202303UTEM000001MOHD SHAHRUL NIZAM BIN SHUKOR             
C78021302534101471     6610000202303UTEM000001ZULFATRIA BIN ABDULLAH                    
C77092914595601473     2200020202303UTEM000001NORHIDAYAH BINTI MOHD ZAINUDIN            
C79111504528901474     1822620202303UTEM000001MOHD ERWAN BIN MD YUSOP                   
C85092601673701477     4980000202303UTEM000001MAHATHIR BIN MAZIZAN                      
C79032604520901478     2148000202303UTEM000001SAHHIZAM BIN MAAMIN                       
C84072604527801480     2166000202303UTEM000001NORHASLINDA BINTI HASIM                   
C83110604539501483     4170000202303UTEM000001KHAIRUL RAZIK BIN MOHAMAD ISA             
C77051707623701486     1242000202303UTEM000001ZULKIFLI BIN ISHAK                        
C84101308645301488     2469000202303UTEM000001NAZRI HUZAIMI BIN ZAKARIA                 
C81071103588901489     2500000202303UTEM000001MOHD YUHAZRI BIN YAAKOB                   
C75072604501701491     1386000202303UTEM000001MOHD FAZLI BIN MOHD SAM                   
C76090804538301492     9280000202303UTEM000001FADLIEDIE BIN YAAKOP                      
C84060510568401493     6550800202303UTEM000001SITI RAHMAH BINTI SHAMSURI                
C85031103505001497     1116000202303UTEM000001NUR FATIHAH BINTI AZMI                    
C81070804511101498     2522000202303UTEM000001HAMZAH BIN SIRUN                          
C82091111506501499     1253000202303UTEM000001MOHD ANAS BIN A'DENAR                     
C82012514588101503     1239000202303UTEM000001KHAIRUL NIZAM BIN MINHAT                  
C84020504518401505     4750000202303UTEM000001NADLENE BINTI RAZALI                      
C83121201521001507     3200000202303UTEM000001HASLIZA BINTI MOHAMED                     
C82062571502701508     4078200202303UTEM000001OMAR BIN ABDUL AZIZ                       
C79071001636501510     3200000202303UTEM000001HARULRIZAM BIN MOHAMED @ GHAZALI          
C73072604538501511     8500000202303UTEM000001AZHAR BIN ISMAIL                          
C86081123532201512     1199800202303UTEM000001NURHANA BINTI ALIAS                       
C77061607572301513     2356900202303UTEM000001AZRIN BIN AHMAD                           
C68030771500301514     1450000202303UTEM000001KAMARUDIN BIN ABU BAKAR                   
C79110101515001516     9570000202303UTEM000001WIZANA BINTI ABD JALIL                    
C82033004526501520     1824000202303UTEM000001MOHAMAD RASHID BIN JANTAN                 
C77061414582001521     3464600202303UTEM000001AZRINA BINTI ALWI                         
C81010104501901526     8173100202303UTEM000001MOHAMAD SAIFUL BIN SAHAR                  
C89011804507701528     1155180202303UTEM000001NUR HAIRUL NIZAM BIN AZIZAN               
C86022730504501529     6439800202303UTEM000001MOHD DZAHIR BIN ISMAIL                    
C84052804543701531     1597200202303UTEM000001MOHAMAD RIDUAN BIN SUKIMAN                
C85121204515101532     1233330202303UTEM000001MOHAMMAD RAFIEE BIN SUKIMAN               
C81041604525901534     1242030202303UTEM000001HAFIZUL BIN HASHIM                        
C88080466509001536     1199280202303UTEM000001NUR HIDAYAH BINTI MUSTAFAH                
C73100104513901543     1107710202303UTEM000001RAHMATULLAH BIN MOHAMED SALIQ             
C73052604500601548     8500000202303UTEM000001ROSZAIMAH BINTI WAHID                     
C86092230503901550     1472200202303UTEM000001MOHD RIF'AN BIN ABDUL RAHMAN              
C78091604543701556     1159000202303UTEM000001HAIRUL BIN ANWAR                          
C84030904527701557     5920000202303UTEM000001JUNAIDI BIN IBRAHIM                       
C87112104503101560     1644000202303UTEM000001THAQIF BIN MOHD ISA                       
C86062538593301562     6850000202303UTEM000001MOHD SIDDIQ AZIZI BIN JAIS                
C86051608518101564     1178720202303UTEM000001MUHAMAD FAZLI BIN ABD BARRI               
C85071104539701567     7050000202303UTEM000001SUHAIMI BIN OMAR                          
C85062008641701568     8190000202303UTEM000001MOHD FITRI BIN SUHAIMI                    
C82043008545901569     1765600202303UTEM000001RANJIT SINGH A/L SARBAN SINGH             
C85111403532001570     1162000202303UTEM000001SITI ROSMANIZA BINTI AB RASHID            
C79072308639701571     1029000202303UTEM000001MOHD SHAFARIM BIN MOHD SAID               
C83122804519001572     8600000202303UTEM000001NORLIZA BINTI BABA                        
C85051710536801576     2300000202303UTEM000001SITI AISYAH BINTI ANAS                    
C85062304510001578     1487300202303UTEM000001NORFIZA BINTI ABU BAKAR                   
C88102401531501580     8960000202303UTEM000001MOHD IQMALLULLAIL BIN ROOWAH              
C76010804515801582     4413400202303UTEM000001NORMALISZA BINTI MUSTAPA                  
C85022101568901583     8880000202303UTEM000001SHAHRUL ANUAR BIN RAMLI                   
C88120604507201585     1760570202303UTEM000001NURHIDAYAH BINTI RAMLI                    
C82120508580101586     1348200202303UTEM000001MOHD NAZRUL BIN MOHD SHAFRI               
C87071104511701587     1016000202303UTEM000001MOHD KHAIRUL IZAM BIN HARUN               
C79112714566601591     2542620202303UTEM000001SAZUAN NAZRAH BINTI MOHD AZAM             
C84021504538001593     1845000202303UTEM000001NORAFIZAH BINTI ABAS                      
C84081404535801595     2326000202303UTEM000001NOR HIDAYAH BINTI RAHIM                   
C76120304526501598     1722000202303UTEM000001SAIFUL ANUAR BIN MOHAMAD                  
C86051846537201599     4640000202303UTEM000001NOOR YUSNIZA BINTI YUSOF                  
C86111830528601601     8123200202303UTEM000001SITI MARZIANA BINTI SARIF                 
C84083004509101603     2504160202303UTEM000001SHARIN BIN AB GHANI                       
C83061704529601604     8500000202303UTEM000001IRDA BINTI ROSLAN                         
C82040108637201605     4480000202303UTEM000001NOORAZNINA IRMA BINTI MUSTAFA             
C73031204529701608     5000000202303UTEM000001MOHAMAD LUTFI BIN DOLHALIT                
C86072135535501611     3276100202303UTEM000001JAZLAN BIN JAMAL ABDUL NASIR              
C82081204501401613     2340000202303UTEM000001ROSMIZA BINTI  MOHD SAAD                  
C83010601654901614     9890000202303UTEM000001AZRUL SYAFIQ BIN MAZLAN                   
C86092630525501615     1297000202303UTEM000001MOHD FADHIL BIN IBRAHIM                   
C84030704567901617     9870000202303UTEM000001MOHD FAIRUZ AZWAD BIN MOHD ZAUWAWI        
C82111713535401618     6729000202303UTEM000001JURAIDA BINTI JAMALUDDIN                  
C86071204501301619     6543400202303UTEM000001AZMAN BIN AMIR                            
C85033103508201620     8982000202303UTEM000001NURDIYANA BINTI SAMSUDIN                  
C82123104513301624     6010000202303UTEM000001JANATUL HAFIZ BIN BASIR                   
C74120404569901625     8500000202303UTEM000001ZAHARZAN BIN SAID                         
C78041108608101627     2226000202303UTEM000001NOOR AZWAN BIN SHAIRI                     
C83012904538501628     2506770202303UTEM000001MOHD KHAIRIL BIN ZULKHAINI                
C86040923552701630     1104400202303UTEM000001MUHAMMAD AKMAL BIN ABD SHUKOR             
C85092405544101632     3750000202303UTEM000001SYED ALIFF BIN SYED ARIFFIN               
C78080704531501633     1631940202303UTEM000001MOHD NAZIR BIN TAIB                       
C75120501535101634     2025000202303UTEM000001RIDZA AZRI BIN RAMLEE                     
C86091830520401635     4450000202303UTEM000001SITI NURULFAIEZAH BINTI MOHD YATIM        
C83110304534901636     9740000202303UTEM000001MOHD HANAFIAH BIN MOHD ISA                
C80022801629101638     2139000202303UTEM000001MUHAMAD HAFEEZ BIN ZAINUDIN               
C81011206546101639     1850000202303UTEM000001ZAIDI BIN SAAD                            
C86101830511501642     9520000202303UTEM000001MOHD AMIRUL ANUAR BIN ABD RAZAK           
C82060501557601643     7210000202303UTEM000001ZURAIDAH BINTI AMAR                       
C75021903619101644     1316000202303UTEM000001MOHD HISHAM BIN ONDAR                     
C82100601614101648     1419300202303UTEM000001KHAIRUL AZHA BIN A AZIZ                   
C83110501548501649     1523000202303UTEM000001FARHAN BIN HANAFFI                        
C82032304502101650     5790000202303UTEM000001MOHD HAFIZUDDIN BIN YUSOF                 
C88020401526201653     8120000202303UTEM000001NORAIN BINTI HANA                         
C88090523569801654     1192760202303UTEM000001NUR ZAFIQAH BINTI MOHD ZIN                
C88042301558801656     8470000202303UTEM000001NORDIANA BINTI MD LAMIN                   
C86070133525001658     6640000202303UTEM000001NURUL HUSNA BINTI HAMZAH                  
C77081301667701662     1619320202303UTEM000001MOHD AZMI BIN SURATMAN                    
C88090408642401664     6107200202303UTEM000001SUHAILA BINTI MOHD YUSOF                  
C85040506557601666     6590000202303UTEM000001RIZATHUL EMMA BINTI TAIB                  
C85072701527201667     2680000202303UTEM000001NURAINI BINTI ZAKARIAH                    
C81072001568701668     9670000202303UTEM000001MOHD SYIHAM AKMAL BIN SABAH @ SAABAN      
C85112301562001671     4340000202303UTEM000001SURIA BINTI ABDUL RAHMAN                  
C88120104569801672     8480000202303UTEM000001HONEY AMALINA BINTI LUQMAN UL-HAKIM NG    
C81100606554201673     1354000202303UTEM000001SITI MUHAINI BINTI SHAARI                 
C75070405504601675     2110160202303UTEM000001NORLIZA BINTI OMAR                        
C67050603508701676     3074000202303UTEM000001MOHD RAHIMI BIN YUSOFF                    
C85051904521501677     2646490202303UTEM000001ABDUL RAFEQ BIN SALEMAN                   
C80080605500701679     1098000202303UTEM000001MOHD FERDAUS BIN ABDULLAH                 
C82041204538101681     1272000202303UTEM000001MUHAMAD FIRDAUS BIN MAZLI                 
C86040138706701682     1462620202303UTEM000001MUHAMAD JAFRI BIN SAMAH                   
C89022704539101684     5403100202303UTEM000001MUHAMMAD ASHRAFF BIN NOR RIZAN            
C69101901504901685     1205680202303UTEM000001BAHARUDDIN BIN HASSAN                     
C63110271519901687     3950000202303UTEM000001BORHAN BIN MOHD YUSOF                     
C74051204520701688     2939700202303UTEM000001SAPIAN BIN ABD WAHID                      
C81080804514301689     1230260202303UTEM000001KHAIRUL MUZANI BIN OSMAN                  
C89090104526301690     5290000202303UTEM000001ZULKIFLI BIN HUSSIN                       
C84070403603901696     1123000202303UTEM000001MAHASAN BIN MAT ALI                       
C83050310529701697     4950000202303UTEM000001ZUL ATFYI FAUZAN BIN MOHAMMED NAPIAH      
C85011004541201698     1102000202303UTEM000001NUR HAZWANI BINTI MOKHTAR                 
C83100702578601699     1131900202303UTEM000001AFIFAH MAHERAN BINTI ABDUL HAMID          
C84101414500501700     1078000202303UTEM000001IMRAN BIN SUTAN CHAIRUL                   
C84101801614701701     2016750202303UTEM000001FAKRULRADZI BIN IDRIS                     
C84070207534101702     5790000202303UTEM000001AHAMED FAYEEZ BIN TUANI IBRAHIM           
C75011704532901703     8500000202303UTEM000001HANIZAM BIN HASHIM                        
C83070413500301704     2597050202303UTEM000001SYED MOHAMAD SHAZALI BIN SYED ABDUL HAMI  
C76040601708301707     2791000202303UTEM000001MOHD SOUFHWEE BIN ABD RAHMAN              
C85041211573801710     2211000202303UTEM000001FADHILAH BINTI SHIKH ANUAR                
C83092607531701711     6894500202303UTEM000001KHALIL AZHA BIN MOHD ANNUAR               
C83121914505001712     6776200202303UTEM000001MASNI AZIAN BINTI AKIAH                   
C84032711548601715     7738000202303UTEM000001NURUL FATIHA BINTI JOHAN                  
C85112214656501717     1163160202303UTEM000001MOHAMAD FAIZAL BIN BAHAROM                
C85030402500601718     1231000202303UTEM000001SYAHAR AZALIA BINTI  AB SHUKOR            
C82021303551901719     8500000202303UTEM000001MOHD FIRDAUS BIN MOHD AB HALIM            
C84112711559001720     3348540202303UTEM000001NOOR BADARIAH BINTI ASAN                  
C85112102516301721     3488400202303UTEM000001ANUAR BIN JAAFAR                          
C83011171516801725     8500000202303UTEM000001NORLEZAH BINTI HASHIM                     
C83092304535801728     1435000202303UTEM000001MADIHA BINTI ZAHARI                       
C84052914539201729     7948000202303UTEM000001MAWARNI BINTI MOHAMED YUNUS               
C84091911566601730     4800000202303UTEM000001NAJMIAH RADIAH BINTI MOHAMAD              
C83101307531701732     8500000202303UTEM000001HASRUL 'NISHAM BIN ROSLY                  
C81101608635501734     8500000202303UTEM000001MOHD SAAD BIN HAMID                       
C85060301639601735     7580000202303UTEM000001ASRIANA BINTI IBRAHIM                     
C83031906561901738     8500000202303UTEM000001SHAMSUL FAKHAR BIN ABD GANI               
C85011101611101742     2161000202303UTEM000001JUFFRIZAL BIN KARJANTO                    
C81111909517401744     9136000202303UTEM000001SITI HALMA BINTI JOHARI                   
C77101004551601745     1414000202303UTEM000001NURMAZWATI BINTI ABDUL WAHAB              
C84021607580501746     4630000202303UTEM000001FAUZAL NAIM BIN ZOHEDI                    
C80122102584301749     3063180202303UTEM000001MOHD FAIZAL BIN HALIM                     
C77101508676301750     1471900202303UTEM000001MOHD FAUZI BIN AB RAHMAN                  
C77082304529501753     1295200202303UTEM000001KHAIRUL ANWAR BIN IBRAHIM                 
C77022504509201754     1638000202303UTEM000001ZAHEERA BINTI ZAINAL ABIDIN               
C85063004511701758     1764000202303UTEM000001MOHD FAIZ BIN ZULKIFLI                    
C86061330545701759     1330000202303UTEM000001AHMAD FITRI BIN ABU BAKAR                 
C88111123552701760     4497500202303UTEM000001MUSTAFFA BIN JAMAK                        
C78091704510501761     1322200202303UTEM000001MUSTAFA BIN IBRAHIM                       
C81092311534601763     1263000202303UTEM000001SUZITA BINTI YUSUF                        
C87100443526801764     1931700202303UTEM000001SITI NADIAH BINTI OTHMAN                  
C90013104525401765     9713000202303UTEM000001NADIAH BINTI RAHIM                        
C85050304503401766     5640000202303UTEM000001NOR HAFSAH BINTI HISHAH                   
C85100814660901768     3630000202303UTEM000001ANAS BIN ABDUL LATIFF                     
C89090102508601771     4194400202303UTEM000001NURLELA BINTI IBRAHIM                     
C86062030520101773     1009000202303UTEM000001MUHAMAD HAZWAN BIN HASSAN                 
C81051901631101774     1299000202303UTEM000001MUHAMAD FAIZAL BIN YAAKUB                 
C84100506562801778     2960000202303UTEM000001NORBAYAH BINTI YUSOP                      
C81062404504201780     1803000202303UTEM000001LINDAHERDANI BINTI RAMAN                  
C83032101581301783     7270000202303UTEM000001MOHD NAJWAN BIN MD KHAMBARI               
C82091501597701785     9962000202303UTEM000001NIDZAMUDDIN BIN MD. YUSOF                 
C84121601583101786     6604900202303UTEM000001NUR LATIF AZYZE BIN MOHD SHAARI AZYZE     
C81091308557701787     1970800202303UTEM000001MEGAT HAFIZUL ATTRAS BIN MEGAT HAMARI     
C88062504514401789     1289780202303UTEM000001NOR IZZATI BTE ROSLAN                     
C85092704522201791     4730000202303UTEM000001NOORHAIZAH BT IBRAHIM                     
C85120204527001793     5770000202303UTEM000001NORIZAH BINTI MAT                         
C83011802526601794     6240000202303UTEM000001NUSAIBAH BINTI MANSOR                     
C88061504503601795     1399000202303UTEM000001SITI SALEHA BINTI MUHAMAD                 
C84073008598501796     1820000202303UTEM000001MUHAMMAD NOORAZLAN SHAH BIN ZAINUDIN      
C88012823552901803     4310000202303UTEM000001AHMAD FARHAN BIN JAMALUDIN                
C81061101623401804     3940000202303UTEM000001NETTY MUHALIZZA BINTI MOHD FADZIL         
C81041006515201805     1665000202303UTEM000001NOORIRINAH BT OMAR                        
C83010314593501809     8904200202303UTEM000001MOHD SUHAIRI BIN MOHD SAAD                
C82062402500801810     1396000202303UTEM000001SITI NORBAYA BINTI YAHAYA                 
C83090404538701811     7150000202303UTEM000001MOHD HAIRULL BIN ABDOLAH                  
C87111712513501813     8500000202303UTEM000001RIDHWAN BIN JUMAIDIN                      
C82081114585701815     4820000202303UTEM000001MOHD RUZAINI BIN HASHIM                   
C85072910521201817     8500000202303UTEM000001SITI AMANIAH BT MOHD CHACHULI             
C81122008533301819     1200000202303UTEM000001NORAZHAR BIN ABU BAKAR                    
C82091908540301820     1025160202303UTEM000001MUHAMMAD ZAIDAN BIN ABDUL MANAF           
C85060814625301821     8486900202303UTEM000001MOHD ZARLIZAN BIN ZAKARIA                 
C82062104523001824     1193000202303UTEM000001NURLIYANA BINTI ABD. MUTALIB              
C82081314604401825     3392560202303UTEM000001RAIHATUL JANNAH BINTI ABDULLAH            
C84051601624101827     1441000202303UTEM000001FAUZI BIN AHMAD                           
C82120805537601828     5913000202303UTEM000001ETTY MARINA BINTI MUHAMAD NOOR            
C84090414641901830     1737620202303UTEM000001MOHD TAUFIK BIN TAIB                      
C78061308534301832     2555000202303UTEM000001KAMARUL BIN AMIR MOHAMED                  
C81042314566101834     5420000202303UTEM000001MOHAMAD RIDUWAN BIN MD NAWAWI             
C85093001596401837     3910200202303UTEM000001AIDAYANTI BINTI AHMAD                     
C84070201692301838     9349400202303UTEM000001MUHAMAD HAZRUL BIN MD ESA                 
C83090204543901840     8477200202303UTEM000001SHAHRIZAN BIN ABDULLAH                    
C84102513501301843     5015200202303UTEM000001HAFEZ BIN SARKAWI                         
C86080630501501844     1504000202303UTEM000001KHAIRUL AZUWAN BIN AB. KARIM              
C81050204500101846     9735000202303UTEM000001HAIRUL NEZAM BIN WAHID                    
C76112603526501847     2717740202303UTEM000001AZHAR BIN AB AZIZ                         
C82060803526501848     6267000202303UTEM000001NOR IZWAN BIN JUNOH                       
C77051904555701849     1585530202303UTEM000001ALIZAM BIN ALIAS                          
C71092701565101850     1814110202303UTEM000001MOHD YUNOS BIN ALI                        
C76041405504701852     3424400202303UTEM000001BADROLHISAM BIN HARUN                     
C84012314530901854     1104400202303UTEM000001KHAIRUL ANWAR BIN ABDUL TAHRIM            
C78102101545001856     3021000202303UTEM000001FARIDAH BINTI MOHD BASRI                  
C76090204535801858     1578000202303UTEM000001NOR ZALIPAH BTE SULIMAN                   
C83090804532501859     1782330202303UTEM000001AZLAN BIN AHMAD                           
C87012404529401860     1047200202303UTEM000001ZURAIYATI BINTI ABDUL RAHIM               
C80121804502601861     5750000202303UTEM000001NAZRIN BTE AZIZ                           
C76022804542701864     4134000202303UTEM000001AL-QAIS BIN ALIAS                         
C85060404527901865     7854400202303UTEM000001MOHD RAHIDAN BIN MOHAMAD                  
C86111135543201866     1147000202303UTEM000001NUR FAZILAH BINTI MOHD KASSIM             
C67111404516801869     2197080202303UTEM000001FAZIDAH BTE ITHNIN                        
C88102804550301870     2728440202303UTEM000001MUHAMMAD SHAZUAN BIN ZAINAL ABIDIN        
C83010204529701871     7360000202303UTEM000001MOHD HASRIN BIN HASAN                     
C77072310552901873     1415440202303UTEM000001MOHAMMAD UZAINI BIN AB RAHIM              
C79091007517501876     1948260202303UTEM000001MOHD KHAIRULHUSAINI BIN MOHD SAAD         
C86122930509401877     1704000202303UTEM000001SITI FATIMAH ZAHRA BINTI HASAN            
C83021404530401879     1463000202303UTEM000001NORHASANAH BINTI ZAINAL                   
C82010513502901880     1500000202303UTEM000001MOHD YASZLI BIN MOHAMED RAHIS             
C85110504522801884     1115000202303UTEM000001NURUL WAHIDAH BINTI ABDULLAH              
C73081209506301885     2166000202303UTEM000001MOHAMAD ZAHIR BIN ZAINUDIN                
C78110707559301887     1104400202303UTEM000001AZMIN FADLI BIN MAHYUDDIN                 
C85040304532801888     4114900202303UTEM000001NORASHIKIN BINTI JOHARI                   
C87071104517601889     1321000202303UTEM000001KHAIRUNNISAK BINTI MAZLAN                 
C84012304503301896     1263400202303UTEM000001MOHD. FARID BIN ISMAIL                    
C85010604534801899     3000000202303UTEM000001SITI SARAH BINTI BUJANG                   
C76040904523101905     1774480202303UTEM000001ZULKARNAIN BIN HASAN                      
C83030504537701908     2451140202303UTEM000001MOHAMAD ALI MUSA BIN SARIF                
C74042801588101912     8500000202303UTEM000001MOHD SYAHRIN AMRI BIN MOHD NOH            
C86102902565301913     1066230202303UTEM000001FAKHRUL RIDHUAN BIN IBRAHIM               
C80070601541101916     3500000202303UTEM000001AZMI BIN GHAZALI                          
C80032902551701919     2760000202303UTEM000001MOHD WAHYUDI BIN MD HUSSAIN               
C81061814573301921     2290000202303UTEM000001HAIRUL EFFENDY BIN AB MAULOD              
C84030104522101922     2140000202303UTEM000001MUHAMAD HAFIZ BIN MOHAMED YUSOFF          
C86050433527801923     7290000202303UTEM000001NORIZAN BINTI MAT DAUT                    
C84082906538601924     1279000202303UTEM000001FATONAH BINTI SALEHUDDIN                  
C83040201526801925     2563360202303UTEM000001NORHAYATI BINTI SUANDI                    
C86020404518001927     1850000202303UTEM000001SITI NURSALASIAH BINTI ABIDIN             
C86021733514401929     6470000202303UTEM000001NOORSAIYIDAH BINTI SURADI                 
C85070810561901932     1507000202303UTEM000001IEZWAN BIN SABTU                          
C79090114587201933     4838200202303UTEM000001NORSURIA BINTI AZIS                       
C83042804553701934     5580000202303UTEM000001ZULKIFLI BIN MOHD RASID                   
C78122404520301936     1199800202303UTEM000001ABDUL ZAINI BIN ABDULLAH                  
C83112504525101942     1506080202303UTEM000001MUSZAFAR BIN AHMAD                        
C89110204557901944     3610000202303UTEM000001MOHAMAD AKHIR BIN YAWAH                   
C87072704544501945     1605000202303UTEM000001KHAIRUL EFFENDY BIN AB. KARIM             
C83010404522301947     3936000202303UTEM000001SHAHRIL HAZIZI BIN ABU BAKAR              
C84033008644401949     1499000202303UTEM000001NORSUHADA BINTI NORDIN                    
C83101305538301950     1568860202303UTEM000001MOHD HAFIZ BIN JALI                       
C83042404514201953     8900000202303UTEM000001NORHAYATI BINTI YAKOB                     
C82111702510401954     8500000202303UTEM000001SAFINA BINTI ADERIS                       
C85061804526101958     6371900202303UTEM000001ZAINAL BIN NORDIN                         
C85122511556901960     2834200202303UTEM000001MOHAMAD SHUKRI BIN ZAKARIA                
C86051623602301961     1298000202303UTEM000001KHAIRUL FADZLI BIN SAMAT                  
C78022404547901962     4690000202303UTEM000001BAHATIAR BIN ZAID                         
C77062001619501963     9772000202303UTEM000001HASNORIZAL BIN HAIRUDDIN                  
C77082110580501964     7163600202303UTEM000001MD JANUAR BIN MD JANI                     
C85111904524501966     1884000202303UTEM000001MUHAMAD FAIRUZD BIN NAHARUDIN             
C78071814631701968     5800000202303UTEM000001MOHD FAUZEE BIN MOHAMED                   
C79052504519901971     3170000202303UTEM000001MOHAMAD NIZZAN BIN MOHD SAID              
C84042304561701973     1481000202303UTEM000001MARDI BIN MAHAMOD                         
C85111410610901974     9088200202303UTEM000001AMIR AKMAL BIN ALWEE                      
C81081308572101975     2283720202303UTEM000001HAZIEZOL HELMI BIN MOHD YUSOF             
C71122304526701978     1841000202303UTEM000001MOHAMAD NOOR BIN SAMAT                    
C78122301626701979     7920000202303UTEM000001ASMIZAL BIN JAMIL                         
C80072901579901980     7470000202303UTEM000001ZAINI BIN HASHIM                          
C75102301706501981     6660000202303UTEM000001SHAHRIN BIN JABIL                         
C72021504507701982     1352890202303UTEM000001RIZAL BIN MISKIRAN                        
C68031211530101983     1100210202303UTEM000001MOHD HUZAIMI BIN GHAZALI                  
C65040703524301984     8988000202303UTEM000001MAT SAMSUDDIN BIN OMAR                    
C82022204514501985     6943100202303UTEM000001JUFRI BIN MOHAMAD NOR                     
C85101011503501986     7929000202303UTEM000001AZIZI BIN ABD RASID                       
C75110514569301987     7104900202303UTEM000001MOHD AZHAR BIN AZIZ                       
C73010304505501989     1435200202303UTEM000001MOHD RAZALI BIN HJ KHAMIS                 
C75082304503501990     1044000202303UTEM000001AB. HAMID BIN AZIZ                        
C78090801511501992     1637500202303UTEM000001HERMAN BIN HUSSIN                         
C82012404547501995     7570000202303UTEM000001MUHAMMAD NUR BIN OTHMAN                   
C90032704519201997     1457000202303UTEM000001NURUL AMIRANURAIN BINTI OMAR              
C88052023530401998     8500000202303UTEM000001ATIKAH BINTI RAZI                         
C85030308543701999     8500000202303UTEM000001HAZRIQ IZZUAN BIN JAAFAR                  
C81010304505502000     1263400202303UTEM000001MUHAMMAD FAIRUZ BIN ABU BAKAR             
C90071308525602002     8500000202303UTEM000001RASHIDAH BINTI AZHAR                      
C77021104507502003     1139850202303UTEM000001MOHD REMY BIN AB KARIM                    
C83032004506802006     1429720202303UTEM000001ZAINAB BINTI AHMAD                        
C89121101651502010     7940000202303UTEM000001MOHAMAD NOR SAIFUL BIN SUBARI             
C90072905515802011     5888000202303UTEM000001NURFADHLIYANA BINTI ROSLI                 
C89083123517502012     1141440202303UTEM000001MOHSIN BIN KAMARUZAMAN                    
C86052443603302013     3790000202303UTEM000001MOHD GHAZALAN BIN MOHD GHAZI              
C87061402549902014     1296000202303UTEM000001ASWANZIE ABBYD BIN ZAINAL ABIDIN          
C88043009509602018     1675310202303UTEM000001NADHIRAH BINTI SARPIN                     
C78050201635302019     2184000202303UTEM000001MUHAMMED NOOR BIN HASHIM                  
C89051002565202020     1302360202303UTEM000001SYALWANIE BINTI MOHAMAD ROZI              
C85091914523102021     1082000202303UTEM000001MUHAMMAD RAIHAAN BIN KAMARUDIN            
C87090809503802024     1362000202303UTEM000001SITI NABILAH BT ZULKIFLY                  
C86010201561802025     3360000202303UTEM000001NUR ASMIZA BINTI SELAMAT                  
C83090304504302027     1332000202303UTEM000001MOHD ARIS BIN MD SAAD                     
C86062904512702030     9930000202303UTEM000001MOHD SYAIRAZI BIN RAZALI                  
C84110414528702031     1550000202303UTEM000001ZUL HASRIZAL BIN BOHARI                   
C82031701644302032     1305620202303UTEM000001REDZUAN BIN KAMALUDIN                     
C89080304501602033     1120310202303UTEM000001NURUL HIDAYAH BINTI KAMAL                 
C88012005534702035     4860000202303UTEM000001MUHAMMAD ISKANDAR SHAH BIN AB AHMID       
C86050530523002036     3740000202303UTEM000001ERNA NOORBAIZURA BINTI ZAIDAN             
C85041504524502037     2019800202303UTEM000001MUHAMMAD ASYRAF BIN SULAIMAN              
C81020103529902041     2220000202303UTEM000001MAZLAN B. MAMAT @ AWANG MAT               
C88041414549502042     9466800202303UTEM000001NAZIRUL BIN TERMIZI                       
C79120505528802043     3475200202303UTEM000001OSFA IRDA BINTI OTHMAN                    
C87072504506202044     5170000202303UTEM000001MUNIRAH BINTI ZAINAL                      
C86012904503202047     3266820202303UTEM000001ARFAH SYAHIDA BINTI MOHD NOR              
C84090704537302051     2053000202303UTEM000001MOHAMAD JUMAIRI BIN MOHAMAD YOSOFF        
C80080404546202052     7990000202303UTEM000001YANG SARINAH BINTI MOHD TALIB             
C80073104527602053     5159000202303UTEM000001AMIZA BINTI HJ. TALIB                     
C85012102601402055     1199800202303UTEM000001ADIBAH HANEEM BINTI MOHAMAD DOM           
C84022511504702056     7795100202303UTEM000001LIM WEE TECK                              
C79040414577502058     1507000202303UTEM000001ARJUNAIDY BIN DEMEK                       
C81071301614702059     9380100202303UTEM000001MOHD SHAHRIZAN BIN OTHMAN                 
C87120104510302060     8930000202303UTEM000001MOHD EZREN BIN BUANG                      
C86112830535102063     1006450202303UTEM000001'AZHAM FIDA'IY BIN AZKAR                  
C85070304512702064     3480000202303UTEM000001KHAIRUL FITRI BIN ZAINAL                  
C76082314562502066     5550000202303UTEM000001MOHD FARID BIN MOHD KHALID                
C83110204547802067     7080000202303UTEM000001ELIYANA BINTI RUSLAN                      
C86110933514102068     4450000202303UTEM000001ALIAS SUKRI BIN KHAIRUDIN                 
C86090923505602069     7655400202303UTEM000001NASLINDA BINTI NASARI                     
C83052804531502071     7900000202303UTEM000001RAMLAN BIN LATIP                          
C84011111559102072     3816000202303UTEM000001MOHD ZULFADHLI BIN RAZALY                 
C84121803555302073     8630000202303UTEM000001AHMAD TARMIZI BIN ABDUL HADI              
C86011904502002074     1910000202303UTEM000001HAMIZAH BINTI ABDUL HAMID                 
C84062304524002075     1197600202303UTEM000001HAFIZAH BINTI MOHD TAHER                  
C79022204515902079     8340000202303UTEM000001MOHAMAD PAZIR BIN MD NOR                  
C63052001521102080     6290000202303UTEM000001ITHNAIN BIN MD JAIS                       
C69120404549302081     5300000202303UTEM000001ZULKIFLI BIN ALI                          
C80060714566702082     7690000202303UTEM000001MOHD ZAIDI BIN MOHAMED                    
C88042904564902083     1278330202303UTEM000001MUHAMAD KHAIRUL BIN MOHAMAD NOOR          
C71083104533802084     1534250202303UTEM000001ASIAH BINTI AHMAD                         
C83120105550802088     6863400202303UTEM000001NORFARADILLA IDAYU BINTI AB.GHAFAR        
C89020504509102090     1400000202303UTEM000001EIISAA BIN AHYEAD                         
C90030908600302091     2170000202303UTEM000001MOHAMMAD TAUFIK BIN OSMAN                 
C84113004523902092     8527500202303UTEM000001ABDUL AZIZ BIN AYOB@MOHAMMAD              
C88100311580002096     1910000202303UTEM000001SITI NURJANNAH BINTI AHMAD                
C73061004511302098     1136200202303UTEM000001ZAINAL BIN BAHARIM                        
C84062704528002099     9590000202303UTEM000001NORAZHANI BINTI ISMAIL                    
C87050256502802101     2152620202303UTEM000001AGHNIYA BINTI MOHAMAD                     
C89021523512002102     1513400202303UTEM000001SITI NORHASIMAH BINTI MOHAMAD LAILY       
C82112606542302104     1006000202303UTEM000001MOHD IZUWAN BIN SAFRI                     
