H9001594310202300052844257
D40091100400SUHAILI BINTI SALLEHUDDIN                                   -           A2525219    -             2930500013     
D05617630800NORAIDA BINTI MOHAMAD NOH                                   -           A3749647    -             728500015     
D05078143100NOR'EMYLIA BINTI MOHAMED                                    -           A2386665    -             738500019     
D03216573000LELA BINTI OMAR                                             -           A0398841    -             42500020     
D11164809020AHMAD FADZLI NIZAM BIN ABDUL RAHMAN                         -           A3661893    -             7652500021     
D00000000000AZHAR BIN MOHD SALLEH                                       -           A3382445    -             5480500022     
D00000000000NUR AZRIAH BINTI AMIR                                       -           A3511032    -             5518500024     
D53289090910SABARINA BINTI ABDULLAH                                     -           A3779298    -             4974500025     
D63637010400BAKRI BIN ABU BAKAR                                         -           A2651870    -             9703500026     
D24598030100ABDUL RAZAK BIN ABDUL SAMAT                                 A7107069    7176791     A7107069      540000032     
D04214566040ZAIMI BIN ZOL                                               -           A0405501    -             382500033     
D00000000000NOOR BAHIRAH BINTI JOHAL                                    -           A3692867    -             668000040     
D24598370600AB RAHIM BIN MUSLIM                                         -           A0405911    -             520000041     
D00000000000SITI ROHEIZAH BINTI MOHNI                                   -           A3514620    -             872000043     
D01258382000MUHAMMAD SYAHRIR BIN JOHAL                                  -           A3044931    -             9191500045     
D04526498080AHMAD SHAARIZAN BIN SHAARANI                                A4364125    A1572841    A4364125      12647500046     
D45264980810MASLITA BINTI ABD AZIZ                                      A7915475    A1975498    A7915475      9203500047     
D08166670810NORELIZA BINTI ADAM                                         -           A1864197    -             957500049     
D00000000000HASAN BIN SALEH                                             -           A3782501    -             3012000050     
D00000000000ZANARIAH BINTI ALI                                          -           A3385536    -             1345500053     
D00000000000NURAIDA BINTI ISMAIL                                        -           A3679586    -             453500055     
D00000000000ADLI BIN OMAR                                               -           A3273357    -             102500056     
D13054790110MIMI RAHAYU BINTI HAMDIN                                    -           A3781718    -             1251500060     
D45736340010ERNI SUHADAH BINTI MOD HUSIN                                -           A2844575    -             1284000061     
D50283530700MOHD FAIRUZ BIN DIMIN @ MOHD AMIN                           A37790316   A1408787    A37790316     5576000064     
D47383190400SITI SALUWA BINTI JAMAL                                     -           A2790311    -             5338800068     
D05107831070SAFIZA SUHANA BINTI KAMAL BAHARIN                           -           A3439870    -             8451500072     
D00000000000SHARIFAH INTAN BINTI OSMAN                                  -           A2651362    -             784000073     
D21021450000SITI AISHAH BINTI MAT ZAIN                                  -           A1667085    -             134500074     
D11270428100MAISARAH BINTI ABU                                          -           A3782252    -             6695500075     
D02772040700MOHD NIZAM BIN MAZLAN                                       -           A3332424    -             2267000077     
D04443363080ANIZA BINTI OTHMAN                                          A9517438    A1408376    A9517438      3617500078     
D06123640030ANISAH BINTI KASIM                                          -           A2583409    -             4637000083     
D10756430610NORHAZLENA BINTI SABTU                                      -           A3513987    -             4420500085     
D00000000000ANIS BIN MD TAHIR                                           -           A3329909    -             777500089     
D00000000000AZIZA BINTI MD BUANG                                        -           -           -             5457500090     
D14738711000MUHAMMAD RASHDAN BIN MUHAMMAD                               -           A3837268    -             03500091     
D11164959050HADZLI ZUL BIN HAMRAN                                       -           -           -             2145500093     
D70949420110SITI HUZAIMAH BINTI HUSIN                                   A12051216   A2987859    A12051216     7291500094     
D18561380300RAIS BIN MAHAT                                              -           A2892085    -             1038500096     
D11190587070ZAKIAH BINTI AYOP                                           -           -           -             1984500099     
D07874271010JURIFA BINTI MAT LAZI                                       -           -           -             7779500102     
D13054790100ZAIHASRAF BIN ZAKARIA                                       -           A3564339    -             5053500103     
D40814730400SU'AIDI BIN DATO' SAFEI                                     -           A0456910    -             15919500104     
D04570302070ZUHRIAH BINTI EBRAHIM                                       -           A2019236    -             12917500105     
D10802170910HIDAYAH BINTI RAHMALAN                                      -           A3400018    -             7792500106     
D04254415070MOHAMAD BIN MINHAT                                          A36862778   A1106813    A36862778     4775500107     
D03286823050RUSLINA BINTI RUSMANI                                       -           A1921322    -             2014500108     
D09372340400ABDUL RASHID BIN ABDUL RAHMAN                               -           A2143158    -             801500109     
D00000000000MOHD YUSRI BIN JAMIL                                        -           A2650916    -             532500112     
D04352937020ABDUL RAZAK BIN HUSSAIN                                     -           A0783925    -             9031500113     
D00000000000FAUZURA BINTI MOHD SALLEH                                   -           A3863891    -             590500118     
D05179031090ZULKEFLEE BIN ABDULLAH                                      -           A2864805    -             11757500119     
D10592143020MOHD ZULKEFLI BIN SELAMAT                                   -           A1701653    -             2147500129     
D06604175090SHAHRULANUAR BIN MOHAMED                                    -           A2735599    -             3516500131     
D11806607020W. MOHD ZAILIMI BIN  W. ABDULLAH @ ZAKARIA                  -           A3190508    -             7557500132     
D42322190710MARSITA BINTI MOHD TAIB                                     -           A1664404    -             7270500133     
D04724345070SHAHRAN BIN MOKSEN @ MOHD HUSSIN                            -           A0314718    -             1763500134     
D01324024020SUHAILA BINTI SALLEH                                        -           A2212515    -             8943500135     
D42376880200MUSA BIN ABDULLAH                                           -           A1173734    -             3125000139     
D11219978100SYARULNAZIAH BINTI ANAWAR                                   -           -           -             7543500142     
D00000000000NORASMARA BINTI MAHMUD                                      A13348932   -           A13348932     472000144     
D00000000000SHARNIZA BINTI ZAINUDIN                                     -           -           -             678500146     
D00000000000NOOR AZIAN BINTI MAHMOOD                                    -           -           -             249500148     
D11307103050YUSMADY BIN MOHAMED ARIFIN                                  -           A3193074    -             8023500149     
D13367440700RASHDAN BIN SEMAN                                           -           A2843279    -             1362500150     
D11067760800ZULAIHA BINTI MD. ALI                                       -           A3916234    -             838500151     
D00000000000MUHAMMAD SHUHAIMI BIN ABU BAKAR                             -           A3515344    -             1629500152     
D00000000000SITI ZURAH BINTI MOHD NASIR                                 -           -           -             1270500154     
D01270163070HASSAN BIN ATTAN                                            -           A1737704    -             5746000157     
D00000000000YAHYA BIN IBRAHIM                                           -           A1548798    -             5543500161     
D60836090110ROSIDAH BINTI JAAFAR                                        -           A1221326    -             9771500162     
D10533331000GAN CHIN KIM                                                -           -           -             11083500164     
D11356219050MUHAMAD SYAHRUL AZHAR BIN SANI                              -           -           -             4554500165     
D00000000000MOHD WARIKH BIN ABD RASHID                                  -           A3671728    -             3451500166     
D06389990800WAN MOHD FARID  BIN WAN MOHAMAD                             -           A3331595    -             6997500167     
D66046531010SUBATIRA A/P BALAKRISHNAN                                   -           A1784225    -             6679000168     
D47385550300SHAMSUL ANUAR BIN SHAMSUDIN                                 -           A2673912    -             8408500169     
D41459190900MOHD AEINI BIN AMIN                                         A12676450   7000329     A12676450     1504000170     
D53651770400ROSLEEN BINTI ABDUL SAMAD                                   -           A2395707    -             9125500172     
D04754997010SYED NAJIB BIN SYED SALIM                                   -           A2393756    -             6079500174     
D47334910600HAMBALI BIN AREP @ ARIFF                                    -           A2188704    -             19507500178     
D01144976040NORIZAN BIN MOHAMAD                                         -           A2791823    -             4223500181     
D04737897020NORASHIKIN BINTI AHMAD                                      -           A3329982    -             2673000182     
D55675440110MAASPALIZA BINTI AZRI                                       -           A3678256    -             6635500184     
D00000000000NOOR IZWANNI BINTI AMIL                                     -           -           -             1467500186     
D10628000400AHMAD IDIL BIN ABDUL RAHMAN                                 -           A3199349    -             4007500187     
D13562510900WAHIDAH BINTI MD SHAH                                       -           -           -             4046000188     
D00000000000SAZELIN BINTI ARIF                                          -           A3273738    -             8371500190     
D05538559010ZIKRI ABADI BIN BAHARUDIN                                   -           A2884999    -             7144500191     
D01669310500MUHAMMAD ZAHIR BIN HASSAN                                   A19371030   A3722255    A19371030     247500192     
D05977020000MOHD LUQMAN BIN MOHD JAMIL                                  -           A3588628    -             8347500193     
D07081020400IMRAN SYAKIR BIN MOHAMAD                                    -           A3362200    -             6329000194     
D04127193090ZARINA BINTI BAHARUDIN ZAMANI                               -           A2846111    -             5101500196     
D11356240030SOO YEW GUAN                                                -           A3945176    -             11363500197     
D40814730410AZZILLA BINTI AHMAD                                         -           A1604465    -             4220000198     
D13857140400FAUZIYAH BINTI SALEHUDDIN                                   P7444844    5800310     P7444844      8363500199     
D00000000000RASIDA BINTI ABU BAKAR                                      -           A3514057    -             1258000203     
D00000000000MUHAMMAD NAZAM B A. BAKAR                                   -           A3514678    -             510500204     
D00000000000MOHD KHAIRI BIN MOHAMED NOR                                 A13348933   A3674965    A13348933     6607500205     
D20361480510HAYANI BINTI ABU YAMIN                                      -           -           -             3642000206     
D00000000000MOHD HANAFI BIN HASSAN                                      -           -           -             520500207     
D33585080310HAZMILAH BINTI HASAN                                        -           A0875360    -             9559500209     
D07081030200NOOR AZILAH BINTI DRAMAN@MUDA                               -           A2467278    -             5583500210     
D55670010600ZAMANI BIN SALLEH                                           -           A3383696    -             958500211     
D10980190200RINA ARIANTY BINTI HASHIM                                   -           A3511743    -             1092000212     
D00000000000RAPIZA BINTI ISHAK                                          -           -           -             758500213     
D07997880800ERDALIA ERNA BINTI DAUD                                     -           A3913725    -             985500216     
D11908530100SHARIFAH NURUL FARIDAH BT SYED ABU BAKAR                    -           A3487843    -             6836500219     
D00000000000NOORAZILAH BINTI MOHAMED                                    -           -           -             4817000220     
D00000000000ARMAN BIN MOHAMMAD                                          -           -           -             2207000225     
D13561320600KASRUL BIN ABDUL KARIM                                      -           -           -             8240000227     
D00124600900NORAZLIN BINTI MOHAMMED                                     -           -           -             3087000228     
D00000000000RAZALI BIN YAAKOB                                           -           -           -             1274500229     
D06224410900ZAINUDIN BIN SALLEH                                         -           -           -             3910500234     
D00000000000NORHAIROL BIN KHALID                                        -           -           -             79500235     
D19683250500MAZNE BINTI JA'AFFAR                                        -           A2312622    -             2838500241     
D01275750900HAZRIL BIN ABDUL WAHAB                                      -           -           -             3254000244     
D35866330000MOHAMED SUHAIMI BIN ABDULLAH                                -           A0284747    -             4628000245     
D00000000000AMIR SYARIFUDDIN BIN KASIM                                  A 12056812  A3867080    A 12056812    3087000248     
D18879730300SAIFULLAH BIN SALAM                                         -           -           -             3327000250     
D00000000000SABRINA BINTI HJ SALEH                                      -           -           -             801500254     
D11017736030AZLINDA BINTI MOHD YUNUS                                    A13155599   A3367928    A13155599     1480000257     
D13642131000MOHD NIZAM BIN PAVEL                                        -           A2651151    -             8580000258     
D00000000000HAFZAN BINTI ARIFFIN                                        -           A3033077    -             5015000259     
D11356229020MUHAMMAD FAHMI BIN MISKON                                   -           -           -             8223500260     
D10302370010NIZA BINTI MOHD IDRIS                                       -           A3638369    -             5351500261     
D10425806030DEENOO AIZAD ABADI BIN MD. NOH                              A12678290   A2318800    A12678290     1881000262     
D06802860000MOHD AZMI BIN MAT SAID                                      -           A2969364    -             7904500263     
D00000000000AZLINA BINTI AMZAH                                          -           A2676008    -             1522500264     
D42384430500ZULHAIRI BIN OTHMAN                                         -           A1409017    -             8091500266     
D00000000000MOHD HISYAM BIN IBRAHIM                                     A13824189   -           A13824189     1094500268     
D06463024020KHAIRULNIZAM BIN A. RAHMAN                                  -           A3591637    -             901500269     
D11160230300HAIRULISAM BIN MD DOM                                       -           A3257026    -             1098500270     
D00000000000RAZMI BIN A RAZAK                                           -           -           -             114000271     
D10817644040MOHAMAD NIZAM BIN AYOF                                      -           A3312946    -             6447500272     
D15180490600IDAMURNI BINTI ISMAIL                                       -           A3852209    -             4233000273     
D01306039020MOHD SHAMSURI BIN MD SAAD                                   -           A2755293    -             3770500275     
D04923100500MOHD KAMAL TARMIZI BIN RAZAK                                -           A3872331    -             44500276     
D10738199000ANIS SUHAILA BINTI MOHD ZAIN                                -           -           -             7408500279     
D08496410410NURUL AKMAR BINTI EMRAN                                     -           -           -             2929500282     
D07598790510SYAHIRA BINTI MOHD ADNAN                                    -           A3514153    -             1789000283     
D00000000000NORIZA BINTI MAT ISA @ AHMAD                                -           A3546376    -             152000284     
D10548359010NORAIN BINTI ISMAIL                                         12054187    A3133707    12054187      1815500287     
D00000000000NORLELA BINTI ROSNAN                                        -           A3644561    -             1212000288     
D11411936080ZAHRIAH BINTI OTHMAN                                        -           -           -             6302000290     
D20319170900ZULKIFLEE BIN MUSLIM                                        -           -           -             5295000291     
D42115950700FAIZAL BIN KAMIDI                                           -           A2246730    -             2051000293     
D40683660400MOHD SA'ARI BIN MOHAMAD ISA                                 -           A0726046    -             9143500294     
D00000000000NUR IZAN SYAHRIAH BINTI HUSSEIN                             -           A3777122    -             10003500296     
D10997532040YUSMARNITA BINTI YUSOP                                      -           -           -             6791500297     
D00001397530ZAINAL BIN  HJ.MAHDI                                        -           A0990829    -             1497500299     
D05530560700AINUDDIN BIN ABU KASIM                                      A1315178    -           A1315178      6757500301     
D40132190600AZMI BIN AWANG MD ISA                                       A25648762   A2826968    A25648762     8203500304     
D11024057100NURULFAJAR BIN ABD MANAP                                    -           -           -             8251500306     
D10007030400AZRITA BINTI ALIAS                                          -           A3932724    -             6291500307     
D00000000000AHMAD ANAS BIN YUSOF                                        -           A3784985    -             8926000308     
D04026684020ZAHRILADHA BIN ZAKARIA                                      -           A3149314    -             30027500309     
D10991316070MD FAHMI BIN ABD SAMAD @ MAHMOOD                            -           A3773776    -             9779500312     
D01155127050SARMAN BIN BASRI                                            -           A3297984    -             925500314     
D05461412000FAUZI BIN HJ ABDUL WAHAB                                    -           A1452201    -             5679500315     
D04004367030MOHD BASRI BIN ALI                                          -           A1456871    -             9829500316     
D46195440000MOHD RIZAL BIN SALLEH                                       -           A0874280    -             26891500318     
D01152968070RUZTAMREEN BIN JENAL                                        -           A2651798    -             7578000319     
D00000000000MOHD NAZIM BIN ABDUL RAHMAN                                 -           A3394130    -             2873500320     
D36265430810NOORNAHAR BINTI AKASHAH                                     -           A0876665    -             6327500321     
D61467360700MASJURI BIN MUSA @ OTHMAN                                   -           A2968032    -             8915500322     
D00000000000AUZANI BIN JIDIN                                            -           -           -             3708000324     
D20579990500AHMAD ZAKI BIN SHUKOR                                       A11758113   -           A11758113     9215500327     
D00000000000SHARIMAN BIN ABDULLAH                                       -           A3162459    -             5279000328     
D19781110500SANI IRWAN BIN SALIM                                        A12429424   -           A12429424     10331500329     
D11744996020FARIZ BIN ALI @ IBRAHIM                                     -           -           -             7266500331     
D01667960700NORHASHIMAH BINTI MOHD SAAD                                 -           -           -             6745000332     
D00414580500SURYANI BINTI MOHD                                          -           A2337667    -             1817500333     
D11649130700AIDA FAZLIANA BINTI ABDUL KADIR                             -           -           -             6455500334     
D11731500800ZOLKARNAIN BIN MARJOM                                       -           A1979453    -             7546000335     
D04674117080SHEKH FAISAL BIN ABDUL LATIP                                -           A2414525    -             6116300336     
D01326801050MD HAIRUL NIZAM BIN TALIB                                   A 12427974  A3314799    A 12427974    8791500337     
D10560844000WAHIDAH BINTI ABD HALIM                                     -           A3779736    -             3906500338     
D16262500810SITI KHADIJAH BINTI IDRIS @ OTHMAN                          -           A3560339    -             9411500339     
D04702178000ZULKIFLI BIN SHARIFF                                        -           A2299474    -             6045500341     
D50239430000ZANARIAH BINTI JANO                                         -           A0942629    -             9523500344     
D00000000000ABDUL RAHIM BIN ABDULLAH                                    -           -           -             6855500345     
D00000000000FAZLLI BIN PATKAR                                           -           -           -             3018500346     
D00000000000CHOO YUN HUOY                                               -           A3515100    -             14243500347     
D00000000000FAZROL BIN OTHMAN                                           -           -           -             90500352     
D54086660310NOR FAZILAH BINTI ABDUL HAMID                               -           A3332577    -             8579500355     
D00000000000SUHADAWATI BINTI AHMAD                                      -           -           -             1608500361     
D13367580700HANIZA BINTI NAHAR                                          -           A3781204    -             5295000362     
D00000000000SHARIFAH AZIMAH BINTI SYED AZIZ                             -           -           -             43000363     
D19778610000HAZURA BINTI HAROON                                         -           -           -             7709000364     
D40075340600ZAMBERI BIN JAMALUDIN                                       -           A2260185    -             19587500365     
D10661967050ANIDAH BINTI ROBANI                                         -           A2845071    -             10271500366     
D10841232060KHOO CHIN FOON                                              -           A3534793    -             8474500368     
D11394737020MOHD SHAHRIL IZUAN BIN MOHD ZIN                             -           -           -             6365000369     
D32801221000SUHAIMI BIN BASRAH                                          -           A1206012    -             2485000373     
D06488760900ROZINAH BINTI YAKOP                                         -           A3512759    -             4649000374     
D55342490300AZAH KAMILAH BINTI DRAMAN @ MUDA                            -           A2960147    -             18115500375     
D01275760700NOR HAZLEN NIZA BINTI HUSSEIN                               -           A3051483    -             5604500377     
D03628108050HAMZAH BIN MOHD DOM                                         -           A1518676    -             5573000379     
D65929450400RADZUAN BIN NORDIN                                          -           A1531267    -             8436000380     
D10741859020MOHD HAIZAL BIN MOHD HUSIN                                  -           A3343582    -             5229500382     
D09912890600ALI HAFIZAR BIN MOHAMMAD RAWI                               -           A3172070    -             5363000383     
D01275770500NORIHAN BINTI ABU NAWAR                                     -           -           -             764000385     
D04758491000ERNIE BINTI MAT TOKIT                                       -           A3780867    -             2524500386     
D30422020710SURAYA BINTI AHMAD                                          -           A0128025    -             11367500387     
D00000000000ZAIRULAZHA BIN ZAINAL                                       A20529967   A3749843    A20529967     4687000395     
D03649762020SAHAR BIN SALEHAN                                           -           A0750550    -             1684500398     
D11049452000SABRINA BINTI AHMAD                                         -           -           -             2947500402     
D00000000000NURHAFIDZ BIN ABDUL SAHAK                                   -           A2735388    -             4433000405     
D00000000000REDZUAN BIN ABDUL MANAP                                     -           -           -             7871500406     
D06093929100ABD RAHMAN BIN DULLAH                                       A11908949   A2255755    A11908949     9859500407     
D11736015050TEE BOON TUAN                                               -           -           -             10183500408     
D05470462060RAZILAH BINTI ABDUL RAHIM                                   A1802610    3971102     A1802610      5580000412     
D04603388020LINDA KHOO MEI SUI                                          -           A2845232    -             8460500413     
D10311877020TEH ZANARIAH BINTI MOHD RAUS                                A14011847   A3678402    A14011847     5383500414     
D00000000000NORASHIKIN BINTI AHMAD SABRAN                               -           -           -             758500418     
D06461446080SUHAIMI BIN MISHA                                           -           A3843541    -             7187500420     
D20375930110MARLIZA BINTI RAMLY                                         -           A3514090    -             1709500448     
D41169610100PUVANASVARAN A/L A. PERUMAL                                 -           A1667621    -             23467500450     
D00000000000CHENG SEE YUAN                                              -           A2594364    -             10167500453     
D46176400300MOHD ARIFF BIN MAT HANAFIAH                                 A5527843    A7406846    A5527843      11895500454     
D01337823060ASRI BIN DIN                                                -           A3678205    -             6756000456     
D00000000000AZURAH BINTI AHMAD                                          -           -           -             610500460     
D11894580070NOR MAS AINA BINTI MD. BOHARI                               -           -           -             3030000462     
D45571450700SHAHRIN BIN SAHIB @ SAHIBUDDIN                              -           A1022875    -             53245500463     
D05461412000ZARITA BINTI MOHD KOSNIN                                    -           A1284850    -             7233500464     
D19216670100INTAN ERMAHANI BINTI A. JALIL                               -           -           -             2520000465     
D19854470300MOHAMMAD RADZI BIN MOTSIDI                                  A13348410   -           A13348410     9439500466     
D37317180010FAUZIAH BINTI KASMIN                                        -           A2843469    -             9815500467     
D00201800800AMMAR BIN ABD RAHMAN                                        -           -           -             4229000468     
D09193390300SALEHA BINTI MOHAMAD SALEH                                  -           A3156082    -             4357000471     
D00000000000SITI AZIRAH BINTI ASMAI                                     -           A3816987    -             7486700472     
D11024037050ALBERT FEISAL @ MUHD FEISAL BIN ISMAIL                      A 12183727  A2701418    A 12183727    4754500474     
D04176439000FAAIZAH BINTI SHAHBODIN                                     -           A1713047    -             35131500477     
D03650353030MD NAZRI BIN OTHMAN                                         A13823458   A1116951    A13823458     11423500479     
D00000000000HO YIH HWA                                                  -           A3399038    -             9659500480     
D24607760600ABDUL RAHMAN ROSLI BIN MAHMOOD                              -           A2888049    -             600000483     
D20334000300ZERATUL IZZAH BINTI MOHD YUSOH                              A13345201   -           A13345201     8203500485     
D04719761070MASLAN BIN ZAINON                                           A13714515   A2505310    A13714515     6687500486     
D11448080500MOHD HAFIZ BIN ZAKARIA                                      -           -           -             6453500487     
D66040440210ERNAWATIE BINTI MD SAH                                      -           A3046031    -             1392500488     
D00000000000MUHAMAD SOPIAN BIN BAHAROM                                  -           A3822752    -             3949000489     
D00613630400RAFIDAH BINTI MD. DUSA                                      -           A3509231    -             3392500490     
D00000000000AHMAD AIZAN BIN ZULKEFLE                                    A13823593   -           A13823593     4316000491     
D00000000000MURNI BINTI ABU                                             -           A3154321    -             3159000494     
D00000000000RAZALI BIN KASIM                                            -           -           -             764000496     
D00000000000MAHATHIR MOHD BIN HABIB MOHAMED                             -           -           -             685500497     
D00000000000SITI NORANI BINTI DOLAH                                     -           A2489984    -             7480500498     
D06592420070MASDZARIF BIN MAHAT                                         -           A0838720    -             27007500499     
D01112080600RAFIZAH BINTI HJ MAHFOZ                                     -           -           -             2424500501     
D10581560300ROSZAIDI BIN RAMLAN                                         -           -           -             9617500507     
D00296010900ABD MAJID BIN DARSONO                                       -           -           -             9045000508     
D00000000000MOHD RADZIF BIN ABD HAMID                                   -           -           -             3625500514     
D00000000000NORZALINA BINTI ANUAR                                       -           -           -             152000521     
D10091740600MAHADIR BIN CHE ALI                                         -           A3913727    -             2330500530     
D00000000000AHAMAD FUAD BIN JAAPAR                                      A13345940   -           A13345940     84500533     
D00000000000FAUZIAH BINTI HASSAN                                        -           A3088058    -             3030500536     
D00000000000ZURAIDAH BINTI ABDULLAH                                     -           -           -             122500537     
D00000000000MOHD RIZAL BIN ROOSLI                                       -           -           -             914500540     
D20361480500MD FAUZA BIN NAHRAWI                                        -           A2892372    -             333500541     
D14266350200AZLINA BINTI AZHARI                                         -           -           -             5055500543     
D00000000000KHAIRI AMRI BIN MOHAMAD                                     A10456969   -           A10456969     2755500544     
D00104296780JOHARDI BIN ABDUL JABAR                                     -           -           -             817000548     
D11909000900ABDUL HALIM BIN MOHAMAD NOH                                 -           A2939231    -             1173500549     
D01275780300RAINAH BINTI ISMAIL                                         -           -           -             5155500552     
D00000000000MOHD NIZAM BIN SAID                                         -           -           -             657500553     
D00000000000AZHAR BIN MOHAMED                                           -           A2968953    -             27827500564     
D65976390800ABD AZIZ BIN MUSTAPA                                        -           A1409662    -             4609000565     
D00000000000MAHADI BIN ABU HASSAN                                       -           A2490446    -             5401000568     
D00000000000KAMISAH BINTI JALIL                                         -           -           -             538500576     
D00000000000ZURAIDA BINTI MOHAMED TAIB                                  -           A0925042    -             281500577     
D54933910900KHALID BIN PANDI @ SELAMAT                                  -           A2211519    -             934500578     
D00000000000AZHAR SHAH BIN ABU HASSAN                                   -           -           -             844500579     
D65910030600MAHADI BIN SALLEH                                           -           A2229644    -             774500580     
D55117260000ZULKIFLI BIN MOHD ROSLI                                     -           A2068214    -             5683500585     
D00000000000NURHAYATI BINTI MOHD SHARIFF                                -           -           -             62500590     
D00000000000HAZLEEN BINTI HJ. KAHARUDIN                                 -           A2020427    -             152500592     
D01275790100RAFIDAH BINTI KASIM                                         -           -           -             2342500593     
D06598589030SUBKI BIN MAT KAHAR                                         A14123459   A2491429    A14123459     1085500594     
D21788520200NORAZLIYATI BINTI MOHD ISA                                  A13950071   -           A13950071     556500596     
D00000000000HAIRUL NIZAM BIN DAUD                                       A3094714    A3094714    A3094714      888000603     
D04068854020RAPIDAH BINTI MAZLAN                                        -           A1666294    -             885000608     
D65960560400RIDZUAN BIN AHMAD                                           -           72011104    -             65500609     
D13501570700MOHD RAYME BIN ANANG MASURI                                 -           A3770753    -             8323500611     
D00000000000MOHD SYAKRANI BIN AKHBAR                                    -           -           -             147000612     
D03760481030ABDUL HALIM BIN DAHALAN                                     -           A1318473    -             7669500614     
D01275800500MASRULLIZAM BIN MAT IBRAHIM                                 -           -           -             7887500615     
D41714120100SIVARAO A/L SUBRAMONIAN                                     -           A1082136    -             26571500617     
D16931991000NORHAFIZAH BINTI MD YUSOH                                   -           -           -             3019000618     
D65960950500HAMBALI BIN BOEJANG                                         -           A1301770    -             5820000621     
D01275810300MOHD HANAPIAH BIN MD LIP                                    -           A2970419    -             3726000625     
D00000000000SITI SALWAH BINTI AHMAD                                     -           A2505725    -             2352500626     
D04731280100ELIA ERWANI BINTI HASSAN                                    -           A3272703    -             7723000628     
D06176437100NAZRULAZHAR BIN BAHAMAN                                     -           A2870272    -             8303500629     
D00000000000SAHRIL BIN BAHAR                                            A14123467   -           A14123467     107000632     
D11447630100ABD SAMAD BIN HASAN BASARI                                  -           A3096400    -             363500633     
D21721160700ZURINA BINTI SA'AYA                                         -           -           -             7627500634     
D20340390900HANIM BINTI ABDUL RAZAK                                     -           -           -             6190500635     
D10818518040KOK SWEE LEONG                                              -           K0494577    -             12723500636     
D10395143010NOREFFENDY BIN TAMALDIN                                     -           A2963214    -             14547500638     
D00000000000NURAISAH BINTI ABDUL WAHAB                                  -           -           -             498500639     
D00000000000NORASWALIZA BINTI ABDULLAH                                  -           A3075155    -             7411500640     
D55117260010JARIAH BINTI MOHAMAD JUOI                                   -           A2849641    -             4431500641     
D00000000000NOR AZMMI BIN MASRIPAN                                      -           A2828757    -             6715500642     
D00000000000ROSMIZA WAHIDA BINTI ABDULLAH                               -           -           -             2139500643     
D00000000000MOHD FAIRUZ ISKANDAR BIN OTHMAN                             -           -           -             5727500644     
D02772050500MOHD AZLISHAH BIN OTHMAN                                    -           -           -             8005500645     
D54855251000ASMALA BIN AHMAD                                            -           A1827608    -             6631500648     
D36285670600MISDOM BIN LAN                                              -           A0181723    -             8247000650     
D00000000000NOR ATEKAH BINTI OMAR @ MAHMUD                              -           A3332195    -             2442000653     
D22724320100SURIATI BINTI AKMAL                                         -           -           -             8531500655     
D11144772000AHMAD NAIM BIN CHE PEE @ CHE HANAPI                         -           -           -             8670500656     
D11649930500MOHD HENDRA BIN HAIRI                                       A11759206   -           A11759206     7691500658     
D00000000000AZLY HISHAM BIN HARON                                       -           A3381065    -             1364000659     
D10778464050ANITA AKMAR BINTI KAMAROLZAMAN                              -           A3191797    -             7218000660     
D00000000000FARID ARAFAT BIN AZIDIN                                     -           A1803146    -             6657500661     
D00000000000NUR AINI HAYATI BINTI HUSIN                                 -           -           -             455500664     
D14266130100NOR AKRAMIN BIN MOHAMAD                                     -           -           -             2691500667     
D00000000000JUNAIDAH BINTI KASIM                                        -           A3782256    -             2789000668     
D12319350100ZAHARIAH BINTI MANAP                                        -           A3572003    -             7911500669     
D00000000000RUMAIYAH BINTI SAAD                                         -           -           -             13000672     
D04234343070FAISAL BIN MOHD ISA                                         -           A0646141    -             794500673     
D20675270700AZRUL AZWAN BIN ABDUL RAHMAN                                -           -           -             6155500677     
D41425261000ABD HALIM HAKIM BIN ABD AZIZ                                -           A1175427    -             7218000679     
D03265054100OTHMAN BIN MOHD                                             -           A0407369    -             8031500681     
D46595661000YAHAYA BIN ABD RAHIM                                        -           A1583153    -             5659700682     
D00000000000NORHIDA BINTI MD. SAID                                      0           A2014444    0             57000684     
D00000000000KAMARUL ARIFFIN BIN ZAKARIA                                 -           A2702440    -             7811500692     
D13059310900HANISSAH BINTI MOHAMAD @ SULAIMAN                           -           A2920551    -             4454500693     
D00000000000LAU KOK TEE                                                 -           A3184260    -             10683500694     
D00000000000NORLIAH BINTI KUDUS                                         -           A2416382    -             6255500716     
D03571195070MOHD KHANAPI BIN ABD GHANI                                  -           A0332322    -             38423500717     
D00000000000AHMAD FAIZAL BIN ABDUL RAHMAN                               -           A3678084    -             2274000729     
D00000000000MOHD NAWAWI BIN MUHAMAD                                     -           A2905814    -             1562500732     
D32624650400OMAR BIN BAPOKUTTY                                          -           7112602     -             6945000734     
D04351970710NURAZUA BINTI MOHD. YUSOP                                   A14122731   A3456635    A14122731     4108500737     
D00000000000MASWATEE BINTI ABDUL GAFFAR                                 -           -           -             53500738     
D00000000000NUR HAKIMAH BINTI AB AZIZ                                   -           -           -             2564500741     
D12704480400NOR SALIM BIN MUHAMMAD                                      -           A3318775    -             8187500744     
D10552619030SULAIMAN BIN SABIKAN                                        -           A3436285    -             5723500750     
D09564930600FAIZ REDZA BIN RAMLI                                        -           -           -             11019500751     
D13465330300SHAJAHAN BIN MAIDIN                                         -           A2230237    -             13427500752     
D18879740100NOR-ALIZA BINTI IBRAHIM                                     -           -           -             2299000757     
D00153330100HIDAYAT BIN ZAINUDDIN                                       -           -           -             4635500758     
D00000000000HAIRONI BIN FADZILAH                                        -           -           -             608000760     
D00000000000MUHAMMAD HERMAN BIN JAMALUDDIN                              -           -           -             4438000762     
D32915360510ROBIAH BINTI YUSOF                                          -           A1046380    -             8087500763     
D00000000000MOHD AZMAN BIN ABDULLAH                                     A30852907   -           A30852907     7079500764     
D12704410700MOHD SANUSI BIN AZMI                                        -           -           -             10519500765     
D60320110700ZULISMAN BIN MAKSOM                                         -           A2097168    -             13047500766     
D46090510710SERI RAHAYU BINTI KAMAT                                     -           A1702176    -             11235500767     
D00000000000MOHD RIZAL BIN ALKAHARI                                     -           A3363348    -             9163500768     
D05081047020MOHD JUZAILA BIN ABD. LATIF                                 -           A2578644    -             11251500769     
D00000000000SYARIFFANOR BINTI HISHAM                                    -           -           -             6483500770     
D10390846030NURUL AZMA BINTI ZAKARIA                                    -           A3367697    -             6442500771     
D00000000000SHAHRUDIN BIN ZAKARIA                                       -           A1625288    -             5506500772     
D00000000000SIVAKUMAR A/L DHAR MALINGAM                                 -           A2371646    -             11011500774     
D00000000000ROHAYATI BINTI ABDULLAH                                     -           A3786129    -             392000775     
D04722618080FAIRUL AZNI BIN JAFAR                                       -           A2205102    -             3287500781     
D10765161000MOHD ZAKARIA BIN MOHAMMAD NASIR                             18090124    A3963649    18090124      6328000786     
D15670490100ZAKIAH BINTI ABD HALIM                                      A13822930   -           A13822930     4714500788     
D11751000400ELFA LAILY BINTI MOHD TAHIR@MOHD RAMLI                      -           A3735493    -             468500791     
D00591140200NUR AIDAWATY BINTI RAFAN                                    -           -           -             8061500793     
D06646050200AMAT AMIR BIN BASARI                                        -           3735262     -             4796000794     
D03491981030ZAMRE BIN ABD GHANI                                         -           7324649     -             11691500795     
D11064234010LEE MEI PH'NG                                               -           A2785521    -             9055500796     
D08848040300AMIR BIN ALI                                                -           0811920     -             845500797     
D11385742100NORTAZI BINTI SANUSI                                        -           A3521503    -             6751500798     
D11835680200MAZRAN BIN ESRO                                             -           3519840     -             7091500802     
D00000000000MASURIYA HANI BINTI AB. WAHID                               -           -           -             128500803     
D06598778000AHMAD RIDZWAN BIN MOHD NOOR                                 -           A2416191    -             6619500804     
D00000000000NORAINI BINTI HUSIN                                         -           A3608401    -             3077500807     
D00000000000NIK RAHILA BINTI WAN IBRAHIM                                -           A2680573    -             8979500810     
D11850460900NORUN NAJJAH BINTI AHMAT                                    A 2613475   2240130     A 2613475     7417500811     
D00000000000NOR AZILAH BINTI AHMAD                                      -           3039877     -             4969500812     
D00000000000TINTA FIRMANNIKA BIN SELAMAT                                -           -           -             2122500813     
D00000000000CHEW BOON CHEONG                                            -           A3701225    -             9034500819     
D00000000000NOORLIZAWATI BINTI KAMIS                                    -           -           -             202500821     
D00000000000MOHD AMRAN BIN MD ALI                                       A25859819   A0981386    A25859819     9651500822     
D00000000000NORAZLINDA BINTI IBRAHIM                                    -           -           -             18500823     
D00000000000NORLEEN BINTI AZAM                                          -           -           -             1355000824     
D00352230700ALIZA BINTI CHE AMRAN                                       -           -           -             10331500834     
D00000000000AHMAD ZAKI BIN ABDULLAH                                     -           -           -             75500837     
D00000000000ADAWIYAH BINTI MD JANI                                      -           -           -             1238500838     
D00000000000NUR SYAHIDA BINTI YAHYA                                     -           -           -             139500839     
D00000000000RUZIAH BINTI ALI                                            -           -           -             2901000841     
D00000000000MOHAMAD FUAD BIN JA'AFAR                                    -           -           -             888000848     
D00000000000MOHD ARIF BIN MOHD NOR                                      -           -           -             705500857     
D45060650700MOHAMAD YUSOF BIN MOHAMAD DAN                               -           A0518510    -             3728500858     
D00000000000MOHD RIDZUAN BIN ROZALI                                     -           -           -             133500859     
D00000000000MOHD FAIRUS BIN NINGGAL                                     -           -           -             12000861     
D00000000000HANISAH BINTI HAMDZAH                                       -           -           -             2424000863     
D05704550500ADIE BIN MOHD KHAFE                                         A12426257   A3780920    A12426257     4802500870     
D24836481000JUNAIDI BIN SALAM                                           -           A3531936    -             152000876     
D60970490900RAZAMAN BIN KASSIM                                          -           A1813469    -             1440000879     
D20985930600NORALIZA BINTI YUSOF                                        -           -           -             1799000880     
D22979800100MOHD SYAKIR BIN MOHTARUDIN                                  -           -           -             824000883     
D00000000000NIZAMUL IKBAL BIN KHAERUDDIN                                -           -           -             139500885     
D11796481060AHMAD KAMAL BIN MAT YAMIN                                   -           -           -             7907500886     
D11641386070MUHAMAD KHAIRI BIN ARIPIN                                   -           A3167470    -             6146000887     
D05008655030MAZURA BINTI MUSTAFA                                        -           A1125901    -             914500891     
D00000000000NORALISA BINTI RAMLEE                                       -           -           -             660000894     
D50266820910SHARIFAH SAKINAH BINTI SYED AHMAD                           -           -           -             8061500896     
D13374900710FARAH NADIA BINTI AZMAN                                     -           -           -             4618000909     
D00000000000MOHD FAIRUZ BIN TAIB                                        -           -           -             1436000913     
D16321720500MOHAMMAD HADZRI BIN AHMAD                                   -           -           -             1688500914     
D22775240600SYAMSUL IQBAL BIN HJ. MOHD AKIN                             -           A3512920    -             2771500917     
D44098250110ROZANA BINTI ABU BAKAR                                      -           A2003089    -             1132500926     
D00000000000ROHAILI BIN RAMLI                                           -           A2686668    -             71000929     
D02772060300FAIZUL AKMAR BIN ABDUL KADIR                                -           -           -             7844500933     
D00000000000ALIAS BIN KHAMIS                                            A19498655   -           A19498655     4496500934     
D00000000000AHMAD SADHIQIN BIN MOHD ISIRA                               -           A3754362    -             8278500935     
D00000000000MAD NASIR BIN NGADIMAN                                      -           -           -             534500939     
D04142937000AHMAD ZUBIR BIN JAMIL                                       -           A2379148    -             8136000941     
D00000000000NOR AZAH BINTI ABDUL AZIZ                                   -           A1704438    -             4282500943     
D21031130600MASSILA BINTI KAMALRUDIN                                    -           -           -             23699500944     
D11529918010HILMI BIN AMIRUDDIN                                         -           -           -             3724500945     
D00000000000AZIZI BIN OSMAN                                             -           A1574044    -             1437500946     
D00000000000SITI HAJAR BINTI SHEIKH MD FADZULLAH                        A11259848   -           A11259848     5266000948     
D14344970300MOHD SHAHRIEEL BIN MOHD ARAS                                -           -           -             7743500949     
D00063559950AZZIDDIN BIN MOHAMAD RAZALI                                 -           A2694380    -             8418500950     
D00000000000SYAMIMAH BINTI MOHAMAD HATA                                 -           -           -             1614100951     
D00000000000HISAMUDIN BIN KAMARUDIN                                     -           -           -             3471500954     
D00000000000RUZY HARYATI BINTI HAMBALI                                  A 13951799  -           A 13951799    5909000955     
D00000000000MOHD AMRI BIN SULAIMAN                                      -           -           -             8163500956     
D00000000000AZHAN BIN ABDUL RAUB                                        -           A2205825    -             286500959     
D04180642050MD NIZAM BIN ABD RAHMAN                                     -           A0716896    -             20087500960     
D14266080500NORASRA BINTI A.RAHMAN                                      -           -           -             6691500962     
D00000000000JASMADI BIN ISMAIL                                          -           A2881954    -             468000963     
D66007210600HANG JEBAT BIN ABDUL RAHMAN                                 -           A0135935    -             44500965     
D00000000000KAMARUDDIN BIN ABU BAKAR                                    -           A3383908    -             129500967     
D04127193090A.NASORUDDIN BIN MOHAMAD                                    -           A1892812    -             3723500968     
D00000000000ISMAIL BIN IBRAHIM                                          -           A3195212    -             5037500969     
D14520380000ZAWIAH BINTI MAT                                            -           A2657670    -             8747500970     
D00000000000HASLINDA BINTI MUSA                                         -           A3412670    -             8761500971     
D00000000000NORAINI BINTI BUANG                                         -           A3678865    -             2631500972     
D13025160310SITI ROHANA BINTI OMAR                                      -           A2732816    -             7803500973     
D03492451050SAFIAH BINTI SIDEK                                          -           7087290     -             13635500975     
D08929250600NOORAINI BINTI SULAIMAN                                     -           A2290849    -             6235000976     
D04047808040HALIZAH BINTI BASIRON                                       -           A1547752    -             8579500979     
D65928800610MARIATI BINTI YEM                                           -           A2048604    -             2384500980     
D64734930500MUHAMMAD HAZIQ LIM BIN ABDULLAH                             -           A3824028    -             6981500984     
D00000000000ZURAIDA BINTI ABAL ABAS                                     -           -           -             6987500989     
D00000000000NIK MOHD FARID BIN CHE ZAINAL ABIDIN                        -           A2473742    -             8026500991     
D17569970600NURIDAWATI BINTI MUSTAFA                                    -           -           -             2452500993     
D22724150100ZALEHA BINTI MUSTAFA                                        A 13825081  -           A 13825081    9715500994     
D36338650600MOHAMED AZMI BIN SAID                                       -           A0497681    -             13610500995     
D00000000000NORAZLINA BINTI ABD RAZAK                                   -           A2960560    -             9045000996     
D19745501010SAHAZATI BINTI MD. ROZALI                                   -           -           -             4015000997     
D19781110510SHARATUL IZAH BINTI SAMSUDIN                                -           -           -             7102500998     
D02662306040ABDUL RANI BIN OTHMAN                                       -           7450133     -             29112000999     
D04860030000NOORLI BINTI KHAMIS                                         -           A2338536    -             5743501000     
D14727500300MOHD SYAIFUL RIZAL BIN ABDUL HAMID                          -           A3945497    -             11923501004     
D00000000000TAY CHOO CHUAN                                              -           A0315311    -             12207501006     
D04824980000SITI NURHAIDA BINTI KHALIL                                  -           A3514443    -             8649501008     
D00000000000MOHD FIRDAUS BIN GHAZALI                                    -           -           -             67001010     
D11472749100MASHANUM BINTI OSMAN                                        -           A3631332    -             3574501012     
D15250740300MOHD SHAKIR BIN MD SAAT                                     -           -           -             8019501013     
D60851340110RAFIDAH BINTI HASAN                                         -           -           -             5855501014     
D11472748010IZADORA BINTI MUSTAFFA                                      -           A3588410    -             6670501015     
D04754363090ASLINDA BINTI HASSAN                                        -           A3478874    -             6769101016     
D53736910510SITI RAHAYU BINTI SELAMAT                                   -           A2687338    -             10087501017     
D00000000000FATIMAH AL-ZAHRAH BINTI MOHD SA'AT                          -           -           -             6005501019     
D00000000000NAZRI BIN MD DAUD                                           -           A3916107    -             4174501020     
D00000000000MOHD NIZAM BIN SUDIN                                        -           A2065634    -             7931501023     
D63959170800MOHD RUZI BIN HARUN                                         -           A2245083    -             5401501024     
D11262972050SAZALINSYAH BIN RAZALI                                      -           A3851681    -             6762501025     
D00000000000RAIHANA BINTI MD KASIM                                      -           -           -             1801001026     
D02772070100HYREIL ANUAR BIN KASDIRIN                                   A13336339   -           A13336339     2739501027     
D04692048100MOHD AHADLIN BIN MOHD DAUD                                  A12443282   7206620     A12443282     8399501028     
D00000000000BURHANUDDIN BIN MOHD ABOOBAIDER                             -           A1510240    -             5975501029     
D02772081000AZDIANA BINTI MD YUSOP                                      -           -           -             4021001035     
D53855260400MOHD FAIZAL BIN ABDOLLAH                                    -           A3329490    -             12559501036     
D11974550100MUHAMMAD NIZAM BIN KAMARUDIN                                A12797243   -           A12797243     5811501038     
D53855260400SOFFIAN BIN HASHIM                                          -           A2844158    -             921501039     
D00000000000JEEFFERIE BIN ABD RAZAK                                     A36864170   -           A36864170     5393001042     
D00000000000ZURAINI BINTI OTHMAN                                        -           -           -             8301501043     
D10957309090NOOR ASYIKIN BINTI SULAIMAN                                 -           -           -             4700501046     
D12542250500KHADIJAH BINTI WAN MOHD GHAZALI                             -           -           -             1844001048     
D10679765040MUHAMMAD SUHAIZAN BIN SULONG                                A12349670   -           A12349670     4887001051     
D10679774030AZLIANOR BINTI ABDUL AZIZ                                   -           -           -             4887001052     
D54875210810NOR HAFEIZAH BINTI HASSAN                                   -           A2492062    -             7898001054     
D00000000000SYAMIMI BINTI SHAMSUDDIN                                    -           -           -             5495501056     
D01275820100AINAIN NUR BINTI HANAFI                                     -           -           -             6915501058     
D36557260900AHMAD FAIRUZ BIN MUHAMMAD AMIN                              -           7423591     -             4553501062     
D00000000000MOHD FARRIZ BIN HJ MD BASAR                                 -           -           -             4931501070     
D11067115050EFFENDI BIN MOHAMAD                                         -           -           -             13263501071     
D00000000000WAN HASRULNIZZAM BIN WAN MAHMOOD                            -           -           -             1198501073     
D01265122020MOHD IRMAN BIN RAMLI                                        -           A2414490    -             7329501075     
D50295480900NOR ANIDAH BINTI AB KARIM                                   -           A2218799    -             2302501077     
D04614841080SHAMSUL BAHARI BIN AZRAAI                                   A17708590   A1436617    A17708590     7653001078     
D00000000000NORAIHAM BINTI MOHAMAD                                      -           -           -             10047501079     
D00000000000MOHD HATTA BIN JOPRI                                        -           -           -             3626001080     
D16437730100MOHD HADZLEY BIN ABU BAKAR                                  -           -           -             10355501082     
D00379480800INTAN SHARHIDA BINTI OTHMAN                                 -           -           -             6759501083     
D00000000000AMINURRASHID BIN NOORDIN                                    -           -           -             5074501084     
D11806822090MARIAM BINTI MD GHAZALY                                     -           -           -             10515501086     
D12048351030JUHAINI BINTI JABAR                                         -           -           -             9603501087     
D01669330100ABD SHUKUR BIN JA'AFAR                                      -           -           -             9591501088     
D00000000000HAZLI RAFIS BIN ABDUL RAHIM                                 -           -           -             4896501090     
D00000000000KHAIRUDDIN BIN OSMAN                                        -           -           -             2865001091     
D11629894040SAIFULZA BIN ALWI @ SUHAIMI                                 A7541979    A3544721    A7541979      6159401093     
D00000000000FAIRUL AZHAR BIN ABDUL SHUKOR                               -           -           -             7835001094     
D01669341000MOHD ZULKIFLI BIN RAMLI                                     -           -           -             7774501095     
D04153769060MUSTHAFAH BIN MOHD TAHIR                                    -           A0812453    -             8515501096     
D00000000000MUHD RIDZUAN BIN MANSOR                                     -           -           -             6981501097     
D00000000000JUNAINAH BINTI SARDI                                        -           -           -             3573001098     
D00000000000AZAHARI BIN SALLEH                                          -           -           -             8355501099     
D51777590200MOHD RAZALI BIN MOHAMAD SAPIEE                              -           A3130469    -             4161501101     
D17841940300MOHD FADZLI BIN ABDOLLAH                                    -           -           -             10323501102     
D10425806030MARIAM MIRI BINTI ABDULLAH                                  -           K0354067    -             3500001103     
D11686851010ZAITON BINTI ABDUL MUTALIP                                  A1160734    A3936660    A1160734      4762001104     
D14347510400ADZNI BIN MD. SAAD                                          -           -           -             1248001108     
D00000000000MOHD ZAID BIN AKOP                                          -           -           -             5142001110     
D54875210800AZMAN BIN AWANG TEH                                         -           A2251831    -             4137001111     
D00000000000MOHAMAD FIRDAUS BIN SUKRI                                   -           -           -             3105501112     
D00000000000FAIZIL BIN WASBARI                                          -           -           -             5557501113     
D06194697040NURFAIZEY BIN ABDUL HAMID                                   A12675856   A2687388    A12675856     9839501114     
D00000000000SHAFIZAL BIN MAT                                            -           -           -             3257501115     
D00000000000SABRI BIN MOHAMAD SHARIF                                    -           A2869334    -             8763501116     
D00000000000MOHAMAD HAIDIR BIN MASLAN                                   -           -           -             6836501117     
D00000000000MOHAMAD RIDZUAN BIN JAMLI                                   -           -           -             6654501118     
D00000000000JUWITA BINTI MOHD SULTAN                                    -           -           -             4541501119     
D12223332080IMRAN BIN MOHD IBRAHIM                                      A12064761   A3363592    A12064761     6993501120     
D01669350800MOHAMAD ZOINOL ABIDIN BIN ABD. AZIZ                         -           -           -             11271501121     
D09144211000MUHAMMAD HAFIDZ FAZLI BIN MD FAUADI                         -           -           -             9879501122     
D00000000000LOKMAN BIN ABDULLAH                                         A24563960   -           A24563960     5592001123     
D00000000000ZURINA BINTI SHAMSUDIN                                      -           -           -             5505501124     
D05538537000NORIHAN BINTI ABDUL HAMID                                   -           A2695162    -             7040501125     
D05538537000MAZREE BIN IBRAHIM                                          -           A3017535    -             3635001126     
D00000000000ROSTAM AFFENDI BIN HAMZAH                                   -           -           -             5251001128     
D11674627000MOHD AFZANIZAM BIN MOHD ROSLI                               -           -           -             9095501129     
D10602126050NOOR MASLIAN BINTI OTHMAN @ ABDUL HALIP                     -           A3153785    -             2888001131     
D54848250300ISMAIL BIN ABU SHAH                                         -           A2218114    -             3997501132     
D00000000000ISA BIN HALIM                                               -           -           -             8187501134     
D11441151040MOHAMMAD KAMIL BIN SUED                                     -           -           -             4752801135     
D37140920210SAZILAH BINTI SALAM                                         -           -           -             17313501137     
D00000000000ANIS NIZA BINTI RAMANI                                      -           -           -             1471501138     
D10927070900MOHD HARY BIN UJANG                                         -           -           -             1284001139     
D02772090800AHMAD NIZAM BIN MOHD JAHARI @ MOHD JOHARI                   -           -           -             4138001140     
D00407530800AZRINA BINTI OTHMAN                                         A18086312   -           A18086312     2712501141     
D12266820000KYAIRUL AZMI BIN BAHARIN                                    -           -           -             3664001142     
D00000000000SYAFEEZA BINTI AHMAD RADZI                                  -           -           -             5142001145     
D00000000000AHMAD FUAD BIN AB GHANI                                     A13470030   -           A13470030     3598001146     
D00000000000MAHANUM BINTI MOHD ZAMBERI                                  -           -           -             5836001147     
D00000000000SITINOR WARDATULAINA BINTI MOHD YUSOF                       A11715916   -           A11715916     6892501148     
D04274641080ROHANA BINTI ABDULLAH                                       A13921247   A1948352    A13921247     4646001149     
D00000000000MOHD HANIF BIN HARUN                                        -           -           -             3392501152     
D00000000000MOHD RODY BIN MOHAMAD ZIN                                   -           -           -             3703001153     
D06164335010MOHD EDEEROZEY BIN ABD MANAF                                -           A2624404    -             5527501154     
D02772100100RAJA IZAMSHAH BIN RAJA ABDULLAH                             A13893462   -           A13893462     5877001156     
D65976730810NOOR RAFFIDAH BINTI HARON                                   -           A2384142    -             14575501158     
D02700811000NORAZLIN BINTI BAHAROM                                      -           -           -             579501159     
D00000000000RAHIFA BINTI RANOM                                          A12881220   -           A12881220     4466001160     
D06177232010ZULHANI BIN RASIN                                           A 20237429  A3236558    A 20237429    4551501163     
D11737054010SYAHRUL AZWAN BIN SUNDI @ SUANDI                            -           -           -             7158501166     
D00000000000IRMA WANI BINTI JAMALUDIN                                   -           -           -             3553501169     
D00000000000NURUL AKMAR BINTI MEHAT                                     -           -           -             2102001170     
D00000000000KHAIRIN BIN ABDULLAH                                        -           -           -             89001174     
D03649610300MOHD MAWARDI BIN BADRUDDIN                                  -           -           -             652001177     
D02340710600LIEW PAY JUN                                                -           -           -             8282001178     
D12138070100IBRAHIM BIN AHMAD                                           -           A1335562    -             3655001180     
D00000000000HAFIZI BIN MOHAMAD                                          -           -           -             117001181     
D10760593070FARAH SHAHNAZ BINTI FEROZ                                   -           -           -             5869501182     
D12480480900SYAHIBUDIL IKHWAN BIN ABDUL KUDUS                           -           -           -             7526001183     
D00000000000MOHD RIZUAN BIN BAHARON                                     -           -           -             5480001184     
D10552618050MULIATI BINTI SEDEK                                         -           -           -             7103501185     
D01275831000MUSTAFA BIN MANAP                                           -           -           -             1795501187     
D00000000000AZIAH BINTI KHAMIS                                          -           -           -             6715001188     
D20159282070FADILAH BINTI ABDUL AZIS                                    -           -           -             1195501189     
D15923180900MOHD KHAIRI BIN MOHD ZAMBRI                                 -           -           -             3788501192     
D18203710300INTAN AZMIRA BINTI WAN ABDUL RAZAK                          -           -           -             2545501193     
D00000000000NURDIANA BINTI NORDIN @ MUSA                                -           -           -             2863901195     
D00000000000MUHAMMAD SHARIL BIN YAHAYA                                  17708422    -           17708422      7431501196     
D50564201000NOR AZMAN BIN ABU                                           -           A1379695    -             8191501197     
D00000000000SAIFUDIN HAFIZ BIN YAHAYA                                   A15008193   -           A15008193     7872501199     
D00000000000REDUAN BIN MAT DAN                                          A14560840   A1809148    A14560840     8355501200     
D12169435060MOHD RIDUAN BIN AHMAD                                       A13330700   -           A13330700     6471501202     
D00000000000MOHD SHUKOR BIN SALLEH                                      -           -           -             9265501203     
D00000000000MURZIDAH BINTI AHMAD MURAD                                  -           -           -             7169001204     
D11379290800RAHIMAH BINTI ABDUL HAMID                                   A16046549   -           A16046549     5406001205     
D00000000000SITI AISAH BINTI MAT JUNOS @ YUNUS                          -           -           -             2908001206     
D07722000300ZARINA BINTI MOHD NOH                                       A14145018   -           A14145018     5533001208     
D00000000000MOHD FAIRUS BIN ABDOLLAH                                    -           -           -             3829001210     
D00000000000MOHD AZLI BIN SALIM                                         -           -           -             7015501211     
D00000000000MOHAMAD HARRIS BIN MISRAN                                   A13897429   -           A13897429     4134501212     
D00000000000MAIZATUL ALICE BINTI MEOR SAID                              A13890501   -           A13890501     4793501213     
D06224420700LIM KIM CHUAN                                               A12908828   -           A12908828     11247501214     
D00000000000MUHAMMAD SYAFIK BIN JUMALI                                  -           -           -             1015001216     
D21158800200MOHD ASYADI 'AZAM BIN MOHD ABID                             -           -           -             10627501217     
D11242308060EMALIANA BINTI KASMURI                                      -           -           -             5817001218     
D00000000000AMIR BIN ARIS                                               -           -           -             3481501220     
D00000000000HUZAIMAH BINTI HUSIN                                        -           A3737827    -             1345501221     
D04665115020ZULKARNAIN BIN ZAINUDIN                                     A14113578   A1403318    A14113578     5201501223     
D00000000000NURLISA LOKE BINTI ABDULLAH                                 A12539695   A3022073    A12539695     7659001224     
D04274240040RUZAIDI BIN ZAMRI                                           -           A1968107    -             7973501226     
D66006310700AMIRUDDIN BIN AHAMAT                                        -           A2402873    -             8705501227     
D01275850600NORHIDAYAH BINTI MOHAMAD                                    -           -           -             5561501228     
D06211462340MUZALIFAH BINTI MOHD SAID                                   -           -           -             6336001237     
D00000000000NIK SYAHRIM BIN NIK ANWAR                                   A9489555    -           A9489555      3612501238     
D05179031090NOR RATNA BINTI MASROM                                      -           A2916696    -             4269001239     
D03613592050AZHAR BIN AHMAD                                             -           A0231057    -             8671501240     
D51184631000NURAZLINA BINTI MD SANUSI                                   -           A2933468    -             7792001241     
D00000000000SIVA KUMAR A/L SUBRAMANIAM                                  -           -           -             8607501242     
D00000000000AZHAN BIN AB RAHMAN                                         A13140210   -           A13140210     6350001243     
D04612559000ZULKIFILIE BIN IBRAHIM                                      A14740947   A0314821    A14740947     40372001244     
D12131369070MUHAMMAD ZAIMI BIN ZAINAL ABIDIN                            -           -           -             9383501245     
D00000000000AHMAD MASMULIYADI BIN MOHD YUSOF                            -           -           -             417501246     
D01669360600IMRAN BIN HINDUSTAN                                         -           -           -             3889501247     
D00000000000ZULKIFLI BIN IBRAHIM                                        A13219063   -           A13219063     5566001249     
D06603268070KHAIRUL ANUAR BIN A RAHMAN                                  -           A2671553    -             4437001250     
D00000000000MOHD RUSDY BIN YAACOB                                       -           -           -             7543501252     
D05656317050MOHD FAUZI BIN KAMARUDIN                                    A1263003    A1756669    A1263003      11115501255     
D00000000000AHMAD FAIZUL BIN AHMAD TAJUDIN                              -           -           -             28501264     
D00000000000MOHD ZAHAR BIN SARIMAN @ SARMAN                             -           -           -             18501267     
D65976520500HASRUL HADI BIN ABU SAMAH                                   -           A3392659    -             113501270     
D00000000000MUHAMMAD SYAFIQ BIN SYED MOHAMED                            -           -           -             5800501274     
D00000000000HAIROL NIZAM BIN MOHD SHAH                                  -           -           -             6665001275     
D46651150210SYAHIDA BINTI MOHTAR                                        -           A3875054    -             2978501276     
D00695810900MOHD NAZRIN BIN MUHAMMAD                                    -           -           -             6262501277     
D00000000000NORHIDAYAH BINTI MOHAMAD YATIM                              -           -           -             6343501278     
D09009720100AIMIE NAZMIN BIN AZMI                                       -           -           -             6730001279     
D03534400900HAZMAN BIN HASIB                                            -           -           -             4446001282     
D00000000000FUDHAIL BIN ABDUL MUNIR                                     -           -           -             6946001283     
D11234490200NUR RASHID BIN MAT NURI @ MD DIN                            A13224746   -           A13224746     6694501284     
D06476070800ABDUL SYUKOR BIN MOHAMAD JAYA                               A17693053   -           A17693053     4052501287     
D00000000000RADIN ZAID BIN RADIN UMAR                                   A12569556   -           A12569556     7004501289     
D00000000000NADIAH BINTI AHMAD                                          A12570302   -           A12570302     6374501290     
D06594532080MUHD AKMAL NOOR @ BUANG BIN RAJIKON                         -           A1386270    -             8352001292     
D00000000000HAIRUL BIN BAKRI                                            A9488595    -           A9488595      3149501294     
D66040040300ERMAN BIN HAMID                                             -           A3272802    -             7992501295     
D11379300100MOHD SAIFUZAM BIN JAMRI                                     -           -           -             1316401296     
D00000000000NORHAFIZ BIN SALIM                                          -           -           -             4992601297     
D09990530600WONG YAN CHIEW                                              A14281632   -           A14281632     8632001298     
D11211244070ARIFF BIN IDRIS                                             -           A3307742    -             5702501299     
D07446740100NIK MOHD ZARIFIE BIN HASHIM                                 A15067088   -           A15067088     5415501300     
D00000000000NGO HEA CHOON                                               A14014688   -           A14014688     6934501302     
D00000000000MOHD ADRINATA BIN SHAHARUZAMAN                              -           -           -             4409501303     
D11385336100MOHD HANIF BIN CHE HASAN                                    -           -           -             2302501304     
D64570540100MOHD ZAKI BIN MAS'UD                                        -           -           -             7482501305     
D11996352030YOGAN A/L JAYA KUMAR                                        -           -           -             7193501307     
D43625800010KASTURI A/P KANCHYMALAY                                     -           A2342507    -             8992501309     
D00000000000NOR FAIZAH BINTI HAMINUDIN                                  -           -           -             2324501310     
D04463760900MOHD NAJIB BIN ALI MOKHTAR                                  -           -           -             3935001313     
D00000000000AZIZUL ARIFIN BIN ISA                                       -           -           -             502501342     
D00000000000MOHD HEDZUAN BIN HASBULLAH                                  -           -           -             54001344     
D00000000000SAFINAZ BINTI NORDIN                                        -           -           -             34001350     
D00000000000AZILINA BINTI MD BUANG                                      -           -           -             2820501356     
D00000000000FAIZOL BIN KAMARUL ZAHARI                                   -           -           -             72001361     
D00000000000WAN SAHARIZAL BIN WAN HARUN                                 -           -           -             72001362     
D00000000000MOHAMED KHAIRY BIN ALI                                      -           -           -             154001376     
D00000000000NURDIANA BINTI RASIB                                        -           -           -             17501379     
D00000000000NOOR AZMAN BIN MANSOR                                       -           -           -             103001382     
D11317409080SYAHRUL HISHAM BIN MOHAMAD @ ABD RAHMAN                     -           -           -             3051001386     
D00000000000MUSA BIN ABD KARIM                                          -           -           -             17501388     
D00000000000NAZURAH BINTI ABDULLAH                                      -           -           -             193501389     
D00000000000AZLIANI BINTI MD NGARI                                      -           A2798163    -             157001390     
D00000000000NOOR SYILAWATI BINTI AHMAD                                  -           -           -             118501392     
D00000000000SERIHATE BINTI MOHD ISA                                     -           -           -             153501393     
D00000000000MOHD HAPIZ BIN MOHD ARIFFIN                                 -           -           -             660001401     
D00000000000NORZURIYAHNI BINTI ABU BAKAR                                -           -           -             154001406     
D01337063040MOHAMAD ZIN BIN MAHMUD                                      -           A3925115    -             621501407     
D00000000000SHAMSIAH BINTI OMAR                                         -           -           -             26501416     
D00000000000SURIYANTY BINTI KASBAN                                      -           A3341104    -             1114501418     
D11688955010MOHD KAMIL ANUAR BIN AKRAM @ JUMMAH                         -           -           -             17001427     
D06471175070SEK YONG WEE                                                -           A2869074    -             7333501435     
D00000000000SITI ZURIANA BINTI OMAR                                     -           -           -             1177501437     
D00000000000MUHAMMAD AZWAN BIN ABDUL KADIR                              -           -           -             58501439     
D00000000000ZAIHASRAH BINTI ALIAS                                       -           -           -             1092501445     
D00000000000NORHAZILINA BINTI BAHARI                                    -           -           -             1995501446     
D06767760300SHAHRIL BIN PARUMO                                          -           -           -             4950001447     
D00000000000NOR HASLINDA BINTI ISMAIL                                   -           -           -             7711501452     
D00000000000FARADILA BINTI MD YUSOF                                     -           -           -             821501453     
D14105640400MOHD NUR AZMI BIN NORDIN                                    -           -           -             7334501454     
D00000000000NOOR ASYIKIN BINTI SULAIMAN                                 -           -           -             1485501455     
D06870340500ZAINUDDIN BIN ABDUL HAMID                                   -           A2968446    -             2872001457     
D11379311000ANUAR BIN MOHAMED KASSIM                                    -           -           -             7145501458     
D00000000000AIDA BINTI SALLEH                                           -           -           -             998501459     
D04408747000NORMA HAYATI BINTI HASHIM                                   -           A0701743    -             4639501461     
D00000000000MOHD ZAMZURI BIN AB RASHID                                  -           -           -             6024501462     
D64614480400MOHD NIZAM BIN YUSOF                                        -           A1944824    -             5041001466     
D00000000000AZMAN BIN MAT ARIS                                          -           A2582398    -             1838501468     
D00000000000RAHIZAH BINTI ABDUL RAHMAN                                  -           A3516674    -             1149401469     
D00000000000MOHD SHAHRUL NIZAM BIN SHUKOR                               -           -           -             1589501470     
D00000000000ZULFATRIA BIN ABDULLAH                                      -           -           -             1273501471     
D00000000000HAZRIN BINTI KASIM                                          -           -           -             535001472     
D11447660400NORHIDAYAH BINTI MOHD ZAINUDIN                              -           A3768810    -             1605001473     
D13513460300MOHD ERWAN BIN MD YUSOP                                     -           -           -             1860401474     
D00000000000MAHATHIR BIN MAZIZAN                                        A19634646   -           A19634646     1854501477     
D00000000000SAHHIZAM BIN MAAMIN                                         -           -           -             1745001478     
D12459060600FARA ASHIKIN BINTI ALI                                      A13333884   -           A13333884     4396801479     
D09954840100NORHASLINDA BINTI HASIM                                     -           -           -             2358001480     
D06080966030MOHD ASRI BIN YUSUFF                                        -           A1774439    -             5215001481     
D00000000000NOOR BAIDURI BINTI ABD HALIM                                -           -           -             1431501482     
D00000000000KHAIRUL RAZIK BIN MOHAMAD ISA                               -           -           -             1489501483     
D00000000000NURDAYANA IZYAN BINTI AHMAD AHSAN                           -           -           -             468501484     
D00000000000MOHD RADY BIN AB KARIM                                      -           -           -             838501485     
D16399930900ZULKIFLI BIN ISHAK                                          -           A3651049    -             2568501486     
D00000000000NAZRI HUZAIMI BIN ZAKARIA                                   -           -           -             3605001488     
D00000000000MOHD YUHAZRI BIN YAAKOB                                     -           -           -             7045001489     
D00000000000MOHD AMIN BIN MOHAMAD                                       -           -           -             10887501490     
D10662108040MOHD FAZLI BIN MOHD SAM                                     -           A3125370    -             6143501491     
D00000000000SITI RAHMAH BINTI SHAMSURI                                  -           -           -             2182501493     
D12459070400FADHLI BIN SYAHRIAL                                         A15629187   -           A15629187     4686001495     
D00000000000NUR FATIHAH BINTI AZMI                                      -           -           -             3175001497     
D00000000000HAMZAH BIN SIRUN                                            -           -           -             522501498     
D00000000000MOHD ANAS BIN A'DENAR                                       -           -           -             656001499     
D00000000000ZULAIKHA BINTI MD RADZAI                                    -           -           -             546501502     
D00000000000KHAIRUL NIZAM BIN MINHAT                                    -           -           -             522501503     
D00000000000NADLENE BINTI RAZALI                                        -           -           -             5540001505     
D00000000000NORAINI BINTI MOHD NOOR                                     -           -           -             696501506     
D00000000000HASLIZA BINTI MOHAMED                                       -           -           -             1600901507     
D00000000000OMAR BIN ABDUL AZIZ                                         -           -           -             75001508     
D21538770100HARULRIZAM BIN MOHAMED @ GHAZALI                            -           -           -             2764501510     
D00000000000AZRIN BIN AHMAD                                             -           A3723230    -             2820001513     
D00000000000KAMARUDIN BIN ABU BAKAR                                     -           A0948528    -             5730501514     
D00000000000WIZANA BINTI ABD JALIL                                      -           -           -             897001516     
D00000000000SITI NORBAYA BINTI SAHADAN                                  -           -           -             1309501518     
D00000000000SUSHELLA EDAYU BINTI MAT KAMAL                              -           -           -             1792501519     
D00000000000MOHAMAD RASHID BIN JANTAN                                   -           -           -             1785101520     
D47556060410AZRINA BINTI ALWI                                           -           A3709579    -             2890501521     
D00000000000NORAZAH BINTI MOHAMED YAZID                                 -           -           -             1821501522     
D00000000000NOR HANIZAH BINTI SAPUAN                                    -           -           -             756501523     
D00000000000SITI NORHASHIMAH BINTI KOLAH                                -           -           -             68501533     
D00000000000ROSZAIMAH BINTI WAHID                                       -           A2491597    -             06501548     
D00000000000JUNAIDI BIN IBRAHIM                                         -           -           -             73501557     
D00000000000NOOR SHAHIDA BINTI MOHD KASIM                               -           -           -             4507501566     
D00000000000RANJIT SINGH A/L SARBAN SINGH                               -           -           -             8544501569     
D06937990700SITI ROSMANIZA BINTI AB RASHID                              -           -           -             1575001570     
D12459090000MOHD MUZAFAR BIN ISMAIL                                     -           -           -             7386001575     
D06887720800SITI AISYAH BINTI ANAS                                      -           -           -             5958001576     
D20985890800MOHD SANUSI BIN ABDUL AZIZ                                  A19130928   -           A19130928     9623501589     
D00000000000SAZUAN NAZRAH BINTI MOHD AZAM                               -           -           -             3756101591     
D00000000000MOHD SHAHRIL BIN AHMAD KHIAR                                A16889097   -           A16889097     4924501592     
D00000000000NORAFIZAH BINTI ABAS                                        -           -           -             5741001593     
D00000000000NOR HIDAYAH BINTI RAHIM                                     -           -           -             4441001595     
D00000000000NUR ZAWANI BINTI SAHARUDDIN                                 -           -           -             1677001596     
D00000000000CHANG SIANG YEE                                             A14503398   -           A14503398     6336001597     
D00000000000HADIBAH BINTI TAHIR                                         -           -           -             1496501602     
D00000000000SHARIN BIN AB GHANI                                         -           -           -             1500501603     
D06791610500IRDA BINTI ROSLAN                                           A27012502   -           A27012502     3729001604     
D04924750600NOR AZMAN BIN MAT ARIFF                                     -           -           -             6211501606     
D00000000000MUSLIHA BINTI YUSOFF                                        -           -           -             2029501607     
D13374900700MOHAMAD LUTFI BIN DOLHALIT                                  -           A2416351    -             8555501608     
D00000000000MOHD FADHIL BIN IBRAHIM                                     -           -           -             24001615     
D47228291000MOHD FAIRUZ AZWAD BIN MOHD ZAUWAWI                          -           -           -             1598001617     
D00000000000JURAIDA BINTI JAMALUDDIN                                    -           -           -             692001618     
D00000000000AZMAN BIN AMIR                                              -           -           -             78501619     
D11324510100MAZLAN BIN AHMAD MANSOR                                     -           A2882173    -             5307001622     
D20560120700NOOR AZWAN BIN SHAIRI                                       -           -           -             6832201627     
D00000000000SYED ALIFF BIN SYED ARIFFIN                                 -           -           -             110501632     
D55923100000RIDZA AZRI BIN RAMLEE                                       -           A3240782    -             5426001634     
D00000000000MUHAMAD HAFEEZ BIN ZAINUDIN                                 -           -           -             78501638     
D00000000000ZAIDI BIN SAAD                                              -           -           -             1436001639     
D00000000000ZURAIDAH BINTI AMAR                                         -           -           -             28501643     
D13003730900MOHD HISHAM BIN ONDAR                                       -           A2983127    -             565501644     
D20981940700T JOSEPH SAHAYA ANAND                                       H0110086    -           H0110086      19539501645     
D22017511000KHAIRUL AZHA BIN A AZIZ                                     -           -           -             5865001648     
D00000000000FARHAN BIN HANAFFI                                          -           -           -             2671501649     
D01639790300NUR ILYANA BINTI ANWAR APANDI                               -           -           -             5663001651     
D00000000000NORDIANA BINTI MD LAMIN                                     -           -           -             118501656     
D00000000000NURUL HUSNA BINTI HAMZAH                                    -           -           -             125501658     
D24836481000MOHD AZMI BIN SURATMAN                                      -           A3769540    -             1029501662     
D00000000000NOORAZLINA BINTI YUSOP                                      -           -           -             424001663     
D00000000000RIZATHUL EMMA BINTI TAIB                                    -           -           -             790501666     
D00000000000NURAINI BINTI ZAKARIAH                                      -           -           -             657501667     
D00000000000MOHD SYIHAM AKMAL BIN SABAH @ SAABAN                        -           -           -             616001668     
D00000000000SITI HAJAR BINTI OTHMAN                                     -           -           -             3205501669     
D00000000000AZIRA BINTI AZIS                                            -           -           -             127501670     
D00000000000SURIA BINTI ABDUL RAHMAN                                    -           -           -             750501671     
D00000000000HONEY AMALINA BINTI LUQMAN UL-HAKIM NG                      -           -           -             118501672     
D00000000000SITI MUHAINI BINTI SHAARI                                   -           -           -             27001673     
D35592090500MOHD RAHIMI BIN YUSOFF                                      -           -           -             8103501676     
D00000000000ABDUL RAFEQ BIN SALEMAN                                     -           -           -             3615501677     
D63604970310UMMI RABAAH BINTI HASHIM                                    -           -           -             4534501678     
D00000000000JOHAR AKBAR BIN MOHAMAT GANI                                -           -           -             910501694     
D07338630900MUSA BIN YUSUP LADA                                         -           -           -             5646501695     
D00000000000MAHASAN BIN MAT ALI                                         -           -           -             2029501696     
D00000000000ZUL ATFYI FAUZAN BIN MOHAMMED NAPIAH                        -           -           -             6703501697     
D00000000000NUR HAZWANI BINTI MOKHTAR                                   -           -           -             5346501698     
D18879760800AFIFAH MAHERAN BINTI ABDUL HAMID                            -           -           -             6010501699     
D00000000000IMRAN BIN SUTAN CHAIRUL                                     -           -           -             2006001700     
D13600460300FAKRULRADZI BIN IDRIS                                       -           -           -             7753501701     
D22980190200AHAMED FAYEEZ BIN TUANI IBRAHIM                             -           -           -             5100501702     
D00000000000HANIZAM BIN HASHIM                                          -           A 297053    -             6205501703     
D00000000000SYED MOHAMAD SHAZALI BIN SYED ABDUL HAMID                   414893457   -           414893457     3705001704     
D20562340000NUZULHA KHILWANI BINTI IBRAHIM                              -           -           -             8152501706     
D04755589000MOHD SOUFHWEE BIN ABD RAHMAN                                -           -           -             8417501707     
D05207220500ZAMANI BIN MD. SANI                                         -           A3513186    -             8355501708     
D00000000000FADHILAH BINTI SHIKH ANUAR                                  A19700661   -           A19700661     6297501710     
D00000000000KHALIL AZHA BIN MOHD ANNUAR                                 A 18513155  -           A 18513155    5296501711     
D00233830100MASNI AZIAN BINTI AKIAH                                     -           -           -             4103501712     
D00000000000NURUL FATIHA BINTI JOHAN                                    -           -           -             1265501715     
