H1UTEM010801SW0030032023
0               630321016027  KHAIRUL BIN TAIB                        5000000000000007               
0               770727016486  NORAIDA BINTI MOHAMAD NOH               1000000000000015               
0               660508015240  LELA BINTI OMAR                         5000000000000020               
0               770228086519  AHMAD FADZLI NIZAM BIN ABDUL RAHMAN     1000000000000021               
0               760612045333  AZHAR BIN MOHD SALLEH                   2000000000000022               
0               761111045348  NUR AZRIAH BINTI AMIR                   1000000000000024               
0               770905045432  SABARINA BINTI ABDULLAH                 2000000000000025               
0               740101045261  BAKRI BIN ABU BAKAR                     8000000000000026               
0               790505045044  SURAYAH BINTI SAE                       6500000000000028               
0               790805045134  ROSNAH BINTI AB MAJID                   3100000000000044               
0               750419016283  MUHAMMAD SYAHRIR BIN JOHAL              1000000000000045               
0               700330035191  AHMAD SHAARIZAN BIN SHAARANI            1000000000000046               
0               710917015500  MASLITA BINTI ABD AZIZ                  1000000000000047               
0               810817015122  AZLINAH BINTI AJIS                      1200000000000048               
0               770804045476  NURAIDA BINTI ISMAIL                    6000000000000055               
0               750607045073  AHMAD BIN ABU BAKAR                     5000000000000057               
0               721017145469  WAN AMIRRUDDIN BIN WAN MOHD             5000000000000058               
0               780121045636  MIMI RAHAYU BINTI HAMDIN                1100000000000060               
0               760724017126  ALIDAH BINTI MOHD ALI                   5000000000000063               
0               770724045636  NORFAHRIZAN BINTI JUHARI                4000000000000066               
0               771110045812  MAISARAH BINTI ABU                      2000000000000075               
0               700216045193  ZUHAIMI BIN ALIAS                       7000000000000076               
0               760505145689  MOHD NIZAM BIN MAZLAN                   3000000000000077               
0               691130045094  ANIZA BINTI OTHMAN                      3500000000000078               
0               731019055028  ANISAH BINTI KASIM                      1000000000000083               
0               770414045518  NORHAZLENA BINTI SABTU                  1300000000000085               
0               750831045393  ZULKARNAEN BIN MAHAT                    5000000000000086               
0               780714086193  HADZLI ZUL BIN HAMRAN                   1000000000000093               
0               750417135772  SITI HUZAIMAH BINTI HUSIN               5000000000000094               
0               740625016875  RAIS BIN MAHAT                          2000000000000096               
0               760411045142  HAZILAH BINTI HAMID                     2500000000000098               
0               780520045350  ZAKIAH BINTI AYOP                       5000000000000099               
0               760203016208  RAFEDAH BINTI SAJADI                    5000000000000101               
0               790721145074  JURIFA BINTI MAT LAZI                   1600000000000102               
0               761218145437  ZAIHASRAF BIN ZAKARIA                   7000000000000103               
0               680608015887  MOHAMAD BIN MINHAT                      8900000000000107               
0               671215045319  ABDUL RAZAK BIN HUSSAIN                 2600000000000113               
0               771207135646  FAUZURA BINTI MOHD SALLEH               5000000000000118               
0               670226055382  RAZIFAH BINTI MAT RAIS                  2000000000000124               
0               701207015683  MOHD ZULKEFLI BIN SELAMAT               8000000000000129               
0               740814045085  SHAHRULANUAR BIN MOHAMED                1000000000000131               
0               701120045468  MARSITA BINTI MOHD TAIB                 2500000000000133               
0               720606016206  SUHAILA BINTI SALLEH                    4000000000000135               
0               690225045041  MUSA BIN ABDULLAH                       1150000000000139               
0               810729045305  MOHAMAD ROSLAN BIN SABTU                4000000000000140               
0               791103145426  SYARULNAZIAH BINTI ANAWAR               5000000000000142               
0               800302016004  NOOR AZIAN BINTI MAHMOOD                6000000000000148               
0               770414045171  MUHAMMAD SHUHAIMI BIN ABU BAKAR         3500000000000152               
0               770715045351  MOHD RADUAN BIN KHALIL                  5000000000000153               
0               780414105700  SITI ZURAH BINTI MOHD NASIR             3000000000000154               
0               701109015073  HASSAN BIN ATTAN                        1000000000000157               
0               690201105900  ROSIDAH BINTI JAAFAR                    4000000000000162               
0               730222715066  ROSLEEN BINTI ABDUL SAMAD               1000000000000172               
0               730510145563  SYED NAJIB BIN SYED SALIM               2500000000000174               
0               820314055404  NAZARINA BINTI ABDUL NASSER             3400000000000176               
0               720602016137  HAMBALI BIN AREP @ ARIFF                2600000000000178               
0               761112045438  AZEAN BINTI AHMAD                       5500000000000180               
0               770618045114  MAASPALIZA BINTI AZRI                   2500000000000184               
0               780803045262  NOOR IZWANNI BINTI AMIL                 7500000000000186               
0               751215045108  SAZELIN BINTI ARIF                      1300000000000190               
0               770319026167  MUHAMMAD ZAHIR BIN HASSAN               1500000000000192               
0               740719086268  ZARINA BINTI BAHARUDIN ZAMANI           4000000000000196               
0               690410055188  FAUZIYAH BINTI SALEHUDDIN               5000000000000199               
0               770120045600  RASIDA BINTI ABU BAKAR                  2000000000000203               
0               790819015390  HAYANI BINTI ABU YAMIN                  5000000000000206               
0               810430045239  MOHD HANAFI BIN HASSAN                  5000000000000207               
0               730401115568  NOOR AZILAH BINTI DRAMAN@MUDA           6000000000000210               
0               760805045081  ZAMANI BIN SALLEH                       1500000000000211               
0               761011045092  RINA ARIANTY BINTI HASHIM               5200000000000212               
0               800208045028  RAPIZA BINTI ISHAK                      3200000000000213               
0               640312045626  FARIDAH BINTI AHMAD                     3000000000000215               
0               810825045022  MARHAMAH BINTI AHMAD                    1000000000000224               
0               780129045227  ARMAN BIN MOHAMMAD                      1070000000000225               
0               820405105710  MI AZIAN BINTI AB.KARIM                 2000000000000226               
0               790521055138  NORAZLIN BINTI MOHAMMED                 1500000000000228               
0               790223015197  ZAINUDIN BIN SALLEH                     5000000000000234               
0               700803045235  SARIMAN BIN AJIS                        6000000000000239               
0               770302016042  MAZNE BINTI JA'AFFAR                    8000000000000241               
0               780323145029  HAZRIL BIN ABDUL WAHAB                  5000000000000244               
0               660106015993  MOHAMED SUHAIMI BIN ABDULLAH            3000000000000245               
0               780107055395  AMIR SYARIFUDDIN BIN KASIM              5000000000000248               
0               800907135049  SAIFULLAH BIN SALAM                     1000000000000250               
0               760513045020  AZLINDA BINTI MOHD YUNUS                6000000000000257               
0               731124045219  MOHD NIZAM BIN PAVEL                    4000000000000258               
0               740428145440  AZLINA BINTI AMZAH                      5000000000000264               
0               691114045297  ZULHAIRI BIN OTHMAN                     4200000000000266               
0               761121015505  KHAIRULNIZAM BIN A. RAHMAN              2000000000000269               
0               770927145004  IDAMURNI BINTI ISMAIL                   3000000000000273               
0               781016035182  ANIS SUHAILA BINTI MOHD ZAIN            7000000000000279               
0               800110016579  ASJUFRI BIN MUHAJIR                     1600000000000280               
0               780918045270  NURUL AKMAR BINTI EMRAN                 2000000000000282               
0               770216045314  SYAHIRA BINTI MOHD ADNAN                7000000000000283               
0               750914025662  NORAIN BINTI ISMAIL                     2000000000000287               
0               790121015348  ZAHRIAH BINTI OTHMAN                    6000000000000290               
0               791114016443  ZULKIFLEE BIN MUSLIM                    5000000000000291               
0               770914016238  NUR IZAN SYAHRIAH BINTI HUSSEIN         1500000000000296               
0               781218045493  NURULFAJAR BIN ABD MANAP                3000000000000306               
0               760106016740  ASLINDA BINTI SUANDI                    1500000000000311               
0               771016016097  MD FAHMI BIN ABD SAMAD @ MAHMOOD        5000000000000312               
0               760413085367  SARMAN BIN BASRI                        1000000000000314               
0               671215045183  MOHD RIZAL BIN SALLEH                   1000000000000318               
0               680506105056  NOORNAHAR BINTI AKASHAH                 1000000000000321               
0               770614045424  NORFAZLIZAH BINTI MAT SAPAR             3000000000000326               
0               800818105817  SANI IRWAN BIN SALIM                    1000000000000329               
0               800430085231  FARIZ BIN ALI @ IBRAHIM                 3000000000000331               
0               801224105670  NORHASHIMAH BINTI MOHD SAAD             5000000000000332               
0               781111035658  AIDA FAZLIANA BINTI ABDUL KADIR         1500000000000334               
0               710711015927  ZOLKARNAIN BIN MARJOM                   4900000000000335               
0               791007015138  ANI BINTI JAFFRI                        1400000000000343               
0               791209025529  ABDUL RAHIM BIN ABDULLAH                1000000000000345               
0               811018045207  FAZROL BIN OTHMAN                       1000000000000352               
0               800526045138  NOOR HAFIZA BINTI OTHMAN                6500000000000353               
0               801008045183  SYARIDAN BIN SHAARANI @ TAN             1000000000000354               
0               760504045336  NOR FAZILAH BINTI ABDUL HAMID           3300000000000355               
0               771101045626  HANIZA BINTI NAHAR                      1800000000000362               
0               780211055010  SHARIFAH AZIMAH BINTI SYED AZIZ         3500000000000363               
0               800512086422  HAZURA BINTI HAROON                     3000000000000364               
0               801018065321  MOHD SHAHRIL IZUAN BIN MOHD ZIN         1000000000000369               
0               800322045144  NORERNI BINTI A. RAHMAN                 1000000000000370               
0               771016045779  ZAIRUDIN BIN SAID                       5000000000000371               
0               690221045407  SUHAIMI BIN BASRAH                      1000000000000373               
0               770204045472  ROZINAH BINTI YAKOP                     1000000000000374               
0               740925115090  AZAH KAMILAH BINTI DRAMAN @ MUDA        7000000000000375               
0               760410055269  MOHD HAIZAL BIN MOHD HUSIN              5000000000000382               
0               790323055014  NORIHAN BINTI ABU NAWAR                 6000000000000385               
0               770917045528  ERNIE BINTI MAT TOKIT                   9000000000000386               
0               820326045262  ZAINARIA BINTI SURIP                    1600000000000388               
0               770910016265  ZAIRULAZHA BIN ZAINAL                   6500000000000395               
0               670524055217  SAHAR BIN SALEHAN                       2000000000000398               
0               780815015562  SABRINA BINTI AHMAD                     2000000000000402               
0               770703045784  TEH ZANARIAH BINTI MOHD RAUS            2000000000000414               
0               771206016127  SUHAIMI BIN MISHA                       8500000000000420               
0               810303045092  ZUHANA BINTI JOHARI                     3500000000000435               
0               770211045040  MARLIZA BINTI RAMLY                     4000000000000448               
0               680531045083  ABDUL AZIZ BIN ABU BAKAR                3000000000000451               
0               760429016999  ASSHARI BIN ABBAS                       2000000000000455               
0               640221045655  ABDUL MAJID BIN ISNIN                   4100000000000457               
0               810923045376  AZURAH BINTI AHMAD                      3000000000000460               
0               680723015073  SHAHRIN BIN SAHIB @ SAHIBUDDIN          1500000000000463               
0               740531015126  FAUZIAH BINTI KASMIN                    2000000000000467               
0               771116115420  SITI AZIRAH BINTI ASMAI                 2500000000000472               
0               700906105480  FAAIZAH BINTI SHAHBODIN                 3000000000000477               
0               820614045056  NOOR MANISHA BINTI MAHAT                3000000000000482               
0               740902146003  ABDUL RAHMAN ROSLI BIN MAHMOOD          2000000000000483               
0               730526125225  MASLAN BIN ZAINON                       1000000000000486               
0               780529016265  MOHD HAFIZ BIN ZAKARIA                  5000000000000487               
0               750526045338  ERNAWATIE BINTI MD SAH                  3300000000000488               
0               771101025801  MUHAMAD SOPIAN BIN BAHAROM              2000000000000489               
0               781231146475  AHMAD AIZAN BIN ZULKEFLE                5000000000000491               
0               791108045088  AZIMATON BINTI AHMAD                    1000000000000503               
0               800502045125  AHMAD AFFENDAY BIN MOHAMED SANI         3600000000000505               
0               771001045477  NAZARUDDIN BIN MD YUNUS                 2500000000000506               
0               800613045232  NORASIKIN BINTI MD ISA                  1100000000000510               
0               790221045253  MOHD YAZID BIN ABU                      5000000000000512               
0               781113025269  MOHD RADZIF BIN ABD HAMID               1150000000000514               
0               830404015683  SHAIFULIZAM BIN ISHAK                   1000000000000516               
0               810715045195  MUHAMMAD SYAHRIZAN BIN JOHAL            7000000000000518               
0               800901045042  ZURAIDA BINTI ABDUL HADI                3750000000000519               
0               800803045356  NORZALINA BINTI ANUAR                   3600000000000521               
0               820427045085  ASNAN BIN ABAS                          1500000000000522               
0               801028045068  NORFAEZAH BINTI MOHD TARMIZI            3000000000000525               
0               811006045242  IRASTIKA MURNI BINTI SELAMAT            1400000000000526               
0               820714045467  MOHD KHAIRUL AKMAL BIN MOHD NOOR        1200000000000528               
0               800901055056  NORLIZAWATI BINTI AB RAHAMAN            5000000000000529               
0               810803015877  MUHAMMAD HELMY BIN ELIAS                2500000000000531               
0               811003015793  HAIRMI BIN OTHMAN                       4000000000000534               
0               800104045154  ZURAIDAH BINTI ABDULLAH                 1000000000000537               
0               760719045472  RUSNI BINTI HASAN                       2000000000000538               
0               750103016965  MD FAUZA BIN NAHRAWI                    5000000000000541               
0               801220065026  RAINAH BINTI ISMAIL                     2000000000000552               
0               700114045037  ABD AZIZ BIN MUSTAPA                    3800000000000565               
0               730610045199  MAHADI BIN ABU HASSAN                   5000000000000568               
0               670206025012  MARSITAH BINTI ABU BAKAR                2500000000000573               
0               671231065088  ZURAIDA BINTI MOHAMED TAIB              5000000000000577               
0               820521045487  AZHAR SHAH BIN ABU HASSAN               3000000000000579               
0               730423055121  ZULKIFLI BIN MOHD ROSLI                 7000000000000585               
0               811117045608  NURHAYATI BINTI MOHD SHARIFF            2200000000000590               
0               800423015171  FAIZAL AZMIR BIN ABDUL AZIZ             1000000000000591               
0               720204045178  HAZLEEN BINTI HJ. KAHARUDIN             1000000000000592               
0               801223045020  RAFIDAH BINTI KASIM                     1000000000000593               
0               760219016173  HAIRUL NIZAM BIN DAUD                   1000000000000603               
0               780708045483  SAHARUDIN BIN PUTEH                     4200000000000604               
0               760616115175  AZMI BIN ZAKARIA                        5000000000000605               
0               701026715082  RAPIDAH BINTI MAZLAN                    3500000000000608               
0               720111045689  RIDZUAN BIN AHMAD                       1000000000000609               
0               690226105771  ABDUL HALIM BIN DAHALAN                 1900000000000614               
0               770430045390  NORHAFIZAH BINTI MD YUSOH               7000000000000618               
0               810704045042  ROHANA BINTI HASHIM                     6000000000000623               
0               741205045375  MOHD HANAPIAH BIN MD LIP                5500000000000625               
0               730709016208  SITI SALWAH BINTI AHMAD                 8000000000000626               
0               751015045314  ELIA ERWANI BINTI HASSAN                3000000000000628               
0               741002045201  NAZRULAZHAR BIN BAHAMAN                 1000000000000629               
0               810417015641  SAHRIL BIN BAHAR                        8500000000000632               
0               810309015484  NOR AN BINTI IBRAHIM                    1000000000000637               
0               750126045101  NOREFFENDY BIN TAMALDIN                 4000000000000638               
0               740716085446  JARIAH BINTI MOHAMAD JUOI               1500000000000641               
0               740523065529  NOR AZMMI BIN MASRIPAN                  1000000000000642               
0               650809015317  MISDOM BIN LAN                          1000000000000650               
0               810111045194  KAMARIAH BINTI KAMIS                    5000000000000652               
0               760420045048  NOR ATEKAH BINTI OMAR @ MAHMUD          7000000000000653               
0               790826045096  SURIATI BINTI AKMAL                     4000000000000655               
0               781106146265  MOHD HENDRA BIN HAIRI                   4500000000000658               
0               750923715104  ANITA AKMAR BINTI KAMAROLZAMAN          5000000000000660               
0               710316085757  FARID ARAFAT BIN AZIDIN                 8000000000000661               
0               791202105171  NOR AKRAMIN BIN MOHAMAD                 5000000000000667               
0               771119045958  JUNAIDAH BINTI KASIM                    4000000000000668               
0               770205115284  ZAHARIAH BINTI MANAP                    3000000000000669               
0               660802045117  OTHMAN BIN MOHD                         1200000000000681               
0               711215015690  NORHIDA BINTI MD. SAID                  1000000000000684               
0               780511045121  AZMAN BIN AZAHARI                       2000000000000690               
0               740105065999  KAMARUL ARIFFIN BIN ZAKARIA             5000000000000692               
0               741227015046  HANISSAH BINTI MOHAMAD @ SULAIMAN       1000000000000693               
0               730212045134  NORLIAH BINTI KUDUS                     1400000000000716               
0               800227045306  SITI AISYA BINTI DAUD                   1300000000000733               
0               761002085500  NURAZUA BINTI MOHD. YUSOP               3000000000000737               
0               810714045118  NUR HAKIMAH BINTI AB AZIZ               1000000000000741               
0               720717045325  ROSLI BIN SAID                          2000000000000743               
0               801111045018  SITI SABRINAH BINTI BUANG               1000000000000747               
0               780607145135  NOOR AZMAN BIN KAMIS                    3000000000000755               
0               690629045099  RAHIM BIN SULAIMAN                      5000000000000756               
0               780604045358  NOR-ALIZA BINTI IBRAHIM                 1000000000000757               
0               810311145747  HIDAYAT BIN ZAINUDDIN                   1000000000000758               
0               680813015114  ROBIAH BINTI YUSOF                      5000000000000763               
0               790927016227  MOHD AZMAN BIN ABDULLAH                 1000000000000764               
0               780128045145  MOHD SANUSI BIN AZMI                    2700000000000765               
0               701026015094  SERI RAHAYU BINTI KAMAT                 8000000000000767               
0               760614035243  MOHD RIZAL BIN ALKAHARI                 3000000000000768               
0               731123105785  MOHD JUZAILA BIN ABD. LATIF             5000000000000769               
0               781201015570  SYARIFFANOR BINTI HISHAM                1100000000000770               
0               770909115530  ROHAYATI BINTI ABDULLAH                 4500000000000775               
0               731017145409  AMRAN BIN AB. SANI                      7000000000000780               
0               761008085042  ELFA LAILY BINTI MOHD TAHIR@MOHD RAMLI  2000000000000791               
0               640525035069  ZAMRE BIN ABD GHANI                     1000000000000795               
0               801115045250  MASURIYA HANI BINTI AB. WAHID           8000000000000803               
0               730216045203  AHMAD RIDZWAN BIN MOHD NOOR             6000000000000804               
0               780808045165  SHAHROM BIN MOHD SAID                   5000000000000808               
0               820920045417  AHMAD RHAFAEE BIN SAMSUDIN              1000000000000809               
0               800929045167  TINTA FIRMANNIKA BIN SELAMAT            1000000000000813               
0               750912045256  RATNASAERAH BINTI AZIS                  5000000000000814               
0               800412025382  NORHAYATI BINTI AHMAD                   5000000000000815               
0               790501045557  SHAMSUL BIN ABU SAMAH                   3000000000000816               
0               820923145712  NOORLIZAWATI BINTI KAMIS                4000000000000821               
0               790416016524  NORLEEN BINTI AZAM                      1000000000000824               
0               821027045398  ARYANTI BINTI ISMAIL                    1200000000000825               
0               680318045121  MOHD ARIS BIN HASAN                     1000000000000830               
0               800417145586  ALIZA BINTI CHE AMRAN                   1000000000000834               
0               830829045271  AHMAD ZAKI BIN ABDULLAH                 2500000000000837               
0               800414045264  ADAWIYAH BINTI MD JANI                  5000000000000838               
0               820810045328  NUR SYAHIDA BINTI YAHYA                 1900000000000839               
0               781214045015  AMIR HAFIZUDDIN BIN A. BAKAR            3500000000000840               
0               730110115306  MERIAM BINTI A. RAHMAN                  3500000000000844               
0               820909075017  MUHAMAD ASARI BIN ABDUL RAHIM           1300000000000847               
0               780515045305  MOHAMAD FUAD BIN JA'AFAR                1000000000000848               
0               820116045280  SULAINA BINTI KAMARDIN @KAMARUDIN       2500000000000849               
0               771109045858  FADZLIN BINTI AMZAH                     8500000000000851               
0               781219045081  MUHAMMAD FAZLIE BIN RAMLI               2000000000000853               
0               811230045255  ED. SOFFUAN BIN YUSOF                   2000000000000854               
0               840907045170  NOORAIDILLAH BINTI RASDI                1000000000000862               
0               710302045367  RAZAMAN BIN KASSIM                      1000000000000879               
0               790121045328  NORALIZA BINTI YUSOF                    5000000000000880               
0               820627015585  MAZLAN BIN TUMIN                        1000000000000881               
0               790901015525  MOHD HAIRI BIN MD RAHIM                 1000000000000882               
0               681018715044  MAZURA BINTI MUSTAFA                    5000000000000891               
0               770713015925  HANAFY BIN YUSOF                        1600000000000899               
0               831015045111  MOHD SALLEHIN BIN OTHMAN                2100000000000906               
0               781216045182  SITI FAIRUS BINTI ABU BAKAR             2000000000000918               
0               810104015544  ERNIHAZRA BINTI MD JOHAN                1000000000000921               
0               710726015540  ROZANA BINTI ABU BAKAR                  2000000000000926               
0               740312016591  ROHAILI BIN RAMLI                       1600000000000929               
0               791128035055  FAIZUL AKMAR BIN ABDUL KADIR            1000000000000933               
0               811102045154  MARIATY BINTI MOHD SAAT                 2500000000000936               
0               710112035504  NOR AZAH BINTI ABDUL AZIZ               1000000000000943               
0               801219045503  MOHD SHAHRIEEL BIN MOHD ARAS            2500000000000949               
0               780317045216  SYAMIMAH BINTI MOHAMAD HATA             1000000000000951               
0               790111045201  MOHD AMRI BIN SULAIMAN                  2800000000000956               
0               720728016001  AZHAN BIN ABDUL RAUB                    1500000000000959               
0               740718115127  JASMADI BIN ISMAIL                      5000000000000963               
0               710513065149  A.NASORUDDIN BIN MOHAMAD                2000000000000968               
0               751119075139  ISMAIL BIN IBRAHIM                      2000000000000969               
0               731130025214  ZAWIAH BINTI MAT                        1000000000000970               
0               760627017546  HASLINDA BINTI MUSA                     1400000000000971               
0               700622715092  HALIZAH BINTI BASIRON                   2000000000000979               
0               711020016124  MARIATI BINTI YEM                       2000000000000980               
0               730312015418  ROSIDAH BINTI AWANG                     4000000000000983               
0               811130085858  ZURAIDA BINTI ABAL ABAS                 6000000000000989               
0               730527035109  NIK MOHD FARID BIN CHE ZAINAL ABIDIN    5000000000000991               
0               811004145872  NURIDAWATI BINTI MUSTAFA                4000000000000993               
0               800510115656  ZALEHA BINTI MUSTAFA                    5000000000000994               
0               740912115032  NORAZLINA BINTI ABD RAZAK               3000000000000996               
0               810219045006  SAHAZATI BINTI MD. ROZALI               2900000000000997               
0               810528045114  SHARATUL IZAH BINTI SAMSUDIN            8000000000000998               
0               790125015062  RAFIDAH BINTI HASAN                     2000000000001014               
0               740508016390  SITI RAHAYU BINTI SELAMAT               5000000000001017               
0               800927715016  FATIMAH AL-ZAHRAH BINTI MOHD SA'AT      7000000000001019               
0               780317045363  NAZRI BIN MD DAUD                       8000000000001020               
0               790207035139  HYREIL ANUAR BIN KASDIRIN               3500000000001027               
0               700309075383  BURHANUDDIN BIN MOHD ABOOBAIDER         1200000000001029               
0               760604045093  MOHD FAIZAL BIN ABDOLLAH                5000000000001036               
0               740728045003  SOFFIAN BIN HASHIM                      1000000000001039               
0               810218135050  ZURAINI BINTI OTHMAN                    1000000000001043               
0               791220025802  KHADIJAH BINTI WAN MOHD GHAZALI         1500000000001048               
0               730516045344  NOR HAFEIZAH BINTI HASSAN               7000000000001054               
0               640916085039  AHMAD FAIRUZ BIN MUHAMMAD AMIN          1100000000001062               
0               730212045249  MOHD IRMAN BIN RAMLI                    5500000000001075               
0               790120065511  AMINURRASHID BIN NOORDIN                5000000000001084               
0               800702045015  ABD SHUKUR BIN JA'AFAR                  4000000000001088               
0               810730086243  KHAIRUDDIN BIN OSMAN                    4000000000001091               
0               761109035095  SAIFULZA BIN ALWI @ SUHAIMI             1500000000001093               
0               801024145969  FAIRUL AZHAR BIN ABDUL SHUKOR           5600000000001094               
0               790414025259  MUHD RIDZUAN BIN MANSOR                 6000000000001097               
0               830712015140  JUNAINAH BINTI SARDI                    1000000000001098               
0               750928015705  MOHD RAZALI BIN MOHAMAD SAPIEE          2000000000001101               
0               800614045197  MOHD FADZLI BIN ABDOLLAH                7000000000001102               
0               730323135482  MARIAM MIRI BINTI ABDULLAH              5000000000001103               
0               791025145331  MOHD ZAID BIN AKOP                      1350000000001110               
0               720721115357  AZMAN BIN AWANG TEH                     4000000000001111               
0               741011045115  SABRI BIN MOHAMAD SHARIF                1500000000001116               
0               811226065157  MOHAMAD HAIDIR BIN MASLAN               3000000000001117               
0               811010045149  MOHAMAD RIDZUAN BIN JAMLI               1500000000001118               
0               760623026031  IMRAN BIN MOHD IBRAHIM                  8000000000001120               
0               810516085389  MUHAMMAD HAFIDZ FAZLI BIN MD FAUADI     2000000000001122               
0               811120045297  LOKMAN BIN ABDULLAH                     3000000000001123               
0               790722025840  ZURINA BINTI SHAMSUDIN                  5000000000001124               
0               740218016472  NORIHAN BINTI ABDUL HAMID               3000000000001125               
0               791005105527  MOHD AFZANIZAM BIN MOHD ROSLI           2150000000001129               
0               750913045178  NOOR MASLIAN BINTI OTHMAN @ ABDUL HALIP 2000000000001131               
0               720515045415  ISMAIL BIN ABU SHAH                     1000000000001132               
0               780624085939  ISA BIN HALIM                           4200000000001134               
0               810614085833  MOHAMMAD KAMIL BIN SUED                 2000000000001135               
0               810727145142  ANIS NIZA BINTI RAMANI                  8000000000001138               
0               780418045151  MOHD HARY BIN UJANG                     1000000000001139               
0               781024065445  KYAIRUL AZMI BIN BAHARIN                6500000000001142               
0               810324715024  SYAFEEZA BINTI AHMAD RADZI              7000000000001145               
0               810122146070  MAHANUM BINTI MOHD ZAMBERI              1000000000001147               
0               810529036279  MOHD RODY BIN MOHAMAD ZIN               1000000000001153               
0               820712146408  RAHIFA BINTI RANOM                      1200000000001160               
0               831027015606  IRMA WANI BINTI JAMALUDIN               4500000000001169               
0               830913035789  HAFIZI BIN MOHAMAD                      1000000000001181               
0               801231075684  FARAH SHAHNAZ BINTI FEROZ               1000000000001182               
0               810403045145  MOHD RIZUAN BIN BAHARON                 6500000000001184               
0               831123045178  AZIAH BINTI KHAMIS                      2000000000001188               
0               820830025455  MOHD KHAIRI BIN MOHD ZAMBRI             4000000000001192               
0               790915055181  MUHAMMAD SHARIL BIN YAHAYA              3000000000001196               
0               800627035115  MOHD RIDUAN BIN AHMAD                   1000000000001202               
0               820604035858  SITI AISAH BINTI MAT JUNOS @ YUNUS      9000000000001206               
0               831218065278  NUR ALISA BINTI ALI                     1000000000001215               
0               790531015711  MOHD ASYADI 'AZAM BIN MOHD ABID         1150000000001217               
0               780205016760  EMALIANA BINTI KASMURI                  1000000000001218               
0               810322015665  AMIR BIN ARIS                           4000000000001220               
0               720209025299  RUZAIDI BIN ZAMRI                       2500000000001226               
0               820621146234  MUZALIFAH BINTI MOHD SAID               2000000000001237               
0               820326085627  MOHD RUSDY BIN YAACOB                   2000000000001252               
0               840521045231  MOHD ZAKI BIN ABU BAKAR                 2000000000001253               
0               790715045069  FADZLY BIN NORDIN                       8000000000001258               
0               820506045227  MOHD KHAIRUL BIN HASSAN                 8000000000001268               
0               811202065267  MOHD SHAHRIZAN BIN DHAHLAN              2300000000001269               
0               760921045011  HASRUL HADI BIN ABU SAMAH               5500000000001270               
0               830603045279  FADHIL BIN AHMAD                        1000000000001272               
0               831225075669  MUHAMMAD SYAFIQ BIN SYED MOHAMED        1400000000001274               
0               841121045018  NORHIDAYAH BINTI MOHAMAD YATIM          1300000000001278               
0               831129095109  AIMIE NAZMIN BIN AZMI                   3000000000001279               
0               780822085577  NUR RASHID BIN MAT NURI @ MD DIN        1750000000001284               
0               840530715049  RADIN ZAID BIN RADIN UMAR               5000000000001289               
0               790716035479  MOHD HANIF BIN CHE HASAN                3500000000001304               
0               780912015003  MOHD ZAKI BIN MAS'UD                    5000000000001305               
0               840607036176  SITI NORMI BINTI ZABRI @ SUHAIMI        3000000000001312               
0               860826305266  SITI ROHANI BINTI MANAN                 1000000000001320               
0               700530045247  AMIR SHARIFUDDIN BIN MOHD YASIN         5000000000001323               
0               870619045237  AHMAD FITRI BIN ADAM                    2000000000001328               
0               780126045432  SITI AISHAH BINTI ABD RAHMAN            4000000000001331               
0               780525065158  NIK ASMAH BINTI NIK AZIZ                3500000000001335               
0               860320305437  MOHD FIRDAUS BIN ABU BAKAR              1000000000001340               
0               850911055223  MOHD HEDZUAN BIN HASBULLAH              5000000000001344               
0               871130045148  MASLIANA BINTI RAZALI                   1300000000001359               
0               850316055237  FAIZOL BIN KAMARUL ZAHARI               1000000000001361               
0               770929045111  HABIRAFIDI BIN RAMLY                    3250000000001366               
0               801112045204  SHAMSIAH HASITA BINTI SHAFIE            7000000000001369               
0               810613065144  SITI SUHAILIN BINTI MOHD SIDEK          1200000000001372               
0               851014146007  MOHAMED KHAIRY BIN ALI                  5000000000001376               
0               820809045013  NOOR AZMAN BIN MANSOR                   2000000000001382               
0               760618017093  MOHD TAUFIK BIN ABD AZIZ                1000000000001383               
0               810612115381  SYAHRUL HISHAM BIN MOHAMAD @ ABD RAHMAN 4000000000001386               
0               830220016622  SITI AMINAH BINTI MD ALI                6000000000001403               
0               830617045210  NORZURIYAHNI BINTI ABU BAKAR            2000000000001406               
0               780214106207  MOHAMAD ZIN BIN MAHMUD                  1800000000001407               
0               851121045148  SITI FATIMAH BINTI KAMARUDIN            3000000000001410               
0               800720045000  SITI NURBAIZURA BINTI OMAR              7000000000001412               
0               760508017332  SURIYANTY BINTI KASBAN                  3500000000001418               
0               871211045326  NUR AIN BINTI HASAN                     6000000000001424               
0               820405085385  MOHD KAMIL ANUAR BIN AKRAM @ JUMMAH     1000000000001427               
0               840823055136  KHARMIZA BINTI BURHANUDDIN              3200000000001431               
0               830401045297  NUR A'KASHAH BIN BUHARI                 2500000000001433               
0               800312045132  SITI AISAH BINTI KHADISAH               2700000000001438               
0               790111085887  MUHAMMAD AZWAN BIN ABDUL KADIR          1400000000001439               
0               800419045298  ZAIHASRAH BINTI ALIAS                   8000000000001445               
0               831026065222  NORHAZILINA BINTI BAHARI                2000000000001446               
0               850910065569  MOHD NUR AZMI BIN NORDIN                2000000000001454               
0               790412045088  NOOR ASYIKIN BINTI SULAIMAN             2000000000001455               
0               790710065618  AIDA BINTI SALLEH                       7200000000001459               
0               821024035231  MOHD ZAMZURI BIN AB RASHID              3000000000001462               
0               780217045155  AHMAD HAFIZ BIN MOHD PUAD               5000000000001467               
0               730827145203  AZMAN BIN MAT ARIS                      5000000000001468               
0               770511045448  RAHIZAH BINTI ABDUL RAHMAN              1000000000001469               
0               770929145956  NORHIDAYAH BINTI MOHD ZAINUDIN          2500000000001473               
0               840802086304  FARA ASHIKIN BINTI ALI                  3000000000001479               
0               840726045278  NORHASLINDA BINTI HASIM                 2000000000001480               
0               710103035609  MOHD ASRI BIN YUSUFF                    3000000000001481               
0               831106045395  KHAIRUL RAZIK BIN MOHAMAD ISA           1100000000001483               
0               820816016552  NURDAYANA IZYAN BINTI AHMAD AHSAN       5500000000001484               
0               800218045259  MOHD RADY BIN AB KARIM                  6000000000001485               
0               810711035889  MOHD YUHAZRI BIN YAAKOB                 1000000000001489               
0               840605105684  SITI RAHMAH BINTI SHAMSURI              4000000000001493               
0               840624086095  FADHLI BIN SYAHRIAL                     3500000000001495               
0               850311035050  NUR FATIHAH BINTI AZMI                  1000000000001497               
0               820911115065  MOHD ANAS BIN A'DENAR                   1200000000001499               
0               850202875018  ZULAIKHA BINTI MD RADZAI                1000000000001502               
0               840205045184  NADLENE BINTI RAZALI                    5000000000001505               
0               830213035390  NORAINI BINTI MOHD NOOR                 1000000000001506               
0               831212015210  HASLIZA BINTI MOHAMED                   5000000000001507               
0               790710016365  HARULRIZAM BIN MOHAMED @ GHAZALI        1000000000001510               
0               730726045385  AZHAR BIN ISMAIL                        1000000000001511               
0               820330045265  MOHAMAD RASHID BIN JANTAN               5000000000001520               
0               841216045280  NORAZAH BINTI MOHAMED YAZID             5000000000001522               
0               810330015518  NOR HANIZAH BINTI SAPUAN                2000000000001523               
0               880804665090  NUR HIDAYAH BINTI MUSTAFAH              1500000000001536               
0               830430045173  ALIHANAFIAH BIN ISMAIL                  1000000000001546               
0               840925015311  MUHAMMAD REDZUAN BIN MASIJAN            1500000000001549               
0               860922305039  MOHD RIF'AN BIN ABDUL RAHMAN            1800000000001550               
0               850819045153  ASNOR HADI BIN AZIAN                    1000000000001551               
0               780916045437  HAIRUL BIN ANWAR                        5000000000001556               
0               860509305000  SUZANA BINTI LAZIM                      1500000000001565               
0               830213045126  NOOR SHAHIDA BINTI MOHD KASIM           4000000000001566               
0               850711045397  SUHAIMI BIN OMAR                        1000000000001567               
0               851114035320  SITI ROSMANIZA BINTI AB RASHID          1000000000001570               
0               790723086397  MOHD SHAFARIM BIN MOHD SAID             2000000000001571               
0               831228045190  NORLIZA BINTI BABA                      2000000000001572               
0               820615015537  SHAZLEY BIN SAHIBUDDIN                  1000000000001581               
0               760108045158  NORMALISZA BINTI MUSTAPA                3500000000001582               
0               870711045117  MOHD KHAIRUL IZAM BIN HARUN             1000000000001587               
0               820130015926  AZIANA BINTI M BAHRIM                   4000000000001590               
0               840814045358  NOR HIDAYAH BINTI RAHIM                 5000000000001595               
0               840917055030  NUR ZAWANI BINTI SAHARUDDIN             1210000000001596               
0               861118305286  SITI MARZIANA BINTI SARIF               7000000000001601               
0               840602045292  HADIBAH BINTI TAHIR                     2000000000001602               
0               830617045296  IRDA BINTI ROSLAN                       2000000000001604               
0               730312045297  MOHAMAD LUTFI BIN DOLHALIT              3000000000001608               
0               830118146156  NURUL AFIZA BINTI BAHARI                2600000000001612               
0               820812045014  ROSMIZA BINTI  MOHD SAAD                3000000000001613               
0               830106016549  AZRUL SYAFIQ BIN MAZLAN                 5000000000001614               
0               850331035082  NURDIYANA BINTI SAMSUDIN                3000000000001620               
0               860409235527  MUHAMMAD AKMAL BIN ABD SHUKOR           2000000000001630               
0               831103045349  MOHD HANAFIAH BIN MOHD ISA              1400000000001636               
0               861018305115  MOHD AMIRUL ANUAR BIN ABD RAZAK         1000000000001642               
0               821006016141  KHAIRUL AZHA BIN A AZIZ                 5000000000001648               
0               810924045570  NUR ILYANA BINTI ANWAR APANDI           5000000000001651               
0               880905235698  NUR ZAFIQAH BINTI MOHD ZIN              3100000000001654               
0               860701335250  NURUL HUSNA BINTI HAMZAH                5000000000001658               
0               830128045316  NOORAZLINA BINTI YUSOP                  2000000000001663               
0               880904086424  SUHAILA BINTI MOHD YUSOF                5000000000001664               
0               850727015272  NURAINI BINTI ZAKARIAH                  2000000000001667               
0               880221565370  AZIRA BINTI AZIS                        1500000000001670               
0               781011045170  UMMI RABAAH BINTI HASHIM                2000000000001678               
0               820412045381  MUHAMAD FIRDAUS BIN MAZLI               3000000000001681               
0               810221045101  ABDUL RAHMAN BIN SALLEH                 3000000000001691               
0               821211045267  JOHAR AKBAR BIN MOHAMAT GANI            2000000000001694               
0               830503105297  ZUL ATFYI FAUZAN BIN MOHAMMED NAPIAH    2000000000001697               
0               831007025786  AFIFAH MAHERAN BINTI ABDUL HAMID        4000000000001699               
0               841014145005  IMRAN BIN SUTAN CHAIRUL                 5000000000001700               
0               841018016147  FAKRULRADZI BIN IDRIS                   1500000000001701               
0               770607086797  ZAMANI BIN MD. SANI                     2000000000001708               
0               850412115738  FADHILAH BINTI SHIKH ANUAR              1500000000001710               
0               840327115486  NURUL FATIHA BINTI JOHAN                4000000000001715               
0               850320045568  NURSABILLILAH BINTI MOHD ALI            1200000000001716               
0               850304025006  SYAHAR AZALIA BINTI  AB SHUKOR          8000000000001718               
0               851020465004  SITI FATIMAH BINTI SULAIMAN             1200000000001723               
0               851028016174  MASTURA BINTI MOHAMMAD TAHA             3000000000001724               
0               830111715168  NORLEZAH BINTI HASHIM                   5000000000001725               
0               850128025399  HAMZAH ASYRANI BIN SULAIMAN             3000000000001726               
0               830731015904  NUR HAZAHSHA BINTI SHAMSUDIN            1300000000001731               
0               831013075317  HASRUL 'NISHAM BIN ROSLY                1000000000001732               
0               850905016180  NURUL HILWA BINTI MOHD ZINI             7000000000001733               
0               811016086355  MOHD SAAD BIN HAMID                     3000000000001734               
0               830307025214  TOIBAH BINTI ABD RAHIM                  1600000000001736               
0               851228035169  AL AMIN BIN MOHAMED SULTAN              1100000000001740               
0               811119095174  SITI HALMA BINTI JOHARI                 2000000000001744               
0               771010045516  NURMAZWATI BINTI ABDUL WAHAB            1000000000001745               
0               840216075805  FAUZAL NAIM BIN ZOHEDI                  5300000000001746               
0               801221025843  MOHD FAIZAL BIN HALIM                   1000000000001749               
0               771015086763  MOHD FAUZI BIN AB RAHMAN                6000000000001750               
0               790430045348  SARNI SUHAILA BT RAHIM                  1050000000001756               
0               851124045071  MUHAMAD SYAHMI BIN AYOB                 5000000000001762               
0               810923115346  SUZITA BINTI YUSUF                      4000000000001763               
0               851008146609  ANAS BIN ABDUL LATIFF                   1500000000001768               
0               851014055244  NURUL ZARIRAH BINTI NIZAM               1000000000001775               
0               850120045010  NORHAZWANI BINTI MD YUNOS               2100000000001776               
0               841005065628  NORBAYAH BINTI YUSOP                    5000000000001778               
0               851113025358  IDA SYAFIZA BINTI MD ISA                2300000000001779               
0               830321015813  MOHD NAJWAN BIN MD KHAMBARI             5000000000001783               
0               851219015107  NOR AZLAN BIN MOHD ARIS                 1000000000001784               
0               820915015977  NIDZAMUDDIN BIN MD. YUSOF               1000000000001785               
0               841216015831  NUR LATIF AZYZE BIN MOHD SHAARI AZYZE   1100000000001786               
0               870622045457  MOHAMAD RIZAL BIN MOHAMAD DERUS         5000000000001788               
0               861122355307  ADIB BIN OTHMAN                         1000000000001790               
0               850927045222  NOORHAIZAH BT IBRAHIM                   6000000000001791               
0               851015016044  ARFAH BINTI AHMAD                       1000000000001792               
0               830118025266  NUSAIBAH BINTI MANSOR                   7000000000001794               
0               760222045207  MOHD NIZAM BIN BIDIN                    3000000000001798               
0               851003055193  MOHD NOOR ASRIL BIN SAADUN              1150000000001801               
0               880128235529  AHMAD FARHAN BIN JAMALUDIN              5000000000001803               
0               810611016234  NETTY MUHALIZZA BINTI MOHD FADZIL       1000000000001804               
0               821214035216  ZAINI BINTI FADZULLAH                   2500000000001806               
0               830904045387  MOHD HAIRULL BIN ABDOLAH                6500000000001811               
0               850725145882  SITI AZURA BINTI AHMAD TARUSAN          1000000000001812               
0               900518045275  MUHAMMAD AKMAL BIN MAD YATIM            3000000000001814               
0               850729105212  SITI AMANIAH BT MOHD CHACHULI           2000000000001817               
0               820919085403  MUHAMMAD ZAIDAN BIN ABDUL MANAF         1500000000001820               
0               850608146253  MOHD ZARLIZAN BIN ZAKARIA               3000000000001821               
0               820621045230  NURLIYANA BINTI ABD. MUTALIB            6000000000001824               
0               830902045439  SHAHRIZAN BIN ABDULLAH                  1000000000001840               
0               820608035265  NOR IZWAN BIN JUNOH                     2000000000001848               
0               831206035004  LIZAWATI BINTI SALAHUDDIN               8500000000001851               
0               760414055047  BADROLHISAM BIN HARUN                   2900000000001852               
0               840123145309  KHAIRUL ANWAR BIN ABDUL TAHRIM          2000000000001854               
0               760902045358  NOR ZALIPAH BTE SULIMAN                 2500000000001858               
0               861111355432  NUR FAZILAH BINTI MOHD KASSIM           1000000000001866               
0               810309105279  MUKHIFFUN BIN MUKAPIT                   2000000000001868               
0               810301065022  MARIANA BINTI MOHD AMIN                 6000000000001872               
0               851208145336  AINE IZZATI BINTI TARMIZI               1400000000001874               
0               810912145718  NORSUHADA BINTI MANSOR                  1000000000001875               
0               830214045304  NORHASANAH BINTI ZAINAL                 1000000000001879               
0               781107075593  AZMIN FADLI BIN MAHYUDDIN               1500000000001887               
0               861020385396  NUR MAISARAH BT MOHD SOBRAN             5000000000001890               
0               820918065216  SUZIANA BINTI AHMAD                     1000000000001891               
0               840304055126  NUR QAMAR BINTI MAHAROFF                1000000000001894               
0               840123045033  MOHD. FARID BIN ISMAIL                  7000000000001896               
0               780922015453  MOHD SUFIAN BIN ABU TALIB               5000000000001898               
0               850106045348  SITI SARAH BINTI BUJANG                 3000000000001899               
0               861107295019  MOHAMAD FANI BIN SULAIMA                1000000000001901               
0               680610085649  AHMAD NIZAM BIN JAMALUDIN               5000000000001902               
0               860727305076  NURHIDAYAH BINTI ABDUL BAREED           2000000000001903               
0               810913045284  RAFIDAH BINTI AB.KASIM                  6000000000001904               
0               830405045139  NAZRI BIN BAKAR                         1000000000001915               
0               860504335278  NORIZAN BINTI MAT DAUT                  3000000000001923               
0               800714016983  MOHD YUSZAH BIN JAILANI                 2500000000001928               
0               850708105619  IEZWAN BIN SABTU                        2000000000001932               
0               790901145872  NORSURIA BINTI AZIS                     1000000000001933               
0               831125045251  MUSZAFAR BIN AHMAD                      5000000000001942               
0               821117025104  SAFINA BINTI ADERIS                     1900000000001954               
0               851009145181  RADI HUSIN BIN RAMLEE                   1500000000001956               
0               810323035238  SYAMILAH BT MOHD ALI                    1000000000001959               
0               780224045479  BAHATIAR BIN ZAID                       6000000000001962               
0               770620016195  HASNORIZAL BIN HAIRUDDIN                3250000000001963               
0               770821105805  MD JANUAR BIN MD JANI                   1000000000001964               
0               851119045245  MUHAMAD FAIRUZD BIN NAHARUDIN           2000000000001966               
0               860625145569  MOHD HAFIDZAL BIN MOHD HANAFI           1200000000001976               
0               851010115035  AZIZI BIN ABD RASID                     3000000000001986               
0               750823045035  AB. HAMID BIN AZIZ                      1000000000001990               
0               880520235304  ATIKAH BINTI RAZI                       5900000000001998               
0               810103045055  MUHAMMAD FAIRUZ BIN ABU BAKAR           3000000000002000               
0               900812055204  NUR JANNAH BINTI HASIMI                 1000000000002008               
0               900729055158  NURFADHLIYANA BINTI ROSLI               5000000000002011               
0               890831235175  MOHSIN BIN KAMARUZAMAN                  2000000000002012               
0               890510025652  SYALWANIE BINTI MOHAMAD ROZI            1000000000002020               
0               850919145231  MUHAMMAD RAIHAAN BIN KAMARUDIN          1000000000002021               
0               860102015618  NUR ASMIZA BINTI SELAMAT                1650000000002025               
0               860629045127  MOHD SYAIRAZI BIN RAZALI                3000000000002030               
0               860505305230  ERNA NOORBAIZURA BINTI ZAIDAN           5000000000002036               
0               810201035299  MAZLAN B. MAMAT @ AWANG MAT             3500000000002041               
0               870725045062  MUNIRAH BINTI ZAINAL                    1100000000002044               
0               780503015408  NORASHIDAH BINTI TAJUDDIN               1500000000002045               
0               820516016219  ANUARRUDIN BIN MD SOOM                  6000000000002046               
0               860129045032  ARFAH SYAHIDA BINTI MOHD NOR            2500000000002047               
0               871231435938  EZREEN FARINA BINTI SHAIR               1000000000002050               
0               800804045462  YANG SARINAH BINTI MOHD TALIB           3500000000002052               
0               800731045276  AMIZA BINTI HJ. TALIB                   7000000000002053               
0               850121026014  ADIBAH HANEEM BINTI MOHAMAD DOM         7000000000002055               
0               810620026266  MAS HASLINDA BINTI MOHAMAD              4250000000002062               
0               861128305351  'AZHAM FIDA'IY BIN AZKAR                3000000000002063               
0               831102045478  ELIYANA BINTI RUSLAN                    2000000000002067               
0               861109335141  ALIAS SUKRI BIN KHAIRUDIN               1000000000002068               
0               860909235056  NASLINDA BINTI NASARI                   3400000000002069               
0               830528045315  RAMLAN BIN LATIP                        5000000000002071               
0               851222045358  FARAH FARHANAH BINTI MD LANI            1000000000002085               
0               880301045068  AIMI NAZIHAH BINTI MD YUSOH             2000000000002087               
0               881015045256  MADIHAH BINTI DAUD                      3000000000002089               
0               900309086003  MOHAMMAD TAUFIK BIN OSMAN               1000000000002091               
0               881010045134  ZULRIDAH BINTI ZULKEFLE                 9000000000002093               
0               881003115800  SITI NURJANNAH BINTI AHMAD              7000000000002096               
0               730610045113  ZAINAL BIN BAHARIM                      2750000000002098               
0               881206045371  ZAID BIN ABDULLAH                       1000000000002111               
0               881021045228  ADZILAWATI BINTI MOHD SAID              4000000000002113               
0               861206435419  MOHD RAZIF BIN DZULKIPLI                2000000000002115               
0               871204065580  NADIAH BINTI ZAINAL ABIDIN              6000000000002119               
0               680417015075  EFFENDY ONN BIN SIAM                    2000000000002123               
0               881213065688  NURUL WIRDAH BINTI MAFAZI               5000000000002128               
0               800702025962  MEZ ZELINA BINTI YUSOF                  2000000000002129               
0               870511065666  NOR LAILATUL AZILAH BINTI HAMDZAH       1800000000002132               
0               850226115451  CHE WAN MOHD FAIZAL BIN CHE WAN MOHD ZAL1000000000002138               
0               820809146199  MOHD FA'IZ BIN WAHID                    1000000000002147               
0               780712045064  NUZAIMAH BTE MUSTAFA                    1500000000002149               
0               831220045233  MUHAMAD FAIZAL BIN MAZLI                3000000000002166               
0               801122016431  MOHD AZAM BIN ABDULLAH                  1800000000002170               
0               820316075425  MUHAMMAD ZULFATTAH BIN ZAKARIA          1000000000002173               
0               670314015284  FADZILAH BINTI SALIM                    2000000000002174               
0               680608045381  NURULHALIM BIN HASSIM                   5000000000002188               
0               840805045313  HAFIZUL AZLAN BIN ISMAIL                5000000000002193               
0               830224145552  DAYANASARI BINTI ABDUL HADI             2000000000002195               
0               770404115439  TG MOHD FAISAL BIN TENGKU WOOK          2000000000002210               
0               850702055032  NURUL HANIM BINTI HAJI RAZAK            2500000000002211               
0               681114045319  ADNAN BIN SAHNAN                        3000000000002214               
0               870105875006  FATIMAH BINTI MD. RADZAI                5000000000002240               
0               860905305248  NAZREEN BINTI WAELEH                    1000000000002251               
0               850516015969  MUHAMMAD FAREQ BIN IBRAHIM              1500000000002252               
0               900821045008  TEH FATIMAH SHAM BINTI MOHD ISA         1000000000002262               
0               861104565327  MOHAMAD RIDZUAN BIN MOHAMAD KAMAL       2500000000002263               
0               790405045215  MOHD FAIROL BIN AHMAD                   1600000000002272               
0               870430565327  MOHD KHUWARIZMI BIN MAHAT               2500000000002274               
0               820502086371  RAJA NOR FIRDAUS KASHFI BIN RAJA OTHMAN 7000000000002285               
0               800602055021  MOHD KAMAL BIN MUSA                     4000000000002292               
0               840101085114  ROSZIANA BINTI HASHIM                   1500000000002297               
0               810401045272  HAIRULIZAN BINTI YACOB                  1500000000002299               
0               900429015584  AMIRA BINTI ASKAT                       1500000000002308               
0               820820045014  MUNIRAHWATI BINTI RAMLI                 2000000000002312               
0               850724035497  MOHD SULHAN BIN MOKHTAR                 1500000000002313               
0               850730045093  FAREES EZWAN BIN MOHD SANI @ ARIFFIN    2000000000002315               
0               850626035434  RAEIHAH BINTI MOHD ZAIN                 4900000000002316               
0               811217035394  SYAHRIZA BT ISMAIL                      1860000000002323               
0               880314055046  NUR RAFIQAH BINTI ABDUL RAZIF           3000000000002326               
0               850301105481  ROZAIMI BIN GHAZALI                     6000000000002335               
0               860113105432  NURUL AIN BINTI MAIDIN                  1000000000002352               
0               871010025150  NURBAHIRAH BINTI NORDDIN                6500000000002353               
0               881217035638  WAN HASZERILA BINTI WAN HASSAN          2000000000002365               
0               850313086230  FADATU SALWA BINTI MUTANI               1500000000002366               
0               880428045030  NOOR SAFFREENA BT HAMDAN                4000000000002377               
0               810127015459  MOHD FARID BIN JOHARI                   1000000000002380               
0               800909015593  FAKHRULLAH BIN IDRIS                    1000000000002385               
0               801019016273  MOHAMAD NAZIR BIN MASROM                1000000000002388               
0               840423125334  AMALIA AIDA BINTI ABD HALIM             3300000000002391               
0               860312295611  MOHAMED SAIFUL FIRDAUS BIN HUSSIN       7000000000002392               
0               880827045425  MOHD HARIZ BIN NAIM @ MOHAYAT           1000000000002393               
0               811004035067  ADDYAZIZI BIN MAT NAWI                  1500000000002396               
0               870907015454  NUR FARAH BAZILAH BINTI WAKHI ANUAR     5000000000002407               
0               821213025753  MOHD NAZRI BIN AHMAD                    3000000000002409               
0               920420065276  WAN NUR WAHIDAH BINTI MAMAT             1500000000002410               
0               810622065613  MAZRAN BIN AHMAD                        1500000000002411               
0               840515045163  MUHAMMAD SYAHRANI BIN JOHAL             2000000000002413               
0               860724566246  HALYANI BINTI MOHD YASSIM               7000000000002416               
0               830618105529  MUHAMAD FALIHAN BIN BAHARI              1600000000002422               
0               930727045586  ZULFERAH BINTI ZULKEFLE                 3000000000002436               
0               880420045239  AMIR ABDULLAH BIN MUHAMAD DAMANHURI     4000000000002443               
0               930708045038  AINUR FATEHAH BINTI MOHD NOOR           3000000000002448               
0               931103045507  NOR MOHAMMAD NAZIRUL BIN ZAHARI         1000000000002450               
0               851025015643  MOHD HIDAYAT BIN AB RAHMAN              1000000000002451               
0               920306045300  NURUL NAZMIZA BINTI MOHD SEHAT          5000000000002454               
0               881124565410  SITI NUR SUHAILA BINTI MIRIN            5000000000002470               
0               871230045284  INTAN NAQUIAH FAZRIN BINTI TAZAR AROS   5000000000002471               
0               701107086679  MOHAMAD FUZI BIN SAIDIN                 5000000000002475               
0               800925095095  KHAIRIL AMRI BIN KAMARUZZAMAN           1000000000002480               
0               880928045213  MOHD FAIZUHAR BIN RAZALI                2000000000002481               
0               780612105744  ROSNAINI BINTI RAMLI                    3000000000002491               
0               860225385723  MOHD HAFIZI BIN ABDUL RAHMAN            3500000000002493               
0               871218385091  MOHAMMAD RAFI BIN OMAR                  1000000000002494               
0               840321015994  NORSALINA BINTI SOMININ                 2600000000002495               
0               861205465173  NUR MUHAMAD FIRDAUS BIN NOR AZMAN       1000000000002496               
0               880527525726  ROZILAWATI BINTI MOHD NOR               8000000000002499               
0               911103045373  MUHAMMAD IQBAL BIN AMDAN                1000000000002501               
0               790812086583  S.M.WARUSIA MOHAMED BIN S.M.M YASSIN    1500000000002503               
0               880208045311  MOHD SAFUAN BIN RAYA                    9000000000002504               
0               910113045284  NURUL SYAMIMI BINTI NORAZMI             3000000000002506               
0               910314016607  MOHD HADZREN REDZA BIN NORHIDZAM AMIN AK2000000000002512               
0               830701045045  KHAIRUL AZRI BIN AZLAN                  1050000000002530               
0               870911075214  WAN SYAFIDATUL IMA BINTI WAN OMAR       3000000000002533               
0               880512135194  SUHAILA BINTI MOHD NAJIB                5000000000002539               
0               891013045681  MUHAMMAD IZZAT ZAKWAN BIN MOHD ZABIDI   5000000000002553               
0               860712436495  WAN SHAFIQ BIN W AHMAD ZAIKI            5000000000002559               
0               920822017242  NOOR IZZATI BINTI ABD JALAL             6000000000002576               
0               940813045012  SITI NUR BAIZURA BINTI AHMAD BUANG      5000000000002586               
0               871027305167  KHAIRUL AMRI BIN TOFROWAIH              2000000000002594               
0               820704045172  HARTINI BINTI AZMAN                     1500000000002597               
FF0006790000028515000000000000000
